{"abi":[{"inputs":[{"internalType":"uint256","name":"minimum","type":"uint256"},{"internalType":"address","name":"creator","type":"address"}],"stateMutability":"nonpayable","type":"constructor"},{"inputs":[{"internalType":"uint256","name":"","type":"uint256"},{"internalType":"address","name":"","type":"address"}],"name":"approvals","outputs":[{"internalType":"bool","name":"","type":"bool"}],"stateMutability":"view","type":"function"},{"inputs":[{"internalType":"uint256","name":"index","type":"uint256"}],"name":"approveRequest","outputs":[],"stateMutability":"nonpayable","type":"function"},{"inputs":[{"internalType":"address","name":"","type":"address"}],"name":"approvers","outputs":[{"internalType":"bool","name":"","type":"bool"}],"stateMutability":"view","type":"function"},{"inputs":[],"name":"approversCount","outputs":[{"internalType":"uint256","name":"","type":"uint256"}],"stateMutability":"view","type":"function"},{"inputs":[],"name":"contribute","outputs":[],"stateMutability":"payable","type":"function"},{"inputs":[{"internalType":"string","name":"description","type":"string"},{"internalType":"uint256","name":"value","type":"uint256"},{"internalType":"address payable","name":"recipient","type":"address"}],"name":"createRequest","outputs":[],"stateMutability":"nonpayable","type":"function"},{"inputs":[{"internalType":"uint256","name":"index","type":"uint256"}],"name":"finalizeRequest","outputs":[],"stateMutability":"nonpayable","type":"function"},{"inputs":[],"name":"manager","outputs":[{"internalType":"address","name":"","type":"address"}],"stateMutability":"view","type":"function"},{"inputs":[],"name":"minimumContribution","outputs":[{"internalType":"uint256","name":"","type":"uint256"}],"stateMutability":"view","type":"function"},{"inputs":[{"internalType":"uint256","name":"","type":"uint256"}],"name":"requests","outputs":[{"internalType":"string","name":"description","type":"string"},{"internalType":"uint256","name":"value","type":"uint256"},{"internalType":"address payable","name":"recipient","type":"address"},{"internalType":"bool","name":"complete","type":"bool"},{"internalType":"uint256","name":"approvalCount","type":"uint256"}],"stateMutability":"view","type":"function"}],"devdoc":{"kind":"dev","methods":{},"version":1},"evm":{"assembly":"    /* \"Campaign.sol\":434:2596  contract Campaign {... */\n  mstore(0x40, 0x80)\n    /* \"Campaign.sol\":989:1105  constructor(uint minimum, address creator) {... */\n  callvalue\n  dup1\n  iszero\n  tag_1\n  jumpi\n  revert(0x00, 0x00)\ntag_1:\n  pop\n  mload(0x40)\n  sub(codesize, bytecodeSize)\n  dup1\n  bytecodeSize\n  dup4\n  codecopy\n  dup2\n  dup2\n  add\n  0x40\n  mstore\n  dup2\n  add\n  swap1\n  tag_2\n  swap2\n  swap1\n  tag_3\n  jump\t// in\ntag_2:\n    /* \"Campaign.sol\":1052:1059  creator */\n  dup1\n    /* \"Campaign.sol\":1042:1049  manager */\n  0x01\n  0x00\n    /* \"Campaign.sol\":1042:1059  manager = creator */\n  0x0100\n  exp\n  dup2\n  sload\n  dup2\n  0xffffffffffffffffffffffffffffffffffffffff\n  mul\n  not\n  and\n  swap1\n  dup4\n  0xffffffffffffffffffffffffffffffffffffffff\n  and\n  mul\n  or\n  swap1\n  sstore\n  pop\n    /* \"Campaign.sol\":1091:1098  minimum */\n  dup2\n    /* \"Campaign.sol\":1069:1088  minimumContribution */\n  0x02\n    /* \"Campaign.sol\":1069:1098  minimumContribution = minimum */\n  dup2\n  swap1\n  sstore\n  pop\n    /* \"Campaign.sol\":989:1105  constructor(uint minimum, address creator) {... */\n  pop\n  pop\n    /* \"Campaign.sol\":434:2596  contract Campaign {... */\n  jump(tag_6)\n    /* \"#utility.yul\":88:205   */\ntag_8:\n    /* \"#utility.yul\":197:198   */\n  0x00\n    /* \"#utility.yul\":194:195   */\n  0x00\n    /* \"#utility.yul\":187:199   */\n  revert\n    /* \"#utility.yul\":334:411   */\ntag_10:\n    /* \"#utility.yul\":371:378   */\n  0x00\n    /* \"#utility.yul\":400:405   */\n  dup2\n    /* \"#utility.yul\":389:405   */\n  swap1\n  pop\n    /* \"#utility.yul\":334:411   */\n  swap2\n  swap1\n  pop\n  jump\t// out\n    /* \"#utility.yul\":417:539   */\ntag_11:\n    /* \"#utility.yul\":490:514   */\n  tag_23\n    /* \"#utility.yul\":508:513   */\n  dup2\n    /* \"#utility.yul\":490:514   */\n  tag_10\n  jump\t// in\ntag_23:\n    /* \"#utility.yul\":483:488   */\n  dup2\n    /* \"#utility.yul\":480:515   */\n  eq\n    /* \"#utility.yul\":470:533   */\n  tag_24\n  jumpi\n    /* \"#utility.yul\":529:530   */\n  0x00\n    /* \"#utility.yul\":526:527   */\n  0x00\n    /* \"#utility.yul\":519:531   */\n  revert\n    /* \"#utility.yul\":470:533   */\ntag_24:\n    /* \"#utility.yul\":417:539   */\n  pop\n  jump\t// out\n    /* \"#utility.yul\":545:688   */\ntag_12:\n    /* \"#utility.yul\":602:607   */\n  0x00\n    /* \"#utility.yul\":633:639   */\n  dup2\n    /* \"#utility.yul\":627:640   */\n  mload\n    /* \"#utility.yul\":618:640   */\n  swap1\n  pop\n    /* \"#utility.yul\":649:682   */\n  tag_26\n    /* \"#utility.yul\":676:681   */\n  dup2\n    /* \"#utility.yul\":649:682   */\n  tag_11\n  jump\t// in\ntag_26:\n    /* \"#utility.yul\":545:688   */\n  swap3\n  swap2\n  pop\n  pop\n  jump\t// out\n    /* \"#utility.yul\":694:820   */\ntag_13:\n    /* \"#utility.yul\":731:738   */\n  0x00\n    /* \"#utility.yul\":771:813   */\n  0xffffffffffffffffffffffffffffffffffffffff\n    /* \"#utility.yul\":764:769   */\n  dup3\n    /* \"#utility.yul\":760:814   */\n  and\n    /* \"#utility.yul\":749:814   */\n  swap1\n  pop\n    /* \"#utility.yul\":694:820   */\n  swap2\n  swap1\n  pop\n  jump\t// out\n    /* \"#utility.yul\":826:922   */\ntag_14:\n    /* \"#utility.yul\":863:870   */\n  0x00\n    /* \"#utility.yul\":892:916   */\n  tag_29\n    /* \"#utility.yul\":910:915   */\n  dup3\n    /* \"#utility.yul\":892:916   */\n  tag_13\n  jump\t// in\ntag_29:\n    /* \"#utility.yul\":881:916   */\n  swap1\n  pop\n    /* \"#utility.yul\":826:922   */\n  swap2\n  swap1\n  pop\n  jump\t// out\n    /* \"#utility.yul\":928:1050   */\ntag_15:\n    /* \"#utility.yul\":1001:1025   */\n  tag_31\n    /* \"#utility.yul\":1019:1024   */\n  dup2\n    /* \"#utility.yul\":1001:1025   */\n  tag_14\n  jump\t// in\ntag_31:\n    /* \"#utility.yul\":994:999   */\n  dup2\n    /* \"#utility.yul\":991:1026   */\n  eq\n    /* \"#utility.yul\":981:1044   */\n  tag_32\n  jumpi\n    /* \"#utility.yul\":1040:1041   */\n  0x00\n    /* \"#utility.yul\":1037:1038   */\n  0x00\n    /* \"#utility.yul\":1030:1042   */\n  revert\n    /* \"#utility.yul\":981:1044   */\ntag_32:\n    /* \"#utility.yul\":928:1050   */\n  pop\n  jump\t// out\n    /* \"#utility.yul\":1056:1199   */\ntag_16:\n    /* \"#utility.yul\":1113:1118   */\n  0x00\n    /* \"#utility.yul\":1144:1150   */\n  dup2\n    /* \"#utility.yul\":1138:1151   */\n  mload\n    /* \"#utility.yul\":1129:1151   */\n  swap1\n  pop\n    /* \"#utility.yul\":1160:1193   */\n  tag_34\n    /* \"#utility.yul\":1187:1192   */\n  dup2\n    /* \"#utility.yul\":1160:1193   */\n  tag_15\n  jump\t// in\ntag_34:\n    /* \"#utility.yul\":1056:1199   */\n  swap3\n  swap2\n  pop\n  pop\n  jump\t// out\n    /* \"#utility.yul\":1205:1712   */\ntag_3:\n    /* \"#utility.yul\":1284:1290   */\n  0x00\n    /* \"#utility.yul\":1292:1298   */\n  0x00\n    /* \"#utility.yul\":1341:1343   */\n  0x40\n    /* \"#utility.yul\":1329:1338   */\n  dup4\n    /* \"#utility.yul\":1320:1327   */\n  dup6\n    /* \"#utility.yul\":1316:1339   */\n  sub\n    /* \"#utility.yul\":1312:1344   */\n  slt\n    /* \"#utility.yul\":1309:1428   */\n  iszero\n  tag_36\n  jumpi\n    /* \"#utility.yul\":1347:1426   */\n  tag_37\n  tag_8\n  jump\t// in\ntag_37:\n    /* \"#utility.yul\":1309:1428   */\ntag_36:\n    /* \"#utility.yul\":1467:1468   */\n  0x00\n    /* \"#utility.yul\":1492:1556   */\n  tag_38\n    /* \"#utility.yul\":1548:1555   */\n  dup6\n    /* \"#utility.yul\":1539:1545   */\n  dup3\n    /* \"#utility.yul\":1528:1537   */\n  dup7\n    /* \"#utility.yul\":1524:1546   */\n  add\n    /* \"#utility.yul\":1492:1556   */\n  tag_12\n  jump\t// in\ntag_38:\n    /* \"#utility.yul\":1482:1556   */\n  swap3\n  pop\n    /* \"#utility.yul\":1438:1566   */\n  pop\n    /* \"#utility.yul\":1605:1607   */\n  0x20\n    /* \"#utility.yul\":1631:1695   */\n  tag_39\n    /* \"#utility.yul\":1687:1694   */\n  dup6\n    /* \"#utility.yul\":1678:1684   */\n  dup3\n    /* \"#utility.yul\":1667:1676   */\n  dup7\n    /* \"#utility.yul\":1663:1685   */\n  add\n    /* \"#utility.yul\":1631:1695   */\n  tag_16\n  jump\t// in\ntag_39:\n    /* \"#utility.yul\":1621:1695   */\n  swap2\n  pop\n    /* \"#utility.yul\":1576:1705   */\n  pop\n    /* \"#utility.yul\":1205:1712   */\n  swap3\n  pop\n  swap3\n  swap1\n  pop\n  jump\t// out\n    /* \"Campaign.sol\":434:2596  contract Campaign {... */\ntag_6:\n  dataSize(sub_0)\n  dup1\n  dataOffset(sub_0)\n  0x00\n  codecopy\n  0x00\n  return\nstop\n\nsub_0: assembly {\n        /* \"Campaign.sol\":434:2596  contract Campaign {... */\n      mstore(0x40, 0x80)\n      jumpi(tag_1, lt(calldatasize, 0x04))\n      shr(0xe0, calldataload(0x00))\n      dup1\n      0x8a9cfd55\n      gt\n      tag_12\n      jumpi\n      dup1\n      0x8a9cfd55\n      eq\n      tag_7\n      jumpi\n      dup1\n      0x937e09b1\n      eq\n      tag_8\n      jumpi\n      dup1\n      0xab2850da\n      eq\n      tag_9\n      jumpi\n      dup1\n      0xd7bb99ba\n      eq\n      tag_10\n      jumpi\n      dup1\n      0xd7d1bbdb\n      eq\n      tag_11\n      jumpi\n      jump(tag_1)\n    tag_12:\n      dup1\n      0x03441006\n      eq\n      tag_2\n      jumpi\n      dup1\n      0x0a144391\n      eq\n      tag_3\n      jumpi\n      dup1\n      0x481c6a75\n      eq\n      tag_4\n      jumpi\n      dup1\n      0x81d12c58\n      eq\n      tag_5\n      jumpi\n      dup1\n      0x82fde093\n      eq\n      tag_6\n      jumpi\n    tag_1:\n      revert(0x00, 0x00)\n        /* \"Campaign.sol\":2238:2594  function finalizeRequest(uint index) public restricted {... */\n    tag_2:\n      callvalue\n      dup1\n      iszero\n      tag_13\n      jumpi\n      revert(0x00, 0x00)\n    tag_13:\n      pop\n      tag_14\n      0x04\n      dup1\n      calldatasize\n      sub\n      dup2\n      add\n      swap1\n      tag_15\n      swap2\n      swap1\n      tag_16\n      jump\t// in\n    tag_15:\n      tag_17\n      jump\t// in\n    tag_14:\n      stop\n        /* \"Campaign.sol\":716:757  mapping(address => bool) public approvers */\n    tag_3:\n      callvalue\n      dup1\n      iszero\n      tag_18\n      jumpi\n      revert(0x00, 0x00)\n    tag_18:\n      pop\n      tag_19\n      0x04\n      dup1\n      calldatasize\n      sub\n      dup2\n      add\n      swap1\n      tag_20\n      swap2\n      swap1\n      tag_21\n      jump\t// in\n    tag_20:\n      tag_22\n      jump\t// in\n    tag_19:\n      mload(0x40)\n      tag_23\n      swap2\n      swap1\n      tag_24\n      jump\t// in\n    tag_23:\n      mload(0x40)\n      dup1\n      swap2\n      sub\n      swap1\n      return\n        /* \"Campaign.sol\":651:673  address public manager */\n    tag_4:\n      callvalue\n      dup1\n      iszero\n      tag_25\n      jumpi\n      revert(0x00, 0x00)\n    tag_25:\n      pop\n      tag_26\n      tag_27\n      jump\t// in\n    tag_26:\n      mload(0x40)\n      tag_28\n      swap2\n      swap1\n      tag_29\n      jump\t// in\n    tag_28:\n      mload(0x40)\n      dup1\n      swap2\n      sub\n      swap1\n      return\n        /* \"Campaign.sol\":620:645  Request[] public requests */\n    tag_5:\n      callvalue\n      dup1\n      iszero\n      tag_30\n      jumpi\n      revert(0x00, 0x00)\n    tag_30:\n      pop\n      tag_31\n      0x04\n      dup1\n      calldatasize\n      sub\n      dup2\n      add\n      swap1\n      tag_32\n      swap2\n      swap1\n      tag_16\n      jump\t// in\n    tag_32:\n      tag_33\n      jump\t// in\n    tag_31:\n      mload(0x40)\n      tag_34\n      swap6\n      swap5\n      swap4\n      swap3\n      swap2\n      swap1\n      tag_35\n      jump\t// in\n    tag_34:\n      mload(0x40)\n      dup1\n      swap2\n      sub\n      swap1\n      return\n        /* \"Campaign.sol\":763:789  uint public approversCount */\n    tag_6:\n      callvalue\n      dup1\n      iszero\n      tag_36\n      jumpi\n      revert(0x00, 0x00)\n    tag_36:\n      pop\n      tag_37\n      tag_38\n      jump\t// in\n    tag_37:\n      mload(0x40)\n      tag_39\n      swap2\n      swap1\n      tag_40\n      jump\t// in\n    tag_39:\n      mload(0x40)\n      dup1\n      swap2\n      sub\n      swap1\n      return\n        /* \"Campaign.sol\":1385:1917  function createRequest(string memory description, uint value, address payable recipient) public restricted {... */\n    tag_7:\n      callvalue\n      dup1\n      iszero\n      tag_41\n      jumpi\n      revert(0x00, 0x00)\n    tag_41:\n      pop\n      tag_42\n      0x04\n      dup1\n      calldatasize\n      sub\n      dup2\n      add\n      swap1\n      tag_43\n      swap2\n      swap1\n      tag_44\n      jump\t// in\n    tag_43:\n      tag_45\n      jump\t// in\n    tag_42:\n      stop\n        /* \"Campaign.sol\":679:710  uint public minimumContribution */\n    tag_8:\n      callvalue\n      dup1\n      iszero\n      tag_46\n      jumpi\n      revert(0x00, 0x00)\n    tag_46:\n      pop\n      tag_47\n      tag_48\n      jump\t// in\n    tag_47:\n      mload(0x40)\n      tag_49\n      swap2\n      swap1\n      tag_40\n      jump\t// in\n    tag_49:\n      mload(0x40)\n      dup1\n      swap2\n      sub\n      swap1\n      return\n        /* \"Campaign.sol\":795:853  mapping(uint => mapping(address => bool)) public approvals */\n    tag_9:\n      callvalue\n      dup1\n      iszero\n      tag_50\n      jumpi\n      revert(0x00, 0x00)\n    tag_50:\n      pop\n      tag_51\n      0x04\n      dup1\n      calldatasize\n      sub\n      dup2\n      add\n      swap1\n      tag_52\n      swap2\n      swap1\n      tag_53\n      jump\t// in\n    tag_52:\n      tag_54\n      jump\t// in\n    tag_51:\n      mload(0x40)\n      tag_55\n      swap2\n      swap1\n      tag_24\n      jump\t// in\n    tag_55:\n      mload(0x40)\n      dup1\n      swap2\n      sub\n      swap1\n      return\n        /* \"Campaign.sol\":1111:1379  function contribute() public payable {... */\n    tag_10:\n      tag_56\n      tag_57\n      jump\t// in\n    tag_56:\n      stop\n        /* \"Campaign.sol\":1923:2232  function approveRequest(uint index) public {... */\n    tag_11:\n      callvalue\n      dup1\n      iszero\n      tag_58\n      jumpi\n      revert(0x00, 0x00)\n    tag_58:\n      pop\n      tag_59\n      0x04\n      dup1\n      calldatasize\n      sub\n      dup2\n      add\n      swap1\n      tag_60\n      swap2\n      swap1\n      tag_16\n      jump\t// in\n    tag_60:\n      tag_61\n      jump\t// in\n    tag_59:\n      stop\n        /* \"Campaign.sol\":2238:2594  function finalizeRequest(uint index) public restricted {... */\n    tag_17:\n        /* \"Campaign.sol\":914:921  manager */\n      0x01\n      0x00\n      swap1\n      sload\n      swap1\n      0x0100\n      exp\n      swap1\n      div\n      0xffffffffffffffffffffffffffffffffffffffff\n      and\n        /* \"Campaign.sol\":900:921  msg.sender == manager */\n      0xffffffffffffffffffffffffffffffffffffffff\n      and\n        /* \"Campaign.sol\":900:910  msg.sender */\n      caller\n        /* \"Campaign.sol\":900:921  msg.sender == manager */\n      0xffffffffffffffffffffffffffffffffffffffff\n      and\n      eq\n        /* \"Campaign.sol\":892:965  require(msg.sender == manager, \"Only the manager can call this function\") */\n      tag_63\n      jumpi\n      mload(0x40)\n      0x08c379a000000000000000000000000000000000000000000000000000000000\n      dup2\n      mstore\n      0x04\n      add\n      tag_64\n      swap1\n      tag_65\n      jump\t// in\n    tag_64:\n      mload(0x40)\n      dup1\n      swap2\n      sub\n      swap1\n      revert\n    tag_63:\n        /* \"Campaign.sol\":2303:2326  Request storage request */\n      0x00\n        /* \"Campaign.sol\":2329:2337  requests */\n      0x00\n        /* \"Campaign.sol\":2338:2343  index */\n      dup3\n        /* \"Campaign.sol\":2329:2344  requests[index] */\n      dup2\n      sload\n      dup2\n      lt\n      tag_67\n      jumpi\n      tag_68\n      tag_69\n      jump\t// in\n    tag_68:\n    tag_67:\n      swap1\n      0x00\n      mstore\n      keccak256(0x00, 0x20)\n      swap1\n      0x04\n      mul\n      add\n        /* \"Campaign.sol\":2303:2344  Request storage request = requests[index] */\n      swap1\n      pop\n        /* \"Campaign.sol\":2404:2405  2 */\n      0x02\n        /* \"Campaign.sol\":2387:2401  approversCount */\n      sload(0x04)\n        /* \"Campaign.sol\":2387:2405  approversCount / 2 */\n      tag_71\n      swap2\n      swap1\n      tag_72\n      jump\t// in\n    tag_71:\n        /* \"Campaign.sol\":2362:2369  request */\n      dup2\n        /* \"Campaign.sol\":2362:2383  request.approvalCount */\n      0x03\n      add\n      sload\n        /* \"Campaign.sol\":2362:2406  request.approvalCount > (approversCount / 2) */\n      gt\n        /* \"Campaign.sol\":2354:2437  require(request.approvalCount > (approversCount / 2), \"Majority approval required\") */\n      tag_73\n      jumpi\n      mload(0x40)\n      0x08c379a000000000000000000000000000000000000000000000000000000000\n      dup2\n      mstore\n      0x04\n      add\n      tag_74\n      swap1\n      tag_75\n      jump\t// in\n    tag_74:\n      mload(0x40)\n      dup1\n      swap2\n      sub\n      swap1\n      revert\n    tag_73:\n        /* \"Campaign.sol\":2456:2463  request */\n      dup1\n        /* \"Campaign.sol\":2456:2472  request.complete */\n      0x02\n      add\n      0x14\n      swap1\n      sload\n      swap1\n      0x0100\n      exp\n      swap1\n      div\n      0xff\n      and\n        /* \"Campaign.sol\":2455:2472  !request.complete */\n      iszero\n        /* \"Campaign.sol\":2447:2502  require(!request.complete, \"Request already completed\") */\n      tag_76\n      jumpi\n      mload(0x40)\n      0x08c379a000000000000000000000000000000000000000000000000000000000\n      dup2\n      mstore\n      0x04\n      add\n      tag_77\n      swap1\n      tag_78\n      jump\t// in\n    tag_77:\n      mload(0x40)\n      dup1\n      swap2\n      sub\n      swap1\n      revert\n    tag_76:\n        /* \"Campaign.sol\":2513:2520  request */\n      dup1\n        /* \"Campaign.sol\":2513:2530  request.recipient */\n      0x02\n      add\n      0x00\n      swap1\n      sload\n      swap1\n      0x0100\n      exp\n      swap1\n      div\n      0xffffffffffffffffffffffffffffffffffffffff\n      and\n        /* \"Campaign.sol\":2513:2539  request.recipient.transfer */\n      0xffffffffffffffffffffffffffffffffffffffff\n      and\n        /* \"Campaign.sol\":2513:2554  request.recipient.transfer(request.value) */\n      0x08fc\n        /* \"Campaign.sol\":2540:2547  request */\n      dup3\n        /* \"Campaign.sol\":2540:2553  request.value */\n      0x01\n      add\n      sload\n        /* \"Campaign.sol\":2513:2554  request.recipient.transfer(request.value) */\n      swap1\n      dup2\n      iszero\n      mul\n      swap1\n      mload(0x40)\n      0x00\n      mload(0x40)\n      dup1\n      dup4\n      sub\n      dup2\n      dup6\n      dup9\n      dup9\n      call\n      swap4\n      pop\n      pop\n      pop\n      pop\n      iszero\n      dup1\n      iszero\n      tag_80\n      jumpi\n      returndatacopy(0x00, 0x00, returndatasize)\n      revert(0x00, returndatasize)\n    tag_80:\n      pop\n        /* \"Campaign.sol\":2583:2587  true */\n      0x01\n        /* \"Campaign.sol\":2564:2571  request */\n      dup2\n        /* \"Campaign.sol\":2564:2580  request.complete */\n      0x02\n      add\n      0x14\n        /* \"Campaign.sol\":2564:2587  request.complete = true */\n      0x0100\n      exp\n      dup2\n      sload\n      dup2\n      0xff\n      mul\n      not\n      and\n      swap1\n      dup4\n      iszero\n      iszero\n      mul\n      or\n      swap1\n      sstore\n      pop\n        /* \"Campaign.sol\":2293:2594  {... */\n      pop\n        /* \"Campaign.sol\":2238:2594  function finalizeRequest(uint index) public restricted {... */\n      pop\n      jump\t// out\n        /* \"Campaign.sol\":716:757  mapping(address => bool) public approvers */\n    tag_22:\n      mstore(0x20, 0x03)\n      dup1\n      0x00\n      mstore\n      keccak256(0x00, 0x40)\n      0x00\n      swap2\n      pop\n      sload\n      swap1\n      0x0100\n      exp\n      swap1\n      div\n      0xff\n      and\n      dup2\n      jump\t// out\n        /* \"Campaign.sol\":651:673  address public manager */\n    tag_27:\n      0x01\n      0x00\n      swap1\n      sload\n      swap1\n      0x0100\n      exp\n      swap1\n      div\n      0xffffffffffffffffffffffffffffffffffffffff\n      and\n      dup2\n      jump\t// out\n        /* \"Campaign.sol\":620:645  Request[] public requests */\n    tag_33:\n      0x00\n      dup2\n      dup2\n      sload\n      dup2\n      lt\n      tag_81\n      jumpi\n      0x00\n      dup1\n      revert\n    tag_81:\n      swap1\n      0x00\n      mstore\n      keccak256(0x00, 0x20)\n      swap1\n      0x04\n      mul\n      add\n      0x00\n      swap2\n      pop\n      swap1\n      pop\n      dup1\n      0x00\n      add\n      dup1\n      sload\n      tag_83\n      swap1\n      tag_84\n      jump\t// in\n    tag_83:\n      dup1\n      0x1f\n      add\n      0x20\n      dup1\n      swap2\n      div\n      mul\n      0x20\n      add\n      mload(0x40)\n      swap1\n      dup2\n      add\n      0x40\n      mstore\n      dup1\n      swap3\n      swap2\n      swap1\n      dup2\n      dup2\n      mstore\n      0x20\n      add\n      dup3\n      dup1\n      sload\n      tag_85\n      swap1\n      tag_84\n      jump\t// in\n    tag_85:\n      dup1\n      iszero\n      tag_86\n      jumpi\n      dup1\n      0x1f\n      lt\n      tag_87\n      jumpi\n      0x0100\n      dup1\n      dup4\n      sload\n      div\n      mul\n      dup4\n      mstore\n      swap2\n      0x20\n      add\n      swap2\n      jump(tag_86)\n    tag_87:\n      dup3\n      add\n      swap2\n      swap1\n      0x00\n      mstore\n      keccak256(0x00, 0x20)\n      swap1\n    tag_88:\n      dup2\n      sload\n      dup2\n      mstore\n      swap1\n      0x01\n      add\n      swap1\n      0x20\n      add\n      dup1\n      dup4\n      gt\n      tag_88\n      jumpi\n      dup3\n      swap1\n      sub\n      0x1f\n      and\n      dup3\n      add\n      swap2\n    tag_86:\n      pop\n      pop\n      pop\n      pop\n      pop\n      swap1\n      dup1\n      0x01\n      add\n      sload\n      swap1\n      dup1\n      0x02\n      add\n      0x00\n      swap1\n      sload\n      swap1\n      0x0100\n      exp\n      swap1\n      div\n      0xffffffffffffffffffffffffffffffffffffffff\n      and\n      swap1\n      dup1\n      0x02\n      add\n      0x14\n      swap1\n      sload\n      swap1\n      0x0100\n      exp\n      swap1\n      div\n      0xff\n      and\n      swap1\n      dup1\n      0x03\n      add\n      sload\n      swap1\n      pop\n      dup6\n      jump\t// out\n        /* \"Campaign.sol\":763:789  uint public approversCount */\n    tag_38:\n      sload(0x04)\n      dup2\n      jump\t// out\n        /* \"Campaign.sol\":1385:1917  function createRequest(string memory description, uint value, address payable recipient) public restricted {... */\n    tag_45:\n        /* \"Campaign.sol\":914:921  manager */\n      0x01\n      0x00\n      swap1\n      sload\n      swap1\n      0x0100\n      exp\n      swap1\n      div\n      0xffffffffffffffffffffffffffffffffffffffff\n      and\n        /* \"Campaign.sol\":900:921  msg.sender == manager */\n      0xffffffffffffffffffffffffffffffffffffffff\n      and\n        /* \"Campaign.sol\":900:910  msg.sender */\n      caller\n        /* \"Campaign.sol\":900:921  msg.sender == manager */\n      0xffffffffffffffffffffffffffffffffffffffff\n      and\n      eq\n        /* \"Campaign.sol\":892:965  require(msg.sender == manager, \"Only the manager can call this function\") */\n      tag_90\n      jumpi\n      mload(0x40)\n      0x08c379a000000000000000000000000000000000000000000000000000000000\n      dup2\n      mstore\n      0x04\n      add\n      tag_91\n      swap1\n      tag_65\n      jump\t// in\n    tag_91:\n      mload(0x40)\n      dup1\n      swap2\n      sub\n      swap1\n      revert\n    tag_90:\n        /* \"Campaign.sol\":1519:1540  address(this).balance */\n      selfbalance\n        /* \"Campaign.sol\":1510:1515  value */\n      dup3\n        /* \"Campaign.sol\":1510:1540  value <= address(this).balance */\n      gt\n      iszero\n        /* \"Campaign.sol\":1502:1581  require(value <= address(this).balance, \"Insufficient balance in the campaign\") */\n      tag_93\n      jumpi\n      mload(0x40)\n      0x08c379a000000000000000000000000000000000000000000000000000000000\n      dup2\n      mstore\n      0x04\n      add\n      tag_94\n      swap1\n      tag_95\n      jump\t// in\n    tag_94:\n      mload(0x40)\n      dup1\n      swap2\n      sub\n      swap1\n      revert\n    tag_93:\n        /* \"Campaign.sol\":1620:1621  0 */\n      0x00\n        /* \"Campaign.sol\":1599:1622  recipient != address(0) */\n      0xffffffffffffffffffffffffffffffffffffffff\n      and\n        /* \"Campaign.sol\":1599:1608  recipient */\n      dup2\n        /* \"Campaign.sol\":1599:1622  recipient != address(0) */\n      0xffffffffffffffffffffffffffffffffffffffff\n      and\n      sub\n        /* \"Campaign.sol\":1591:1659  require(recipient != address(0), \"Recipient address cannot be zero\") */\n      tag_96\n      jumpi\n      mload(0x40)\n      0x08c379a000000000000000000000000000000000000000000000000000000000\n      dup2\n      mstore\n      0x04\n      add\n      tag_97\n      swap1\n      tag_98\n      jump\t// in\n    tag_97:\n      mload(0x40)\n      dup1\n      swap2\n      sub\n      swap1\n      revert\n    tag_96:\n        /* \"Campaign.sol\":1670:1695  Request memory newRequest */\n      0x00\n        /* \"Campaign.sol\":1698:1874  Request({... */\n      mload(0x40)\n      dup1\n      0xa0\n      add\n      0x40\n      mstore\n      dup1\n        /* \"Campaign.sol\":1733:1744  description */\n      dup6\n        /* \"Campaign.sol\":1698:1874  Request({... */\n      dup2\n      mstore\n      0x20\n      add\n        /* \"Campaign.sol\":1765:1770  value */\n      dup5\n        /* \"Campaign.sol\":1698:1874  Request({... */\n      dup2\n      mstore\n      0x20\n      add\n        /* \"Campaign.sol\":1795:1804  recipient */\n      dup4\n        /* \"Campaign.sol\":1698:1874  Request({... */\n      0xffffffffffffffffffffffffffffffffffffffff\n      and\n      dup2\n      mstore\n      0x20\n      add\n        /* \"Campaign.sol\":1828:1833  false */\n      0x00\n        /* \"Campaign.sol\":1698:1874  Request({... */\n      iszero\n      iszero\n      dup2\n      mstore\n      0x20\n      add\n        /* \"Campaign.sol\":1862:1863  0 */\n      0x00\n        /* \"Campaign.sol\":1698:1874  Request({... */\n      dup2\n      mstore\n      pop\n        /* \"Campaign.sol\":1670:1874  Request memory newRequest = Request({... */\n      swap1\n      pop\n        /* \"Campaign.sol\":1885:1893  requests */\n      0x00\n        /* \"Campaign.sol\":1899:1909  newRequest */\n      dup2\n        /* \"Campaign.sol\":1885:1910  requests.push(newRequest) */\n      swap1\n      dup1\n      0x01\n      dup2\n      sload\n      add\n      dup1\n      dup3\n      sstore\n      dup1\n      swap2\n      pop\n      pop\n      0x01\n      swap1\n      sub\n      swap1\n      0x00\n      mstore\n      keccak256(0x00, 0x20)\n      swap1\n      0x04\n      mul\n      add\n      0x00\n      swap1\n      swap2\n      swap1\n      swap2\n      swap1\n      swap2\n      pop\n      0x00\n      dup3\n      add\n      mload\n      dup2\n      0x00\n      add\n      swap1\n      dup2\n      tag_100\n      swap2\n      swap1\n      tag_101\n      jump\t// in\n    tag_100:\n      pop\n      0x20\n      dup3\n      add\n      mload\n      dup2\n      0x01\n      add\n      sstore\n      0x40\n      dup3\n      add\n      mload\n      dup2\n      0x02\n      add\n      exp(0x0100, 0x00)\n      dup2\n      sload\n      dup2\n      0xffffffffffffffffffffffffffffffffffffffff\n      mul\n      not\n      and\n      swap1\n      dup4\n      0xffffffffffffffffffffffffffffffffffffffff\n      and\n      mul\n      or\n      swap1\n      sstore\n      pop\n      0x60\n      dup3\n      add\n      mload\n      dup2\n      0x02\n      add\n      exp(0x0100, 0x14)\n      dup2\n      sload\n      dup2\n      0xff\n      mul\n      not\n      and\n      swap1\n      dup4\n      iszero\n      iszero\n      mul\n      or\n      swap1\n      sstore\n      pop\n      0x80\n      dup3\n      add\n      mload\n      dup2\n      0x03\n      add\n      sstore\n      pop\n      pop\n        /* \"Campaign.sol\":1492:1917  {... */\n      pop\n        /* \"Campaign.sol\":1385:1917  function createRequest(string memory description, uint value, address payable recipient) public restricted {... */\n      pop\n      pop\n      pop\n      jump\t// out\n        /* \"Campaign.sol\":679:710  uint public minimumContribution */\n    tag_48:\n      sload(0x02)\n      dup2\n      jump\t// out\n        /* \"Campaign.sol\":795:853  mapping(uint => mapping(address => bool)) public approvals */\n    tag_54:\n      mstore(0x20, 0x05)\n      dup2\n      0x00\n      mstore\n      mstore(0x20, keccak256(0x00, 0x40))\n      dup1\n      0x00\n      mstore\n      keccak256(0x00, 0x40)\n      0x00\n      swap2\n      pop\n      swap2\n      pop\n      swap1\n      sload\n      swap1\n      0x0100\n      exp\n      swap1\n      div\n      0xff\n      and\n      dup2\n      jump\t// out\n        /* \"Campaign.sol\":1111:1379  function contribute() public payable {... */\n    tag_57:\n        /* \"Campaign.sol\":1179:1198  minimumContribution */\n      sload(0x02)\n        /* \"Campaign.sol\":1166:1175  msg.value */\n      callvalue\n        /* \"Campaign.sol\":1166:1198  msg.value >= minimumContribution */\n      lt\n      iszero\n        /* \"Campaign.sol\":1158:1251  require(msg.value >= minimumContribution, \"Contribution must be at least the minimum amount\") */\n      tag_103\n      jumpi\n      mload(0x40)\n      0x08c379a000000000000000000000000000000000000000000000000000000000\n      dup2\n      mstore\n      0x04\n      add\n      tag_104\n      swap1\n      tag_105\n      jump\t// in\n    tag_104:\n      mload(0x40)\n      dup1\n      swap2\n      sub\n      swap1\n      revert\n    tag_103:\n        /* \"Campaign.sol\":1267:1276  approvers */\n      0x03\n        /* \"Campaign.sol\":1267:1288  approvers[msg.sender] */\n      0x00\n        /* \"Campaign.sol\":1277:1287  msg.sender */\n      caller\n        /* \"Campaign.sol\":1267:1288  approvers[msg.sender] */\n      0xffffffffffffffffffffffffffffffffffffffff\n      and\n      0xffffffffffffffffffffffffffffffffffffffff\n      and\n      dup2\n      mstore\n      0x20\n      add\n      swap1\n      dup2\n      mstore\n      0x20\n      add\n      0x00\n      keccak256\n      0x00\n      swap1\n      sload\n      swap1\n      0x0100\n      exp\n      swap1\n      div\n      0xff\n      and\n        /* \"Campaign.sol\":1262:1373  if (!approvers[msg.sender]) {... */\n      tag_106\n      jumpi\n        /* \"Campaign.sol\":1328:1332  true */\n      0x01\n        /* \"Campaign.sol\":1304:1313  approvers */\n      0x03\n        /* \"Campaign.sol\":1304:1325  approvers[msg.sender] */\n      0x00\n        /* \"Campaign.sol\":1314:1324  msg.sender */\n      caller\n        /* \"Campaign.sol\":1304:1325  approvers[msg.sender] */\n      0xffffffffffffffffffffffffffffffffffffffff\n      and\n      0xffffffffffffffffffffffffffffffffffffffff\n      and\n      dup2\n      mstore\n      0x20\n      add\n      swap1\n      dup2\n      mstore\n      0x20\n      add\n      0x00\n      keccak256\n      0x00\n        /* \"Campaign.sol\":1304:1332  approvers[msg.sender] = true */\n      0x0100\n      exp\n      dup2\n      sload\n      dup2\n      0xff\n      mul\n      not\n      and\n      swap1\n      dup4\n      iszero\n      iszero\n      mul\n      or\n      swap1\n      sstore\n      pop\n        /* \"Campaign.sol\":1346:1360  approversCount */\n      0x04\n      0x00\n        /* \"Campaign.sol\":1346:1362  approversCount++ */\n      dup2\n      sload\n      dup1\n      swap3\n      swap2\n      swap1\n      tag_107\n      swap1\n      tag_108\n      jump\t// in\n    tag_107:\n      swap2\n      swap1\n      pop\n      sstore\n      pop\n        /* \"Campaign.sol\":1262:1373  if (!approvers[msg.sender]) {... */\n    tag_106:\n        /* \"Campaign.sol\":1111:1379  function contribute() public payable {... */\n      jump\t// out\n        /* \"Campaign.sol\":1923:2232  function approveRequest(uint index) public {... */\n    tag_61:\n        /* \"Campaign.sol\":1984:1993  approvers */\n      0x03\n        /* \"Campaign.sol\":1984:2005  approvers[msg.sender] */\n      0x00\n        /* \"Campaign.sol\":1994:2004  msg.sender */\n      caller\n        /* \"Campaign.sol\":1984:2005  approvers[msg.sender] */\n      0xffffffffffffffffffffffffffffffffffffffff\n      and\n      0xffffffffffffffffffffffffffffffffffffffff\n      and\n      dup2\n      mstore\n      0x20\n      add\n      swap1\n      dup2\n      mstore\n      0x20\n      add\n      0x00\n      keccak256\n      0x00\n      swap1\n      sload\n      swap1\n      0x0100\n      exp\n      swap1\n      div\n      0xff\n      and\n        /* \"Campaign.sol\":1976:2048  require(approvers[msg.sender], \"Only contributors can approve requests\") */\n      tag_110\n      jumpi\n      mload(0x40)\n      0x08c379a000000000000000000000000000000000000000000000000000000000\n      dup2\n      mstore\n      0x04\n      add\n      tag_111\n      swap1\n      tag_112\n      jump\t// in\n    tag_111:\n      mload(0x40)\n      dup1\n      swap2\n      sub\n      swap1\n      revert\n    tag_110:\n        /* \"Campaign.sol\":2067:2076  approvals */\n      0x05\n        /* \"Campaign.sol\":2067:2083  approvals[index] */\n      0x00\n        /* \"Campaign.sol\":2077:2082  index */\n      dup3\n        /* \"Campaign.sol\":2067:2083  approvals[index] */\n      dup2\n      mstore\n      0x20\n      add\n      swap1\n      dup2\n      mstore\n      0x20\n      add\n      0x00\n      keccak256\n        /* \"Campaign.sol\":2067:2095  approvals[index][msg.sender] */\n      0x00\n        /* \"Campaign.sol\":2084:2094  msg.sender */\n      caller\n        /* \"Campaign.sol\":2067:2095  approvals[index][msg.sender] */\n      0xffffffffffffffffffffffffffffffffffffffff\n      and\n      0xffffffffffffffffffffffffffffffffffffffff\n      and\n      dup2\n      mstore\n      0x20\n      add\n      swap1\n      dup2\n      mstore\n      0x20\n      add\n      0x00\n      keccak256\n      0x00\n      swap1\n      sload\n      swap1\n      0x0100\n      exp\n      swap1\n      div\n      0xff\n      and\n        /* \"Campaign.sol\":2066:2095  !approvals[index][msg.sender] */\n      iszero\n        /* \"Campaign.sol\":2058:2138  require(!approvals[index][msg.sender], \"You have already approved this request\") */\n      tag_113\n      jumpi\n      mload(0x40)\n      0x08c379a000000000000000000000000000000000000000000000000000000000\n      dup2\n      mstore\n      0x04\n      add\n      tag_114\n      swap1\n      tag_115\n      jump\t// in\n    tag_114:\n      mload(0x40)\n      dup1\n      swap2\n      sub\n      swap1\n      revert\n    tag_113:\n        /* \"Campaign.sol\":2180:2184  true */\n      0x01\n        /* \"Campaign.sol\":2149:2158  approvals */\n      0x05\n        /* \"Campaign.sol\":2149:2165  approvals[index] */\n      0x00\n        /* \"Campaign.sol\":2159:2164  index */\n      dup4\n        /* \"Campaign.sol\":2149:2165  approvals[index] */\n      dup2\n      mstore\n      0x20\n      add\n      swap1\n      dup2\n      mstore\n      0x20\n      add\n      0x00\n      keccak256\n        /* \"Campaign.sol\":2149:2177  approvals[index][msg.sender] */\n      0x00\n        /* \"Campaign.sol\":2166:2176  msg.sender */\n      caller\n        /* \"Campaign.sol\":2149:2177  approvals[index][msg.sender] */\n      0xffffffffffffffffffffffffffffffffffffffff\n      and\n      0xffffffffffffffffffffffffffffffffffffffff\n      and\n      dup2\n      mstore\n      0x20\n      add\n      swap1\n      dup2\n      mstore\n      0x20\n      add\n      0x00\n      keccak256\n      0x00\n        /* \"Campaign.sol\":2149:2184  approvals[index][msg.sender] = true */\n      0x0100\n      exp\n      dup2\n      sload\n      dup2\n      0xff\n      mul\n      not\n      and\n      swap1\n      dup4\n      iszero\n      iszero\n      mul\n      or\n      swap1\n      sstore\n      pop\n        /* \"Campaign.sol\":2194:2202  requests */\n      0x00\n        /* \"Campaign.sol\":2203:2208  index */\n      dup2\n        /* \"Campaign.sol\":2194:2209  requests[index] */\n      dup2\n      sload\n      dup2\n      lt\n      tag_116\n      jumpi\n      tag_117\n      tag_69\n      jump\t// in\n    tag_117:\n    tag_116:\n      swap1\n      0x00\n      mstore\n      keccak256(0x00, 0x20)\n      swap1\n      0x04\n      mul\n      add\n        /* \"Campaign.sol\":2194:2223  requests[index].approvalCount */\n      0x03\n      add\n      0x00\n        /* \"Campaign.sol\":2194:2225  requests[index].approvalCount++ */\n      dup2\n      sload\n      dup1\n      swap3\n      swap2\n      swap1\n      tag_119\n      swap1\n      tag_108\n      jump\t// in\n    tag_119:\n      swap2\n      swap1\n      pop\n      sstore\n      pop\n        /* \"Campaign.sol\":1923:2232  function approveRequest(uint index) public {... */\n      pop\n      jump\t// out\n        /* \"#utility.yul\":7:82   */\n    tag_120:\n        /* \"#utility.yul\":40:46   */\n      0x00\n        /* \"#utility.yul\":73:75   */\n      0x40\n        /* \"#utility.yul\":67:76   */\n      mload\n        /* \"#utility.yul\":57:76   */\n      swap1\n      pop\n        /* \"#utility.yul\":7:82   */\n      swap1\n      jump\t// out\n        /* \"#utility.yul\":88:205   */\n    tag_121:\n        /* \"#utility.yul\":197:198   */\n      0x00\n        /* \"#utility.yul\":194:195   */\n      0x00\n        /* \"#utility.yul\":187:199   */\n      revert\n        /* \"#utility.yul\":211:328   */\n    tag_122:\n        /* \"#utility.yul\":320:321   */\n      0x00\n        /* \"#utility.yul\":317:318   */\n      0x00\n        /* \"#utility.yul\":310:322   */\n      revert\n        /* \"#utility.yul\":334:411   */\n    tag_123:\n        /* \"#utility.yul\":371:378   */\n      0x00\n        /* \"#utility.yul\":400:405   */\n      dup2\n        /* \"#utility.yul\":389:405   */\n      swap1\n      pop\n        /* \"#utility.yul\":334:411   */\n      swap2\n      swap1\n      pop\n      jump\t// out\n        /* \"#utility.yul\":417:539   */\n    tag_124:\n        /* \"#utility.yul\":490:514   */\n      tag_192\n        /* \"#utility.yul\":508:513   */\n      dup2\n        /* \"#utility.yul\":490:514   */\n      tag_123\n      jump\t// in\n    tag_192:\n        /* \"#utility.yul\":483:488   */\n      dup2\n        /* \"#utility.yul\":480:515   */\n      eq\n        /* \"#utility.yul\":470:533   */\n      tag_193\n      jumpi\n        /* \"#utility.yul\":529:530   */\n      0x00\n        /* \"#utility.yul\":526:527   */\n      0x00\n        /* \"#utility.yul\":519:531   */\n      revert\n        /* \"#utility.yul\":470:533   */\n    tag_193:\n        /* \"#utility.yul\":417:539   */\n      pop\n      jump\t// out\n        /* \"#utility.yul\":545:684   */\n    tag_125:\n        /* \"#utility.yul\":591:596   */\n      0x00\n        /* \"#utility.yul\":629:635   */\n      dup2\n        /* \"#utility.yul\":616:636   */\n      calldataload\n        /* \"#utility.yul\":607:636   */\n      swap1\n      pop\n        /* \"#utility.yul\":645:678   */\n      tag_195\n        /* \"#utility.yul\":672:677   */\n      dup2\n        /* \"#utility.yul\":645:678   */\n      tag_124\n      jump\t// in\n    tag_195:\n        /* \"#utility.yul\":545:684   */\n      swap3\n      swap2\n      pop\n      pop\n      jump\t// out\n        /* \"#utility.yul\":690:1019   */\n    tag_16:\n        /* \"#utility.yul\":749:755   */\n      0x00\n        /* \"#utility.yul\":798:800   */\n      0x20\n        /* \"#utility.yul\":786:795   */\n      dup3\n        /* \"#utility.yul\":777:784   */\n      dup5\n        /* \"#utility.yul\":773:796   */\n      sub\n        /* \"#utility.yul\":769:801   */\n      slt\n        /* \"#utility.yul\":766:885   */\n      iszero\n      tag_197\n      jumpi\n        /* \"#utility.yul\":804:883   */\n      tag_198\n      tag_121\n      jump\t// in\n    tag_198:\n        /* \"#utility.yul\":766:885   */\n    tag_197:\n        /* \"#utility.yul\":924:925   */\n      0x00\n        /* \"#utility.yul\":949:1002   */\n      tag_199\n        /* \"#utility.yul\":994:1001   */\n      dup5\n        /* \"#utility.yul\":985:991   */\n      dup3\n        /* \"#utility.yul\":974:983   */\n      dup6\n        /* \"#utility.yul\":970:992   */\n      add\n        /* \"#utility.yul\":949:1002   */\n      tag_125\n      jump\t// in\n    tag_199:\n        /* \"#utility.yul\":939:1002   */\n      swap2\n      pop\n        /* \"#utility.yul\":895:1012   */\n      pop\n        /* \"#utility.yul\":690:1019   */\n      swap3\n      swap2\n      pop\n      pop\n      jump\t// out\n        /* \"#utility.yul\":1025:1151   */\n    tag_126:\n        /* \"#utility.yul\":1062:1069   */\n      0x00\n        /* \"#utility.yul\":1102:1144   */\n      0xffffffffffffffffffffffffffffffffffffffff\n        /* \"#utility.yul\":1095:1100   */\n      dup3\n        /* \"#utility.yul\":1091:1145   */\n      and\n        /* \"#utility.yul\":1080:1145   */\n      swap1\n      pop\n        /* \"#utility.yul\":1025:1151   */\n      swap2\n      swap1\n      pop\n      jump\t// out\n        /* \"#utility.yul\":1157:1253   */\n    tag_127:\n        /* \"#utility.yul\":1194:1201   */\n      0x00\n        /* \"#utility.yul\":1223:1247   */\n      tag_202\n        /* \"#utility.yul\":1241:1246   */\n      dup3\n        /* \"#utility.yul\":1223:1247   */\n      tag_126\n      jump\t// in\n    tag_202:\n        /* \"#utility.yul\":1212:1247   */\n      swap1\n      pop\n        /* \"#utility.yul\":1157:1253   */\n      swap2\n      swap1\n      pop\n      jump\t// out\n        /* \"#utility.yul\":1259:1381   */\n    tag_128:\n        /* \"#utility.yul\":1332:1356   */\n      tag_204\n        /* \"#utility.yul\":1350:1355   */\n      dup2\n        /* \"#utility.yul\":1332:1356   */\n      tag_127\n      jump\t// in\n    tag_204:\n        /* \"#utility.yul\":1325:1330   */\n      dup2\n        /* \"#utility.yul\":1322:1357   */\n      eq\n        /* \"#utility.yul\":1312:1375   */\n      tag_205\n      jumpi\n        /* \"#utility.yul\":1371:1372   */\n      0x00\n        /* \"#utility.yul\":1368:1369   */\n      0x00\n        /* \"#utility.yul\":1361:1373   */\n      revert\n        /* \"#utility.yul\":1312:1375   */\n    tag_205:\n        /* \"#utility.yul\":1259:1381   */\n      pop\n      jump\t// out\n        /* \"#utility.yul\":1387:1526   */\n    tag_129:\n        /* \"#utility.yul\":1433:1438   */\n      0x00\n        /* \"#utility.yul\":1471:1477   */\n      dup2\n        /* \"#utility.yul\":1458:1478   */\n      calldataload\n        /* \"#utility.yul\":1449:1478   */\n      swap1\n      pop\n        /* \"#utility.yul\":1487:1520   */\n      tag_207\n        /* \"#utility.yul\":1514:1519   */\n      dup2\n        /* \"#utility.yul\":1487:1520   */\n      tag_128\n      jump\t// in\n    tag_207:\n        /* \"#utility.yul\":1387:1526   */\n      swap3\n      swap2\n      pop\n      pop\n      jump\t// out\n        /* \"#utility.yul\":1532:1861   */\n    tag_21:\n        /* \"#utility.yul\":1591:1597   */\n      0x00\n        /* \"#utility.yul\":1640:1642   */\n      0x20\n        /* \"#utility.yul\":1628:1637   */\n      dup3\n        /* \"#utility.yul\":1619:1626   */\n      dup5\n        /* \"#utility.yul\":1615:1638   */\n      sub\n        /* \"#utility.yul\":1611:1643   */\n      slt\n        /* \"#utility.yul\":1608:1727   */\n      iszero\n      tag_209\n      jumpi\n        /* \"#utility.yul\":1646:1725   */\n      tag_210\n      tag_121\n      jump\t// in\n    tag_210:\n        /* \"#utility.yul\":1608:1727   */\n    tag_209:\n        /* \"#utility.yul\":1766:1767   */\n      0x00\n        /* \"#utility.yul\":1791:1844   */\n      tag_211\n        /* \"#utility.yul\":1836:1843   */\n      dup5\n        /* \"#utility.yul\":1827:1833   */\n      dup3\n        /* \"#utility.yul\":1816:1825   */\n      dup6\n        /* \"#utility.yul\":1812:1834   */\n      add\n        /* \"#utility.yul\":1791:1844   */\n      tag_129\n      jump\t// in\n    tag_211:\n        /* \"#utility.yul\":1781:1844   */\n      swap2\n      pop\n        /* \"#utility.yul\":1737:1854   */\n      pop\n        /* \"#utility.yul\":1532:1861   */\n      swap3\n      swap2\n      pop\n      pop\n      jump\t// out\n        /* \"#utility.yul\":1867:1957   */\n    tag_130:\n        /* \"#utility.yul\":1901:1908   */\n      0x00\n        /* \"#utility.yul\":1944:1949   */\n      dup2\n        /* \"#utility.yul\":1937:1950   */\n      iszero\n        /* \"#utility.yul\":1930:1951   */\n      iszero\n        /* \"#utility.yul\":1919:1951   */\n      swap1\n      pop\n        /* \"#utility.yul\":1867:1957   */\n      swap2\n      swap1\n      pop\n      jump\t// out\n        /* \"#utility.yul\":1963:2072   */\n    tag_131:\n        /* \"#utility.yul\":2044:2065   */\n      tag_214\n        /* \"#utility.yul\":2059:2064   */\n      dup2\n        /* \"#utility.yul\":2044:2065   */\n      tag_130\n      jump\t// in\n    tag_214:\n        /* \"#utility.yul\":2039:2042   */\n      dup3\n        /* \"#utility.yul\":2032:2066   */\n      mstore\n        /* \"#utility.yul\":1963:2072   */\n      pop\n      pop\n      jump\t// out\n        /* \"#utility.yul\":2078:2288   */\n    tag_24:\n        /* \"#utility.yul\":2165:2169   */\n      0x00\n        /* \"#utility.yul\":2203:2205   */\n      0x20\n        /* \"#utility.yul\":2192:2201   */\n      dup3\n        /* \"#utility.yul\":2188:2206   */\n      add\n        /* \"#utility.yul\":2180:2206   */\n      swap1\n      pop\n        /* \"#utility.yul\":2216:2281   */\n      tag_216\n        /* \"#utility.yul\":2278:2279   */\n      0x00\n        /* \"#utility.yul\":2267:2276   */\n      dup4\n        /* \"#utility.yul\":2263:2280   */\n      add\n        /* \"#utility.yul\":2254:2260   */\n      dup5\n        /* \"#utility.yul\":2216:2281   */\n      tag_131\n      jump\t// in\n    tag_216:\n        /* \"#utility.yul\":2078:2288   */\n      swap3\n      swap2\n      pop\n      pop\n      jump\t// out\n        /* \"#utility.yul\":2294:2412   */\n    tag_132:\n        /* \"#utility.yul\":2381:2405   */\n      tag_218\n        /* \"#utility.yul\":2399:2404   */\n      dup2\n        /* \"#utility.yul\":2381:2405   */\n      tag_127\n      jump\t// in\n    tag_218:\n        /* \"#utility.yul\":2376:2379   */\n      dup3\n        /* \"#utility.yul\":2369:2406   */\n      mstore\n        /* \"#utility.yul\":2294:2412   */\n      pop\n      pop\n      jump\t// out\n        /* \"#utility.yul\":2418:2640   */\n    tag_29:\n        /* \"#utility.yul\":2511:2515   */\n      0x00\n        /* \"#utility.yul\":2549:2551   */\n      0x20\n        /* \"#utility.yul\":2538:2547   */\n      dup3\n        /* \"#utility.yul\":2534:2552   */\n      add\n        /* \"#utility.yul\":2526:2552   */\n      swap1\n      pop\n        /* \"#utility.yul\":2562:2633   */\n      tag_220\n        /* \"#utility.yul\":2630:2631   */\n      0x00\n        /* \"#utility.yul\":2619:2628   */\n      dup4\n        /* \"#utility.yul\":2615:2632   */\n      add\n        /* \"#utility.yul\":2606:2612   */\n      dup5\n        /* \"#utility.yul\":2562:2633   */\n      tag_132\n      jump\t// in\n    tag_220:\n        /* \"#utility.yul\":2418:2640   */\n      swap3\n      swap2\n      pop\n      pop\n      jump\t// out\n        /* \"#utility.yul\":2646:2745   */\n    tag_133:\n        /* \"#utility.yul\":2698:2704   */\n      0x00\n        /* \"#utility.yul\":2732:2737   */\n      dup2\n        /* \"#utility.yul\":2726:2738   */\n      mload\n        /* \"#utility.yul\":2716:2738   */\n      swap1\n      pop\n        /* \"#utility.yul\":2646:2745   */\n      swap2\n      swap1\n      pop\n      jump\t// out\n        /* \"#utility.yul\":2751:2920   */\n    tag_134:\n        /* \"#utility.yul\":2835:2846   */\n      0x00\n        /* \"#utility.yul\":2869:2875   */\n      dup3\n        /* \"#utility.yul\":2864:2867   */\n      dup3\n        /* \"#utility.yul\":2857:2876   */\n      mstore\n        /* \"#utility.yul\":2909:2913   */\n      0x20\n        /* \"#utility.yul\":2904:2907   */\n      dup3\n        /* \"#utility.yul\":2900:2914   */\n      add\n        /* \"#utility.yul\":2885:2914   */\n      swap1\n      pop\n        /* \"#utility.yul\":2751:2920   */\n      swap3\n      swap2\n      pop\n      pop\n      jump\t// out\n        /* \"#utility.yul\":2926:3065   */\n    tag_135:\n        /* \"#utility.yul\":3015:3021   */\n      dup3\n        /* \"#utility.yul\":3010:3013   */\n      dup2\n        /* \"#utility.yul\":3005:3008   */\n      dup4\n        /* \"#utility.yul\":2999:3022   */\n      mcopy\n        /* \"#utility.yul\":3056:3057   */\n      0x00\n        /* \"#utility.yul\":3047:3053   */\n      dup4\n        /* \"#utility.yul\":3042:3045   */\n      dup4\n        /* \"#utility.yul\":3038:3054   */\n      add\n        /* \"#utility.yul\":3031:3058   */\n      mstore\n        /* \"#utility.yul\":2926:3065   */\n      pop\n      pop\n      pop\n      jump\t// out\n        /* \"#utility.yul\":3071:3173   */\n    tag_136:\n        /* \"#utility.yul\":3112:3118   */\n      0x00\n        /* \"#utility.yul\":3163:3165   */\n      0x1f\n        /* \"#utility.yul\":3159:3166   */\n      not\n        /* \"#utility.yul\":3154:3156   */\n      0x1f\n        /* \"#utility.yul\":3147:3152   */\n      dup4\n        /* \"#utility.yul\":3143:3157   */\n      add\n        /* \"#utility.yul\":3139:3167   */\n      and\n        /* \"#utility.yul\":3129:3167   */\n      swap1\n      pop\n        /* \"#utility.yul\":3071:3173   */\n      swap2\n      swap1\n      pop\n      jump\t// out\n        /* \"#utility.yul\":3179:3556   */\n    tag_137:\n        /* \"#utility.yul\":3267:3270   */\n      0x00\n        /* \"#utility.yul\":3295:3334   */\n      tag_226\n        /* \"#utility.yul\":3328:3333   */\n      dup3\n        /* \"#utility.yul\":3295:3334   */\n      tag_133\n      jump\t// in\n    tag_226:\n        /* \"#utility.yul\":3350:3421   */\n      tag_227\n        /* \"#utility.yul\":3414:3420   */\n      dup2\n        /* \"#utility.yul\":3409:3412   */\n      dup6\n        /* \"#utility.yul\":3350:3421   */\n      tag_134\n      jump\t// in\n    tag_227:\n        /* \"#utility.yul\":3343:3421   */\n      swap4\n      pop\n        /* \"#utility.yul\":3430:3495   */\n      tag_228\n        /* \"#utility.yul\":3488:3494   */\n      dup2\n        /* \"#utility.yul\":3483:3486   */\n      dup6\n        /* \"#utility.yul\":3476:3480   */\n      0x20\n        /* \"#utility.yul\":3469:3474   */\n      dup7\n        /* \"#utility.yul\":3465:3481   */\n      add\n        /* \"#utility.yul\":3430:3495   */\n      tag_135\n      jump\t// in\n    tag_228:\n        /* \"#utility.yul\":3520:3549   */\n      tag_229\n        /* \"#utility.yul\":3542:3548   */\n      dup2\n        /* \"#utility.yul\":3520:3549   */\n      tag_136\n      jump\t// in\n    tag_229:\n        /* \"#utility.yul\":3515:3518   */\n      dup5\n        /* \"#utility.yul\":3511:3550   */\n      add\n        /* \"#utility.yul\":3504:3550   */\n      swap2\n      pop\n        /* \"#utility.yul\":3271:3556   */\n      pop\n        /* \"#utility.yul\":3179:3556   */\n      swap3\n      swap2\n      pop\n      pop\n      jump\t// out\n        /* \"#utility.yul\":3562:3680   */\n    tag_138:\n        /* \"#utility.yul\":3649:3673   */\n      tag_231\n        /* \"#utility.yul\":3667:3672   */\n      dup2\n        /* \"#utility.yul\":3649:3673   */\n      tag_123\n      jump\t// in\n    tag_231:\n        /* \"#utility.yul\":3644:3647   */\n      dup3\n        /* \"#utility.yul\":3637:3674   */\n      mstore\n        /* \"#utility.yul\":3562:3680   */\n      pop\n      pop\n      jump\t// out\n        /* \"#utility.yul\":3686:3790   */\n    tag_139:\n        /* \"#utility.yul\":3731:3738   */\n      0x00\n        /* \"#utility.yul\":3760:3784   */\n      tag_233\n        /* \"#utility.yul\":3778:3783   */\n      dup3\n        /* \"#utility.yul\":3760:3784   */\n      tag_126\n      jump\t// in\n    tag_233:\n        /* \"#utility.yul\":3749:3784   */\n      swap1\n      pop\n        /* \"#utility.yul\":3686:3790   */\n      swap2\n      swap1\n      pop\n      jump\t// out\n        /* \"#utility.yul\":3796:3938   */\n    tag_140:\n        /* \"#utility.yul\":3899:3931   */\n      tag_235\n        /* \"#utility.yul\":3925:3930   */\n      dup2\n        /* \"#utility.yul\":3899:3931   */\n      tag_139\n      jump\t// in\n    tag_235:\n        /* \"#utility.yul\":3894:3897   */\n      dup3\n        /* \"#utility.yul\":3887:3932   */\n      mstore\n        /* \"#utility.yul\":3796:3938   */\n      pop\n      pop\n      jump\t// out\n        /* \"#utility.yul\":3944:4719   */\n    tag_35:\n        /* \"#utility.yul\":4179:4183   */\n      0x00\n        /* \"#utility.yul\":4217:4220   */\n      0xa0\n        /* \"#utility.yul\":4206:4215   */\n      dup3\n        /* \"#utility.yul\":4202:4221   */\n      add\n        /* \"#utility.yul\":4194:4221   */\n      swap1\n      pop\n        /* \"#utility.yul\":4267:4276   */\n      dup2\n        /* \"#utility.yul\":4261:4265   */\n      dup2\n        /* \"#utility.yul\":4257:4277   */\n      sub\n        /* \"#utility.yul\":4253:4254   */\n      0x00\n        /* \"#utility.yul\":4242:4251   */\n      dup4\n        /* \"#utility.yul\":4238:4255   */\n      add\n        /* \"#utility.yul\":4231:4278   */\n      mstore\n        /* \"#utility.yul\":4295:4373   */\n      tag_237\n        /* \"#utility.yul\":4368:4372   */\n      dup2\n        /* \"#utility.yul\":4359:4365   */\n      dup9\n        /* \"#utility.yul\":4295:4373   */\n      tag_137\n      jump\t// in\n    tag_237:\n        /* \"#utility.yul\":4287:4373   */\n      swap1\n      pop\n        /* \"#utility.yul\":4383:4455   */\n      tag_238\n        /* \"#utility.yul\":4451:4453   */\n      0x20\n        /* \"#utility.yul\":4440:4449   */\n      dup4\n        /* \"#utility.yul\":4436:4454   */\n      add\n        /* \"#utility.yul\":4427:4433   */\n      dup8\n        /* \"#utility.yul\":4383:4455   */\n      tag_138\n      jump\t// in\n    tag_238:\n        /* \"#utility.yul\":4465:4553   */\n      tag_239\n        /* \"#utility.yul\":4549:4551   */\n      0x40\n        /* \"#utility.yul\":4538:4547   */\n      dup4\n        /* \"#utility.yul\":4534:4552   */\n      add\n        /* \"#utility.yul\":4525:4531   */\n      dup7\n        /* \"#utility.yul\":4465:4553   */\n      tag_140\n      jump\t// in\n    tag_239:\n        /* \"#utility.yul\":4563:4629   */\n      tag_240\n        /* \"#utility.yul\":4625:4627   */\n      0x60\n        /* \"#utility.yul\":4614:4623   */\n      dup4\n        /* \"#utility.yul\":4610:4628   */\n      add\n        /* \"#utility.yul\":4601:4607   */\n      dup6\n        /* \"#utility.yul\":4563:4629   */\n      tag_131\n      jump\t// in\n    tag_240:\n        /* \"#utility.yul\":4639:4712   */\n      tag_241\n        /* \"#utility.yul\":4707:4710   */\n      0x80\n        /* \"#utility.yul\":4696:4705   */\n      dup4\n        /* \"#utility.yul\":4692:4711   */\n      add\n        /* \"#utility.yul\":4683:4689   */\n      dup5\n        /* \"#utility.yul\":4639:4712   */\n      tag_138\n      jump\t// in\n    tag_241:\n        /* \"#utility.yul\":3944:4719   */\n      swap7\n      swap6\n      pop\n      pop\n      pop\n      pop\n      pop\n      pop\n      jump\t// out\n        /* \"#utility.yul\":4725:4947   */\n    tag_40:\n        /* \"#utility.yul\":4818:4822   */\n      0x00\n        /* \"#utility.yul\":4856:4858   */\n      0x20\n        /* \"#utility.yul\":4845:4854   */\n      dup3\n        /* \"#utility.yul\":4841:4859   */\n      add\n        /* \"#utility.yul\":4833:4859   */\n      swap1\n      pop\n        /* \"#utility.yul\":4869:4940   */\n      tag_243\n        /* \"#utility.yul\":4937:4938   */\n      0x00\n        /* \"#utility.yul\":4926:4935   */\n      dup4\n        /* \"#utility.yul\":4922:4939   */\n      add\n        /* \"#utility.yul\":4913:4919   */\n      dup5\n        /* \"#utility.yul\":4869:4940   */\n      tag_138\n      jump\t// in\n    tag_243:\n        /* \"#utility.yul\":4725:4947   */\n      swap3\n      swap2\n      pop\n      pop\n      jump\t// out\n        /* \"#utility.yul\":4953:5070   */\n    tag_141:\n        /* \"#utility.yul\":5062:5063   */\n      0x00\n        /* \"#utility.yul\":5059:5060   */\n      0x00\n        /* \"#utility.yul\":5052:5064   */\n      revert\n        /* \"#utility.yul\":5076:5193   */\n    tag_142:\n        /* \"#utility.yul\":5185:5186   */\n      0x00\n        /* \"#utility.yul\":5182:5183   */\n      0x00\n        /* \"#utility.yul\":5175:5187   */\n      revert\n        /* \"#utility.yul\":5199:5379   */\n    tag_143:\n        /* \"#utility.yul\":5247:5324   */\n      0x4e487b7100000000000000000000000000000000000000000000000000000000\n        /* \"#utility.yul\":5244:5245   */\n      0x00\n        /* \"#utility.yul\":5237:5325   */\n      mstore\n        /* \"#utility.yul\":5344:5348   */\n      0x41\n        /* \"#utility.yul\":5341:5342   */\n      0x04\n        /* \"#utility.yul\":5334:5349   */\n      mstore\n        /* \"#utility.yul\":5368:5372   */\n      0x24\n        /* \"#utility.yul\":5365:5366   */\n      0x00\n        /* \"#utility.yul\":5358:5373   */\n      revert\n        /* \"#utility.yul\":5385:5666   */\n    tag_144:\n        /* \"#utility.yul\":5468:5495   */\n      tag_248\n        /* \"#utility.yul\":5490:5494   */\n      dup3\n        /* \"#utility.yul\":5468:5495   */\n      tag_136\n      jump\t// in\n    tag_248:\n        /* \"#utility.yul\":5460:5466   */\n      dup2\n        /* \"#utility.yul\":5456:5496   */\n      add\n        /* \"#utility.yul\":5598:5604   */\n      dup2\n        /* \"#utility.yul\":5586:5596   */\n      dup2\n        /* \"#utility.yul\":5583:5605   */\n      lt\n        /* \"#utility.yul\":5562:5580   */\n      0xffffffffffffffff\n        /* \"#utility.yul\":5550:5560   */\n      dup3\n        /* \"#utility.yul\":5547:5581   */\n      gt\n        /* \"#utility.yul\":5544:5606   */\n      or\n        /* \"#utility.yul\":5541:5629   */\n      iszero\n      tag_249\n      jumpi\n        /* \"#utility.yul\":5609:5627   */\n      tag_250\n      tag_143\n      jump\t// in\n    tag_250:\n        /* \"#utility.yul\":5541:5629   */\n    tag_249:\n        /* \"#utility.yul\":5649:5659   */\n      dup1\n        /* \"#utility.yul\":5645:5647   */\n      0x40\n        /* \"#utility.yul\":5638:5660   */\n      mstore\n        /* \"#utility.yul\":5428:5666   */\n      pop\n        /* \"#utility.yul\":5385:5666   */\n      pop\n      pop\n      jump\t// out\n        /* \"#utility.yul\":5672:5801   */\n    tag_145:\n        /* \"#utility.yul\":5706:5712   */\n      0x00\n        /* \"#utility.yul\":5733:5753   */\n      tag_252\n      tag_120\n      jump\t// in\n    tag_252:\n        /* \"#utility.yul\":5723:5753   */\n      swap1\n      pop\n        /* \"#utility.yul\":5762:5795   */\n      tag_253\n        /* \"#utility.yul\":5790:5794   */\n      dup3\n        /* \"#utility.yul\":5782:5788   */\n      dup3\n        /* \"#utility.yul\":5762:5795   */\n      tag_144\n      jump\t// in\n    tag_253:\n        /* \"#utility.yul\":5672:5801   */\n      swap2\n      swap1\n      pop\n      jump\t// out\n        /* \"#utility.yul\":5807:6115   */\n    tag_146:\n        /* \"#utility.yul\":5869:5873   */\n      0x00\n        /* \"#utility.yul\":5959:5977   */\n      0xffffffffffffffff\n        /* \"#utility.yul\":5951:5957   */\n      dup3\n        /* \"#utility.yul\":5948:5978   */\n      gt\n        /* \"#utility.yul\":5945:6001   */\n      iszero\n      tag_255\n      jumpi\n        /* \"#utility.yul\":5981:5999   */\n      tag_256\n      tag_143\n      jump\t// in\n    tag_256:\n        /* \"#utility.yul\":5945:6001   */\n    tag_255:\n        /* \"#utility.yul\":6019:6048   */\n      tag_257\n        /* \"#utility.yul\":6041:6047   */\n      dup3\n        /* \"#utility.yul\":6019:6048   */\n      tag_136\n      jump\t// in\n    tag_257:\n        /* \"#utility.yul\":6011:6048   */\n      swap1\n      pop\n        /* \"#utility.yul\":6103:6107   */\n      0x20\n        /* \"#utility.yul\":6097:6101   */\n      dup2\n        /* \"#utility.yul\":6093:6108   */\n      add\n        /* \"#utility.yul\":6085:6108   */\n      swap1\n      pop\n        /* \"#utility.yul\":5807:6115   */\n      swap2\n      swap1\n      pop\n      jump\t// out\n        /* \"#utility.yul\":6121:6269   */\n    tag_147:\n        /* \"#utility.yul\":6219:6225   */\n      dup3\n        /* \"#utility.yul\":6214:6217   */\n      dup2\n        /* \"#utility.yul\":6209:6212   */\n      dup4\n        /* \"#utility.yul\":6196:6226   */\n      calldatacopy\n        /* \"#utility.yul\":6260:6261   */\n      0x00\n        /* \"#utility.yul\":6251:6257   */\n      dup4\n        /* \"#utility.yul\":6246:6249   */\n      dup4\n        /* \"#utility.yul\":6242:6258   */\n      add\n        /* \"#utility.yul\":6235:6262   */\n      mstore\n        /* \"#utility.yul\":6121:6269   */\n      pop\n      pop\n      pop\n      jump\t// out\n        /* \"#utility.yul\":6275:6700   */\n    tag_148:\n        /* \"#utility.yul\":6353:6358   */\n      0x00\n        /* \"#utility.yul\":6378:6444   */\n      tag_260\n        /* \"#utility.yul\":6394:6443   */\n      tag_261\n        /* \"#utility.yul\":6436:6442   */\n      dup5\n        /* \"#utility.yul\":6394:6443   */\n      tag_146\n      jump\t// in\n    tag_261:\n        /* \"#utility.yul\":6378:6444   */\n      tag_145\n      jump\t// in\n    tag_260:\n        /* \"#utility.yul\":6369:6444   */\n      swap1\n      pop\n        /* \"#utility.yul\":6467:6473   */\n      dup3\n        /* \"#utility.yul\":6460:6465   */\n      dup2\n        /* \"#utility.yul\":6453:6474   */\n      mstore\n        /* \"#utility.yul\":6505:6509   */\n      0x20\n        /* \"#utility.yul\":6498:6503   */\n      dup2\n        /* \"#utility.yul\":6494:6510   */\n      add\n        /* \"#utility.yul\":6543:6546   */\n      dup5\n        /* \"#utility.yul\":6534:6540   */\n      dup5\n        /* \"#utility.yul\":6529:6532   */\n      dup5\n        /* \"#utility.yul\":6525:6541   */\n      add\n        /* \"#utility.yul\":6522:6547   */\n      gt\n        /* \"#utility.yul\":6519:6631   */\n      iszero\n      tag_262\n      jumpi\n        /* \"#utility.yul\":6550:6629   */\n      tag_263\n      tag_142\n      jump\t// in\n    tag_263:\n        /* \"#utility.yul\":6519:6631   */\n    tag_262:\n        /* \"#utility.yul\":6640:6694   */\n      tag_264\n        /* \"#utility.yul\":6687:6693   */\n      dup5\n        /* \"#utility.yul\":6682:6685   */\n      dup3\n        /* \"#utility.yul\":6677:6680   */\n      dup6\n        /* \"#utility.yul\":6640:6694   */\n      tag_147\n      jump\t// in\n    tag_264:\n        /* \"#utility.yul\":6359:6700   */\n      pop\n        /* \"#utility.yul\":6275:6700   */\n      swap4\n      swap3\n      pop\n      pop\n      pop\n      jump\t// out\n        /* \"#utility.yul\":6720:7060   */\n    tag_149:\n        /* \"#utility.yul\":6776:6781   */\n      0x00\n        /* \"#utility.yul\":6825:6828   */\n      dup3\n        /* \"#utility.yul\":6818:6822   */\n      0x1f\n        /* \"#utility.yul\":6810:6816   */\n      dup4\n        /* \"#utility.yul\":6806:6823   */\n      add\n        /* \"#utility.yul\":6802:6829   */\n      slt\n        /* \"#utility.yul\":6792:6914   */\n      tag_266\n      jumpi\n        /* \"#utility.yul\":6833:6912   */\n      tag_267\n      tag_141\n      jump\t// in\n    tag_267:\n        /* \"#utility.yul\":6792:6914   */\n    tag_266:\n        /* \"#utility.yul\":6950:6956   */\n      dup2\n        /* \"#utility.yul\":6937:6957   */\n      calldataload\n        /* \"#utility.yul\":6975:7054   */\n      tag_268\n        /* \"#utility.yul\":7050:7053   */\n      dup5\n        /* \"#utility.yul\":7042:7048   */\n      dup3\n        /* \"#utility.yul\":7035:7039   */\n      0x20\n        /* \"#utility.yul\":7027:7033   */\n      dup7\n        /* \"#utility.yul\":7023:7040   */\n      add\n        /* \"#utility.yul\":6975:7054   */\n      tag_148\n      jump\t// in\n    tag_268:\n        /* \"#utility.yul\":6966:7054   */\n      swap2\n      pop\n        /* \"#utility.yul\":6782:7060   */\n      pop\n        /* \"#utility.yul\":6720:7060   */\n      swap3\n      swap2\n      pop\n      pop\n      jump\t// out\n        /* \"#utility.yul\":7066:7204   */\n    tag_150:\n        /* \"#utility.yul\":7147:7179   */\n      tag_270\n        /* \"#utility.yul\":7173:7178   */\n      dup2\n        /* \"#utility.yul\":7147:7179   */\n      tag_139\n      jump\t// in\n    tag_270:\n        /* \"#utility.yul\":7140:7145   */\n      dup2\n        /* \"#utility.yul\":7137:7180   */\n      eq\n        /* \"#utility.yul\":7127:7198   */\n      tag_271\n      jumpi\n        /* \"#utility.yul\":7194:7195   */\n      0x00\n        /* \"#utility.yul\":7191:7192   */\n      0x00\n        /* \"#utility.yul\":7184:7196   */\n      revert\n        /* \"#utility.yul\":7127:7198   */\n    tag_271:\n        /* \"#utility.yul\":7066:7204   */\n      pop\n      jump\t// out\n        /* \"#utility.yul\":7210:7365   */\n    tag_151:\n        /* \"#utility.yul\":7264:7269   */\n      0x00\n        /* \"#utility.yul\":7302:7308   */\n      dup2\n        /* \"#utility.yul\":7289:7309   */\n      calldataload\n        /* \"#utility.yul\":7280:7309   */\n      swap1\n      pop\n        /* \"#utility.yul\":7318:7359   */\n      tag_273\n        /* \"#utility.yul\":7353:7358   */\n      dup2\n        /* \"#utility.yul\":7318:7359   */\n      tag_150\n      jump\t// in\n    tag_273:\n        /* \"#utility.yul\":7210:7365   */\n      swap3\n      swap2\n      pop\n      pop\n      jump\t// out\n        /* \"#utility.yul\":7371:8186   */\n    tag_44:\n        /* \"#utility.yul\":7466:7472   */\n      0x00\n        /* \"#utility.yul\":7474:7480   */\n      0x00\n        /* \"#utility.yul\":7482:7488   */\n      0x00\n        /* \"#utility.yul\":7531:7533   */\n      0x60\n        /* \"#utility.yul\":7519:7528   */\n      dup5\n        /* \"#utility.yul\":7510:7517   */\n      dup7\n        /* \"#utility.yul\":7506:7529   */\n      sub\n        /* \"#utility.yul\":7502:7534   */\n      slt\n        /* \"#utility.yul\":7499:7618   */\n      iszero\n      tag_275\n      jumpi\n        /* \"#utility.yul\":7537:7616   */\n      tag_276\n      tag_121\n      jump\t// in\n    tag_276:\n        /* \"#utility.yul\":7499:7618   */\n    tag_275:\n        /* \"#utility.yul\":7685:7686   */\n      0x00\n        /* \"#utility.yul\":7674:7683   */\n      dup5\n        /* \"#utility.yul\":7670:7687   */\n      add\n        /* \"#utility.yul\":7657:7688   */\n      calldataload\n        /* \"#utility.yul\":7715:7733   */\n      0xffffffffffffffff\n        /* \"#utility.yul\":7707:7713   */\n      dup2\n        /* \"#utility.yul\":7704:7734   */\n      gt\n        /* \"#utility.yul\":7701:7818   */\n      iszero\n      tag_277\n      jumpi\n        /* \"#utility.yul\":7737:7816   */\n      tag_278\n      tag_122\n      jump\t// in\n    tag_278:\n        /* \"#utility.yul\":7701:7818   */\n    tag_277:\n        /* \"#utility.yul\":7842:7905   */\n      tag_279\n        /* \"#utility.yul\":7897:7904   */\n      dup7\n        /* \"#utility.yul\":7888:7894   */\n      dup3\n        /* \"#utility.yul\":7877:7886   */\n      dup8\n        /* \"#utility.yul\":7873:7895   */\n      add\n        /* \"#utility.yul\":7842:7905   */\n      tag_149\n      jump\t// in\n    tag_279:\n        /* \"#utility.yul\":7832:7905   */\n      swap4\n      pop\n        /* \"#utility.yul\":7628:7915   */\n      pop\n        /* \"#utility.yul\":7954:7956   */\n      0x20\n        /* \"#utility.yul\":7980:8033   */\n      tag_280\n        /* \"#utility.yul\":8025:8032   */\n      dup7\n        /* \"#utility.yul\":8016:8022   */\n      dup3\n        /* \"#utility.yul\":8005:8014   */\n      dup8\n        /* \"#utility.yul\":8001:8023   */\n      add\n        /* \"#utility.yul\":7980:8033   */\n      tag_125\n      jump\t// in\n    tag_280:\n        /* \"#utility.yul\":7970:8033   */\n      swap3\n      pop\n        /* \"#utility.yul\":7925:8043   */\n      pop\n        /* \"#utility.yul\":8082:8084   */\n      0x40\n        /* \"#utility.yul\":8108:8169   */\n      tag_281\n        /* \"#utility.yul\":8161:8168   */\n      dup7\n        /* \"#utility.yul\":8152:8158   */\n      dup3\n        /* \"#utility.yul\":8141:8150   */\n      dup8\n        /* \"#utility.yul\":8137:8159   */\n      add\n        /* \"#utility.yul\":8108:8169   */\n      tag_151\n      jump\t// in\n    tag_281:\n        /* \"#utility.yul\":8098:8169   */\n      swap2\n      pop\n        /* \"#utility.yul\":8053:8179   */\n      pop\n        /* \"#utility.yul\":7371:8186   */\n      swap3\n      pop\n      swap3\n      pop\n      swap3\n      jump\t// out\n        /* \"#utility.yul\":8192:8666   */\n    tag_53:\n        /* \"#utility.yul\":8260:8266   */\n      0x00\n        /* \"#utility.yul\":8268:8274   */\n      0x00\n        /* \"#utility.yul\":8317:8319   */\n      0x40\n        /* \"#utility.yul\":8305:8314   */\n      dup4\n        /* \"#utility.yul\":8296:8303   */\n      dup6\n        /* \"#utility.yul\":8292:8315   */\n      sub\n        /* \"#utility.yul\":8288:8320   */\n      slt\n        /* \"#utility.yul\":8285:8404   */\n      iszero\n      tag_283\n      jumpi\n        /* \"#utility.yul\":8323:8402   */\n      tag_284\n      tag_121\n      jump\t// in\n    tag_284:\n        /* \"#utility.yul\":8285:8404   */\n    tag_283:\n        /* \"#utility.yul\":8443:8444   */\n      0x00\n        /* \"#utility.yul\":8468:8521   */\n      tag_285\n        /* \"#utility.yul\":8513:8520   */\n      dup6\n        /* \"#utility.yul\":8504:8510   */\n      dup3\n        /* \"#utility.yul\":8493:8502   */\n      dup7\n        /* \"#utility.yul\":8489:8511   */\n      add\n        /* \"#utility.yul\":8468:8521   */\n      tag_125\n      jump\t// in\n    tag_285:\n        /* \"#utility.yul\":8458:8521   */\n      swap3\n      pop\n        /* \"#utility.yul\":8414:8531   */\n      pop\n        /* \"#utility.yul\":8570:8572   */\n      0x20\n        /* \"#utility.yul\":8596:8649   */\n      tag_286\n        /* \"#utility.yul\":8641:8648   */\n      dup6\n        /* \"#utility.yul\":8632:8638   */\n      dup3\n        /* \"#utility.yul\":8621:8630   */\n      dup7\n        /* \"#utility.yul\":8617:8639   */\n      add\n        /* \"#utility.yul\":8596:8649   */\n      tag_129\n      jump\t// in\n    tag_286:\n        /* \"#utility.yul\":8586:8649   */\n      swap2\n      pop\n        /* \"#utility.yul\":8541:8659   */\n      pop\n        /* \"#utility.yul\":8192:8666   */\n      swap3\n      pop\n      swap3\n      swap1\n      pop\n      jump\t// out\n        /* \"#utility.yul\":8672:8898   */\n    tag_152:\n        /* \"#utility.yul\":8812:8846   */\n      0x4f6e6c7920746865206d616e616765722063616e2063616c6c20746869732066\n        /* \"#utility.yul\":8808:8809   */\n      0x00\n        /* \"#utility.yul\":8800:8806   */\n      dup3\n        /* \"#utility.yul\":8796:8810   */\n      add\n        /* \"#utility.yul\":8789:8847   */\n      mstore\n        /* \"#utility.yul\":8881:8890   */\n      0x756e6374696f6e00000000000000000000000000000000000000000000000000\n        /* \"#utility.yul\":8876:8878   */\n      0x20\n        /* \"#utility.yul\":8868:8874   */\n      dup3\n        /* \"#utility.yul\":8864:8879   */\n      add\n        /* \"#utility.yul\":8857:8891   */\n      mstore\n        /* \"#utility.yul\":8672:8898   */\n      pop\n      jump\t// out\n        /* \"#utility.yul\":8904:9270   */\n    tag_153:\n        /* \"#utility.yul\":9046:9049   */\n      0x00\n        /* \"#utility.yul\":9067:9134   */\n      tag_289\n        /* \"#utility.yul\":9131:9133   */\n      0x27\n        /* \"#utility.yul\":9126:9129   */\n      dup4\n        /* \"#utility.yul\":9067:9134   */\n      tag_134\n      jump\t// in\n    tag_289:\n        /* \"#utility.yul\":9060:9134   */\n      swap2\n      pop\n        /* \"#utility.yul\":9143:9236   */\n      tag_290\n        /* \"#utility.yul\":9232:9235   */\n      dup3\n        /* \"#utility.yul\":9143:9236   */\n      tag_152\n      jump\t// in\n    tag_290:\n        /* \"#utility.yul\":9261:9263   */\n      0x40\n        /* \"#utility.yul\":9256:9259   */\n      dup3\n        /* \"#utility.yul\":9252:9264   */\n      add\n        /* \"#utility.yul\":9245:9264   */\n      swap1\n      pop\n        /* \"#utility.yul\":8904:9270   */\n      swap2\n      swap1\n      pop\n      jump\t// out\n        /* \"#utility.yul\":9276:9695   */\n    tag_65:\n        /* \"#utility.yul\":9442:9446   */\n      0x00\n        /* \"#utility.yul\":9480:9482   */\n      0x20\n        /* \"#utility.yul\":9469:9478   */\n      dup3\n        /* \"#utility.yul\":9465:9483   */\n      add\n        /* \"#utility.yul\":9457:9483   */\n      swap1\n      pop\n        /* \"#utility.yul\":9529:9538   */\n      dup2\n        /* \"#utility.yul\":9523:9527   */\n      dup2\n        /* \"#utility.yul\":9519:9539   */\n      sub\n        /* \"#utility.yul\":9515:9516   */\n      0x00\n        /* \"#utility.yul\":9504:9513   */\n      dup4\n        /* \"#utility.yul\":9500:9517   */\n      add\n        /* \"#utility.yul\":9493:9540   */\n      mstore\n        /* \"#utility.yul\":9557:9688   */\n      tag_292\n        /* \"#utility.yul\":9683:9687   */\n      dup2\n        /* \"#utility.yul\":9557:9688   */\n      tag_153\n      jump\t// in\n    tag_292:\n        /* \"#utility.yul\":9549:9688   */\n      swap1\n      pop\n        /* \"#utility.yul\":9276:9695   */\n      swap2\n      swap1\n      pop\n      jump\t// out\n        /* \"#utility.yul\":9701:9881   */\n    tag_69:\n        /* \"#utility.yul\":9749:9826   */\n      0x4e487b7100000000000000000000000000000000000000000000000000000000\n        /* \"#utility.yul\":9746:9747   */\n      0x00\n        /* \"#utility.yul\":9739:9827   */\n      mstore\n        /* \"#utility.yul\":9846:9850   */\n      0x32\n        /* \"#utility.yul\":9843:9844   */\n      0x04\n        /* \"#utility.yul\":9836:9851   */\n      mstore\n        /* \"#utility.yul\":9870:9874   */\n      0x24\n        /* \"#utility.yul\":9867:9868   */\n      0x00\n        /* \"#utility.yul\":9860:9875   */\n      revert\n        /* \"#utility.yul\":9887:10067   */\n    tag_154:\n        /* \"#utility.yul\":9935:10012   */\n      0x4e487b7100000000000000000000000000000000000000000000000000000000\n        /* \"#utility.yul\":9932:9933   */\n      0x00\n        /* \"#utility.yul\":9925:10013   */\n      mstore\n        /* \"#utility.yul\":10032:10036   */\n      0x12\n        /* \"#utility.yul\":10029:10030   */\n      0x04\n        /* \"#utility.yul\":10022:10037   */\n      mstore\n        /* \"#utility.yul\":10056:10060   */\n      0x24\n        /* \"#utility.yul\":10053:10054   */\n      0x00\n        /* \"#utility.yul\":10046:10061   */\n      revert\n        /* \"#utility.yul\":10073:10253   */\n    tag_155:\n        /* \"#utility.yul\":10121:10198   */\n      0x4e487b7100000000000000000000000000000000000000000000000000000000\n        /* \"#utility.yul\":10118:10119   */\n      0x00\n        /* \"#utility.yul\":10111:10199   */\n      mstore\n        /* \"#utility.yul\":10218:10222   */\n      0x11\n        /* \"#utility.yul\":10215:10216   */\n      0x04\n        /* \"#utility.yul\":10208:10223   */\n      mstore\n        /* \"#utility.yul\":10242:10246   */\n      0x24\n        /* \"#utility.yul\":10239:10240   */\n      0x00\n        /* \"#utility.yul\":10232:10247   */\n      revert\n        /* \"#utility.yul\":10259:10444   */\n    tag_72:\n        /* \"#utility.yul\":10299:10300   */\n      0x00\n        /* \"#utility.yul\":10316:10336   */\n      tag_297\n        /* \"#utility.yul\":10334:10335   */\n      dup3\n        /* \"#utility.yul\":10316:10336   */\n      tag_123\n      jump\t// in\n    tag_297:\n        /* \"#utility.yul\":10311:10336   */\n      swap2\n      pop\n        /* \"#utility.yul\":10350:10370   */\n      tag_298\n        /* \"#utility.yul\":10368:10369   */\n      dup4\n        /* \"#utility.yul\":10350:10370   */\n      tag_123\n      jump\t// in\n    tag_298:\n        /* \"#utility.yul\":10345:10370   */\n      swap3\n      pop\n        /* \"#utility.yul\":10389:10390   */\n      dup3\n        /* \"#utility.yul\":10379:10414   */\n      tag_299\n      jumpi\n        /* \"#utility.yul\":10394:10412   */\n      tag_300\n      tag_154\n      jump\t// in\n    tag_300:\n        /* \"#utility.yul\":10379:10414   */\n    tag_299:\n        /* \"#utility.yul\":10436:10437   */\n      dup3\n        /* \"#utility.yul\":10433:10434   */\n      dup3\n        /* \"#utility.yul\":10429:10438   */\n      div\n        /* \"#utility.yul\":10424:10438   */\n      swap1\n      pop\n        /* \"#utility.yul\":10259:10444   */\n      swap3\n      swap2\n      pop\n      pop\n      jump\t// out\n        /* \"#utility.yul\":10450:10626   */\n    tag_156:\n        /* \"#utility.yul\":10590:10618   */\n      0x4d616a6f7269747920617070726f76616c207265717569726564000000000000\n        /* \"#utility.yul\":10586:10587   */\n      0x00\n        /* \"#utility.yul\":10578:10584   */\n      dup3\n        /* \"#utility.yul\":10574:10588   */\n      add\n        /* \"#utility.yul\":10567:10619   */\n      mstore\n        /* \"#utility.yul\":10450:10626   */\n      pop\n      jump\t// out\n        /* \"#utility.yul\":10632:10998   */\n    tag_157:\n        /* \"#utility.yul\":10774:10777   */\n      0x00\n        /* \"#utility.yul\":10795:10862   */\n      tag_303\n        /* \"#utility.yul\":10859:10861   */\n      0x1a\n        /* \"#utility.yul\":10854:10857   */\n      dup4\n        /* \"#utility.yul\":10795:10862   */\n      tag_134\n      jump\t// in\n    tag_303:\n        /* \"#utility.yul\":10788:10862   */\n      swap2\n      pop\n        /* \"#utility.yul\":10871:10964   */\n      tag_304\n        /* \"#utility.yul\":10960:10963   */\n      dup3\n        /* \"#utility.yul\":10871:10964   */\n      tag_156\n      jump\t// in\n    tag_304:\n        /* \"#utility.yul\":10989:10991   */\n      0x20\n        /* \"#utility.yul\":10984:10987   */\n      dup3\n        /* \"#utility.yul\":10980:10992   */\n      add\n        /* \"#utility.yul\":10973:10992   */\n      swap1\n      pop\n        /* \"#utility.yul\":10632:10998   */\n      swap2\n      swap1\n      pop\n      jump\t// out\n        /* \"#utility.yul\":11004:11423   */\n    tag_75:\n        /* \"#utility.yul\":11170:11174   */\n      0x00\n        /* \"#utility.yul\":11208:11210   */\n      0x20\n        /* \"#utility.yul\":11197:11206   */\n      dup3\n        /* \"#utility.yul\":11193:11211   */\n      add\n        /* \"#utility.yul\":11185:11211   */\n      swap1\n      pop\n        /* \"#utility.yul\":11257:11266   */\n      dup2\n        /* \"#utility.yul\":11251:11255   */\n      dup2\n        /* \"#utility.yul\":11247:11267   */\n      sub\n        /* \"#utility.yul\":11243:11244   */\n      0x00\n        /* \"#utility.yul\":11232:11241   */\n      dup4\n        /* \"#utility.yul\":11228:11245   */\n      add\n        /* \"#utility.yul\":11221:11268   */\n      mstore\n        /* \"#utility.yul\":11285:11416   */\n      tag_306\n        /* \"#utility.yul\":11411:11415   */\n      dup2\n        /* \"#utility.yul\":11285:11416   */\n      tag_157\n      jump\t// in\n    tag_306:\n        /* \"#utility.yul\":11277:11416   */\n      swap1\n      pop\n        /* \"#utility.yul\":11004:11423   */\n      swap2\n      swap1\n      pop\n      jump\t// out\n        /* \"#utility.yul\":11429:11604   */\n    tag_158:\n        /* \"#utility.yul\":11569:11596   */\n      0x5265717565737420616c726561647920636f6d706c6574656400000000000000\n        /* \"#utility.yul\":11565:11566   */\n      0x00\n        /* \"#utility.yul\":11557:11563   */\n      dup3\n        /* \"#utility.yul\":11553:11567   */\n      add\n        /* \"#utility.yul\":11546:11597   */\n      mstore\n        /* \"#utility.yul\":11429:11604   */\n      pop\n      jump\t// out\n        /* \"#utility.yul\":11610:11976   */\n    tag_159:\n        /* \"#utility.yul\":11752:11755   */\n      0x00\n        /* \"#utility.yul\":11773:11840   */\n      tag_309\n        /* \"#utility.yul\":11837:11839   */\n      0x19\n        /* \"#utility.yul\":11832:11835   */\n      dup4\n        /* \"#utility.yul\":11773:11840   */\n      tag_134\n      jump\t// in\n    tag_309:\n        /* \"#utility.yul\":11766:11840   */\n      swap2\n      pop\n        /* \"#utility.yul\":11849:11942   */\n      tag_310\n        /* \"#utility.yul\":11938:11941   */\n      dup3\n        /* \"#utility.yul\":11849:11942   */\n      tag_158\n      jump\t// in\n    tag_310:\n        /* \"#utility.yul\":11967:11969   */\n      0x20\n        /* \"#utility.yul\":11962:11965   */\n      dup3\n        /* \"#utility.yul\":11958:11970   */\n      add\n        /* \"#utility.yul\":11951:11970   */\n      swap1\n      pop\n        /* \"#utility.yul\":11610:11976   */\n      swap2\n      swap1\n      pop\n      jump\t// out\n        /* \"#utility.yul\":11982:12401   */\n    tag_78:\n        /* \"#utility.yul\":12148:12152   */\n      0x00\n        /* \"#utility.yul\":12186:12188   */\n      0x20\n        /* \"#utility.yul\":12175:12184   */\n      dup3\n        /* \"#utility.yul\":12171:12189   */\n      add\n        /* \"#utility.yul\":12163:12189   */\n      swap1\n      pop\n        /* \"#utility.yul\":12235:12244   */\n      dup2\n        /* \"#utility.yul\":12229:12233   */\n      dup2\n        /* \"#utility.yul\":12225:12245   */\n      sub\n        /* \"#utility.yul\":12221:12222   */\n      0x00\n        /* \"#utility.yul\":12210:12219   */\n      dup4\n        /* \"#utility.yul\":12206:12223   */\n      add\n        /* \"#utility.yul\":12199:12246   */\n      mstore\n        /* \"#utility.yul\":12263:12394   */\n      tag_312\n        /* \"#utility.yul\":12389:12393   */\n      dup2\n        /* \"#utility.yul\":12263:12394   */\n      tag_159\n      jump\t// in\n    tag_312:\n        /* \"#utility.yul\":12255:12394   */\n      swap1\n      pop\n        /* \"#utility.yul\":11982:12401   */\n      swap2\n      swap1\n      pop\n      jump\t// out\n        /* \"#utility.yul\":12407:12587   */\n    tag_160:\n        /* \"#utility.yul\":12455:12532   */\n      0x4e487b7100000000000000000000000000000000000000000000000000000000\n        /* \"#utility.yul\":12452:12453   */\n      0x00\n        /* \"#utility.yul\":12445:12533   */\n      mstore\n        /* \"#utility.yul\":12552:12556   */\n      0x22\n        /* \"#utility.yul\":12549:12550   */\n      0x04\n        /* \"#utility.yul\":12542:12557   */\n      mstore\n        /* \"#utility.yul\":12576:12580   */\n      0x24\n        /* \"#utility.yul\":12573:12574   */\n      0x00\n        /* \"#utility.yul\":12566:12581   */\n      revert\n        /* \"#utility.yul\":12593:12913   */\n    tag_84:\n        /* \"#utility.yul\":12637:12643   */\n      0x00\n        /* \"#utility.yul\":12674:12675   */\n      0x02\n        /* \"#utility.yul\":12668:12672   */\n      dup3\n        /* \"#utility.yul\":12664:12676   */\n      div\n        /* \"#utility.yul\":12654:12676   */\n      swap1\n      pop\n        /* \"#utility.yul\":12721:12722   */\n      0x01\n        /* \"#utility.yul\":12715:12719   */\n      dup3\n        /* \"#utility.yul\":12711:12723   */\n      and\n        /* \"#utility.yul\":12742:12760   */\n      dup1\n        /* \"#utility.yul\":12732:12813   */\n      tag_315\n      jumpi\n        /* \"#utility.yul\":12798:12802   */\n      0x7f\n        /* \"#utility.yul\":12790:12796   */\n      dup3\n        /* \"#utility.yul\":12786:12803   */\n      and\n        /* \"#utility.yul\":12776:12803   */\n      swap2\n      pop\n        /* \"#utility.yul\":12732:12813   */\n    tag_315:\n        /* \"#utility.yul\":12860:12862   */\n      0x20\n        /* \"#utility.yul\":12852:12858   */\n      dup3\n        /* \"#utility.yul\":12849:12863   */\n      lt\n        /* \"#utility.yul\":12829:12847   */\n      dup2\n        /* \"#utility.yul\":12826:12864   */\n      sub\n        /* \"#utility.yul\":12823:12907   */\n      tag_316\n      jumpi\n        /* \"#utility.yul\":12879:12897   */\n      tag_317\n      tag_160\n      jump\t// in\n    tag_317:\n        /* \"#utility.yul\":12823:12907   */\n    tag_316:\n        /* \"#utility.yul\":12644:12913   */\n      pop\n        /* \"#utility.yul\":12593:12913   */\n      swap2\n      swap1\n      pop\n      jump\t// out\n        /* \"#utility.yul\":12919:13142   */\n    tag_161:\n        /* \"#utility.yul\":13059:13093   */\n      0x496e73756666696369656e742062616c616e636520696e207468652063616d70\n        /* \"#utility.yul\":13055:13056   */\n      0x00\n        /* \"#utility.yul\":13047:13053   */\n      dup3\n        /* \"#utility.yul\":13043:13057   */\n      add\n        /* \"#utility.yul\":13036:13094   */\n      mstore\n        /* \"#utility.yul\":13128:13134   */\n      0x6169676e00000000000000000000000000000000000000000000000000000000\n        /* \"#utility.yul\":13123:13125   */\n      0x20\n        /* \"#utility.yul\":13115:13121   */\n      dup3\n        /* \"#utility.yul\":13111:13126   */\n      add\n        /* \"#utility.yul\":13104:13135   */\n      mstore\n        /* \"#utility.yul\":12919:13142   */\n      pop\n      jump\t// out\n        /* \"#utility.yul\":13148:13514   */\n    tag_162:\n        /* \"#utility.yul\":13290:13293   */\n      0x00\n        /* \"#utility.yul\":13311:13378   */\n      tag_320\n        /* \"#utility.yul\":13375:13377   */\n      0x24\n        /* \"#utility.yul\":13370:13373   */\n      dup4\n        /* \"#utility.yul\":13311:13378   */\n      tag_134\n      jump\t// in\n    tag_320:\n        /* \"#utility.yul\":13304:13378   */\n      swap2\n      pop\n        /* \"#utility.yul\":13387:13480   */\n      tag_321\n        /* \"#utility.yul\":13476:13479   */\n      dup3\n        /* \"#utility.yul\":13387:13480   */\n      tag_161\n      jump\t// in\n    tag_321:\n        /* \"#utility.yul\":13505:13507   */\n      0x40\n        /* \"#utility.yul\":13500:13503   */\n      dup3\n        /* \"#utility.yul\":13496:13508   */\n      add\n        /* \"#utility.yul\":13489:13508   */\n      swap1\n      pop\n        /* \"#utility.yul\":13148:13514   */\n      swap2\n      swap1\n      pop\n      jump\t// out\n        /* \"#utility.yul\":13520:13939   */\n    tag_95:\n        /* \"#utility.yul\":13686:13690   */\n      0x00\n        /* \"#utility.yul\":13724:13726   */\n      0x20\n        /* \"#utility.yul\":13713:13722   */\n      dup3\n        /* \"#utility.yul\":13709:13727   */\n      add\n        /* \"#utility.yul\":13701:13727   */\n      swap1\n      pop\n        /* \"#utility.yul\":13773:13782   */\n      dup2\n        /* \"#utility.yul\":13767:13771   */\n      dup2\n        /* \"#utility.yul\":13763:13783   */\n      sub\n        /* \"#utility.yul\":13759:13760   */\n      0x00\n        /* \"#utility.yul\":13748:13757   */\n      dup4\n        /* \"#utility.yul\":13744:13761   */\n      add\n        /* \"#utility.yul\":13737:13784   */\n      mstore\n        /* \"#utility.yul\":13801:13932   */\n      tag_323\n        /* \"#utility.yul\":13927:13931   */\n      dup2\n        /* \"#utility.yul\":13801:13932   */\n      tag_162\n      jump\t// in\n    tag_323:\n        /* \"#utility.yul\":13793:13932   */\n      swap1\n      pop\n        /* \"#utility.yul\":13520:13939   */\n      swap2\n      swap1\n      pop\n      jump\t// out\n        /* \"#utility.yul\":13945:14127   */\n    tag_163:\n        /* \"#utility.yul\":14085:14119   */\n      0x526563697069656e7420616464726573732063616e6e6f74206265207a65726f\n        /* \"#utility.yul\":14081:14082   */\n      0x00\n        /* \"#utility.yul\":14073:14079   */\n      dup3\n        /* \"#utility.yul\":14069:14083   */\n      add\n        /* \"#utility.yul\":14062:14120   */\n      mstore\n        /* \"#utility.yul\":13945:14127   */\n      pop\n      jump\t// out\n        /* \"#utility.yul\":14133:14499   */\n    tag_164:\n        /* \"#utility.yul\":14275:14278   */\n      0x00\n        /* \"#utility.yul\":14296:14363   */\n      tag_326\n        /* \"#utility.yul\":14360:14362   */\n      0x20\n        /* \"#utility.yul\":14355:14358   */\n      dup4\n        /* \"#utility.yul\":14296:14363   */\n      tag_134\n      jump\t// in\n    tag_326:\n        /* \"#utility.yul\":14289:14363   */\n      swap2\n      pop\n        /* \"#utility.yul\":14372:14465   */\n      tag_327\n        /* \"#utility.yul\":14461:14464   */\n      dup3\n        /* \"#utility.yul\":14372:14465   */\n      tag_163\n      jump\t// in\n    tag_327:\n        /* \"#utility.yul\":14490:14492   */\n      0x20\n        /* \"#utility.yul\":14485:14488   */\n      dup3\n        /* \"#utility.yul\":14481:14493   */\n      add\n        /* \"#utility.yul\":14474:14493   */\n      swap1\n      pop\n        /* \"#utility.yul\":14133:14499   */\n      swap2\n      swap1\n      pop\n      jump\t// out\n        /* \"#utility.yul\":14505:14924   */\n    tag_98:\n        /* \"#utility.yul\":14671:14675   */\n      0x00\n        /* \"#utility.yul\":14709:14711   */\n      0x20\n        /* \"#utility.yul\":14698:14707   */\n      dup3\n        /* \"#utility.yul\":14694:14712   */\n      add\n        /* \"#utility.yul\":14686:14712   */\n      swap1\n      pop\n        /* \"#utility.yul\":14758:14767   */\n      dup2\n        /* \"#utility.yul\":14752:14756   */\n      dup2\n        /* \"#utility.yul\":14748:14768   */\n      sub\n        /* \"#utility.yul\":14744:14745   */\n      0x00\n        /* \"#utility.yul\":14733:14742   */\n      dup4\n        /* \"#utility.yul\":14729:14746   */\n      add\n        /* \"#utility.yul\":14722:14769   */\n      mstore\n        /* \"#utility.yul\":14786:14917   */\n      tag_329\n        /* \"#utility.yul\":14912:14916   */\n      dup2\n        /* \"#utility.yul\":14786:14917   */\n      tag_164\n      jump\t// in\n    tag_329:\n        /* \"#utility.yul\":14778:14917   */\n      swap1\n      pop\n        /* \"#utility.yul\":14505:14924   */\n      swap2\n      swap1\n      pop\n      jump\t// out\n        /* \"#utility.yul\":14930:15071   */\n    tag_165:\n        /* \"#utility.yul\":14979:14983   */\n      0x00\n        /* \"#utility.yul\":15002:15005   */\n      dup2\n        /* \"#utility.yul\":14994:15005   */\n      swap1\n      pop\n        /* \"#utility.yul\":15025:15028   */\n      dup2\n        /* \"#utility.yul\":15022:15023   */\n      0x00\n        /* \"#utility.yul\":15015:15029   */\n      mstore\n        /* \"#utility.yul\":15059:15063   */\n      0x20\n        /* \"#utility.yul\":15056:15057   */\n      0x00\n        /* \"#utility.yul\":15046:15064   */\n      keccak256\n        /* \"#utility.yul\":15038:15064   */\n      swap1\n      pop\n        /* \"#utility.yul\":14930:15071   */\n      swap2\n      swap1\n      pop\n      jump\t// out\n        /* \"#utility.yul\":15077:15170   */\n    tag_166:\n        /* \"#utility.yul\":15114:15120   */\n      0x00\n        /* \"#utility.yul\":15161:15163   */\n      0x20\n        /* \"#utility.yul\":15156:15158   */\n      0x1f\n        /* \"#utility.yul\":15149:15154   */\n      dup4\n        /* \"#utility.yul\":15145:15159   */\n      add\n        /* \"#utility.yul\":15141:15164   */\n      div\n        /* \"#utility.yul\":15131:15164   */\n      swap1\n      pop\n        /* \"#utility.yul\":15077:15170   */\n      swap2\n      swap1\n      pop\n      jump\t// out\n        /* \"#utility.yul\":15176:15283   */\n    tag_167:\n        /* \"#utility.yul\":15220:15228   */\n      0x00\n        /* \"#utility.yul\":15270:15275   */\n      dup3\n        /* \"#utility.yul\":15264:15268   */\n      dup3\n        /* \"#utility.yul\":15260:15276   */\n      shl\n        /* \"#utility.yul\":15239:15276   */\n      swap1\n      pop\n        /* \"#utility.yul\":15176:15283   */\n      swap3\n      swap2\n      pop\n      pop\n      jump\t// out\n        /* \"#utility.yul\":15289:15682   */\n    tag_168:\n        /* \"#utility.yul\":15358:15364   */\n      0x00\n        /* \"#utility.yul\":15408:15409   */\n      0x08\n        /* \"#utility.yul\":15396:15406   */\n      dup4\n        /* \"#utility.yul\":15392:15410   */\n      mul\n        /* \"#utility.yul\":15431:15528   */\n      tag_334\n        /* \"#utility.yul\":15461:15527   */\n      0xffffffffffffffffffffffffffffffffffffffffffffffffffffffffffffffff\n        /* \"#utility.yul\":15450:15459   */\n      dup3\n        /* \"#utility.yul\":15431:15528   */\n      tag_167\n      jump\t// in\n    tag_334:\n        /* \"#utility.yul\":15549:15588   */\n      tag_335\n        /* \"#utility.yul\":15579:15587   */\n      dup7\n        /* \"#utility.yul\":15568:15577   */\n      dup4\n        /* \"#utility.yul\":15549:15588   */\n      tag_167\n      jump\t// in\n    tag_335:\n        /* \"#utility.yul\":15537:15588   */\n      swap6\n      pop\n        /* \"#utility.yul\":15621:15625   */\n      dup1\n        /* \"#utility.yul\":15617:15626   */\n      not\n        /* \"#utility.yul\":15610:15615   */\n      dup5\n        /* \"#utility.yul\":15606:15627   */\n      and\n        /* \"#utility.yul\":15597:15627   */\n      swap4\n      pop\n        /* \"#utility.yul\":15670:15674   */\n      dup1\n        /* \"#utility.yul\":15660:15668   */\n      dup7\n        /* \"#utility.yul\":15656:15675   */\n      and\n        /* \"#utility.yul\":15649:15654   */\n      dup5\n        /* \"#utility.yul\":15646:15676   */\n      or\n        /* \"#utility.yul\":15636:15676   */\n      swap3\n      pop\n        /* \"#utility.yul\":15365:15682   */\n      pop\n      pop\n        /* \"#utility.yul\":15289:15682   */\n      swap4\n      swap3\n      pop\n      pop\n      pop\n      jump\t// out\n        /* \"#utility.yul\":15688:15748   */\n    tag_169:\n        /* \"#utility.yul\":15716:15719   */\n      0x00\n        /* \"#utility.yul\":15737:15742   */\n      dup2\n        /* \"#utility.yul\":15730:15742   */\n      swap1\n      pop\n        /* \"#utility.yul\":15688:15748   */\n      swap2\n      swap1\n      pop\n      jump\t// out\n        /* \"#utility.yul\":15754:15896   */\n    tag_170:\n        /* \"#utility.yul\":15804:15813   */\n      0x00\n        /* \"#utility.yul\":15837:15890   */\n      tag_338\n        /* \"#utility.yul\":15855:15889   */\n      tag_339\n        /* \"#utility.yul\":15864:15888   */\n      tag_340\n        /* \"#utility.yul\":15882:15887   */\n      dup5\n        /* \"#utility.yul\":15864:15888   */\n      tag_123\n      jump\t// in\n    tag_340:\n        /* \"#utility.yul\":15855:15889   */\n      tag_169\n      jump\t// in\n    tag_339:\n        /* \"#utility.yul\":15837:15890   */\n      tag_123\n      jump\t// in\n    tag_338:\n        /* \"#utility.yul\":15824:15890   */\n      swap1\n      pop\n        /* \"#utility.yul\":15754:15896   */\n      swap2\n      swap1\n      pop\n      jump\t// out\n        /* \"#utility.yul\":15902:15977   */\n    tag_171:\n        /* \"#utility.yul\":15945:15948   */\n      0x00\n        /* \"#utility.yul\":15966:15971   */\n      dup2\n        /* \"#utility.yul\":15959:15971   */\n      swap1\n      pop\n        /* \"#utility.yul\":15902:15977   */\n      swap2\n      swap1\n      pop\n      jump\t// out\n        /* \"#utility.yul\":15983:16252   */\n    tag_172:\n        /* \"#utility.yul\":16093:16132   */\n      tag_343\n        /* \"#utility.yul\":16124:16131   */\n      dup4\n        /* \"#utility.yul\":16093:16132   */\n      tag_170\n      jump\t// in\n    tag_343:\n        /* \"#utility.yul\":16154:16245   */\n      tag_344\n        /* \"#utility.yul\":16203:16244   */\n      tag_345\n        /* \"#utility.yul\":16227:16243   */\n      dup3\n        /* \"#utility.yul\":16203:16244   */\n      tag_171\n      jump\t// in\n    tag_345:\n        /* \"#utility.yul\":16195:16201   */\n      dup5\n        /* \"#utility.yul\":16188:16192   */\n      dup5\n        /* \"#utility.yul\":16182:16193   */\n      sload\n        /* \"#utility.yul\":16154:16245   */\n      tag_168\n      jump\t// in\n    tag_344:\n        /* \"#utility.yul\":16148:16152   */\n      dup3\n        /* \"#utility.yul\":16141:16246   */\n      sstore\n        /* \"#utility.yul\":16059:16252   */\n      pop\n        /* \"#utility.yul\":15983:16252   */\n      pop\n      pop\n      pop\n      jump\t// out\n        /* \"#utility.yul\":16258:16331   */\n    tag_173:\n        /* \"#utility.yul\":16303:16306   */\n      0x00\n        /* \"#utility.yul\":16324:16325   */\n      0x00\n        /* \"#utility.yul\":16317:16325   */\n      swap1\n      pop\n        /* \"#utility.yul\":16258:16331   */\n      swap1\n      jump\t// out\n        /* \"#utility.yul\":16337:16526   */\n    tag_174:\n        /* \"#utility.yul\":16414:16446   */\n      tag_348\n      tag_173\n      jump\t// in\n    tag_348:\n        /* \"#utility.yul\":16455:16520   */\n      tag_349\n        /* \"#utility.yul\":16513:16519   */\n      dup2\n        /* \"#utility.yul\":16505:16511   */\n      dup5\n        /* \"#utility.yul\":16499:16503   */\n      dup5\n        /* \"#utility.yul\":16455:16520   */\n      tag_172\n      jump\t// in\n    tag_349:\n        /* \"#utility.yul\":16390:16526   */\n      pop\n        /* \"#utility.yul\":16337:16526   */\n      pop\n      pop\n      jump\t// out\n        /* \"#utility.yul\":16532:16718   */\n    tag_175:\n        /* \"#utility.yul\":16592:16712   */\n    tag_351:\n        /* \"#utility.yul\":16609:16612   */\n      dup2\n        /* \"#utility.yul\":16602:16607   */\n      dup2\n        /* \"#utility.yul\":16599:16613   */\n      lt\n        /* \"#utility.yul\":16592:16712   */\n      iszero\n      tag_353\n      jumpi\n        /* \"#utility.yul\":16663:16702   */\n      tag_354\n        /* \"#utility.yul\":16700:16701   */\n      0x00\n        /* \"#utility.yul\":16693:16698   */\n      dup3\n        /* \"#utility.yul\":16663:16702   */\n      tag_174\n      jump\t// in\n    tag_354:\n        /* \"#utility.yul\":16636:16637   */\n      0x01\n        /* \"#utility.yul\":16629:16634   */\n      dup2\n        /* \"#utility.yul\":16625:16638   */\n      add\n        /* \"#utility.yul\":16616:16638   */\n      swap1\n      pop\n        /* \"#utility.yul\":16592:16712   */\n      jump(tag_351)\n    tag_353:\n        /* \"#utility.yul\":16532:16718   */\n      pop\n      pop\n      jump\t// out\n        /* \"#utility.yul\":16724:17267   */\n    tag_176:\n        /* \"#utility.yul\":16825:16827   */\n      0x1f\n        /* \"#utility.yul\":16820:16823   */\n      dup3\n        /* \"#utility.yul\":16817:16828   */\n      gt\n        /* \"#utility.yul\":16814:17260   */\n      iszero\n      tag_356\n      jumpi\n        /* \"#utility.yul\":16859:16897   */\n      tag_357\n        /* \"#utility.yul\":16891:16896   */\n      dup2\n        /* \"#utility.yul\":16859:16897   */\n      tag_165\n      jump\t// in\n    tag_357:\n        /* \"#utility.yul\":16943:16972   */\n      tag_358\n        /* \"#utility.yul\":16961:16971   */\n      dup5\n        /* \"#utility.yul\":16943:16972   */\n      tag_166\n      jump\t// in\n    tag_358:\n        /* \"#utility.yul\":16933:16941   */\n      dup2\n        /* \"#utility.yul\":16929:16973   */\n      add\n        /* \"#utility.yul\":17126:17128   */\n      0x20\n        /* \"#utility.yul\":17114:17124   */\n      dup6\n        /* \"#utility.yul\":17111:17129   */\n      lt\n        /* \"#utility.yul\":17108:17157   */\n      iszero\n      tag_359\n      jumpi\n        /* \"#utility.yul\":17147:17155   */\n      dup2\n        /* \"#utility.yul\":17132:17155   */\n      swap1\n      pop\n        /* \"#utility.yul\":17108:17157   */\n    tag_359:\n        /* \"#utility.yul\":17170:17250   */\n      tag_360\n        /* \"#utility.yul\":17226:17248   */\n      tag_361\n        /* \"#utility.yul\":17244:17247   */\n      dup6\n        /* \"#utility.yul\":17226:17248   */\n      tag_166\n      jump\t// in\n    tag_361:\n        /* \"#utility.yul\":17216:17224   */\n      dup4\n        /* \"#utility.yul\":17212:17249   */\n      add\n        /* \"#utility.yul\":17199:17210   */\n      dup3\n        /* \"#utility.yul\":17170:17250   */\n      tag_175\n      jump\t// in\n    tag_360:\n        /* \"#utility.yul\":16829:17260   */\n      pop\n      pop\n        /* \"#utility.yul\":16814:17260   */\n    tag_356:\n        /* \"#utility.yul\":16724:17267   */\n      pop\n      pop\n      pop\n      jump\t// out\n        /* \"#utility.yul\":17273:17390   */\n    tag_177:\n        /* \"#utility.yul\":17327:17335   */\n      0x00\n        /* \"#utility.yul\":17377:17382   */\n      dup3\n        /* \"#utility.yul\":17371:17375   */\n      dup3\n        /* \"#utility.yul\":17367:17383   */\n      shr\n        /* \"#utility.yul\":17346:17383   */\n      swap1\n      pop\n        /* \"#utility.yul\":17273:17390   */\n      swap3\n      swap2\n      pop\n      pop\n      jump\t// out\n        /* \"#utility.yul\":17396:17565   */\n    tag_178:\n        /* \"#utility.yul\":17440:17446   */\n      0x00\n        /* \"#utility.yul\":17473:17524   */\n      tag_364\n        /* \"#utility.yul\":17521:17522   */\n      0x00\n        /* \"#utility.yul\":17517:17523   */\n      not\n        /* \"#utility.yul\":17509:17514   */\n      dup5\n        /* \"#utility.yul\":17506:17507   */\n      0x08\n        /* \"#utility.yul\":17502:17515   */\n      mul\n        /* \"#utility.yul\":17473:17524   */\n      tag_177\n      jump\t// in\n    tag_364:\n        /* \"#utility.yul\":17469:17525   */\n      not\n        /* \"#utility.yul\":17554:17558   */\n      dup1\n        /* \"#utility.yul\":17548:17552   */\n      dup4\n        /* \"#utility.yul\":17544:17559   */\n      and\n        /* \"#utility.yul\":17534:17559   */\n      swap2\n      pop\n        /* \"#utility.yul\":17447:17565   */\n      pop\n        /* \"#utility.yul\":17396:17565   */\n      swap3\n      swap2\n      pop\n      pop\n      jump\t// out\n        /* \"#utility.yul\":17570:17865   */\n    tag_179:\n        /* \"#utility.yul\":17646:17650   */\n      0x00\n        /* \"#utility.yul\":17792:17821   */\n      tag_366\n        /* \"#utility.yul\":17817:17820   */\n      dup4\n        /* \"#utility.yul\":17811:17815   */\n      dup4\n        /* \"#utility.yul\":17792:17821   */\n      tag_178\n      jump\t// in\n    tag_366:\n        /* \"#utility.yul\":17784:17821   */\n      swap2\n      pop\n        /* \"#utility.yul\":17854:17857   */\n      dup3\n        /* \"#utility.yul\":17851:17852   */\n      0x02\n        /* \"#utility.yul\":17847:17858   */\n      mul\n        /* \"#utility.yul\":17841:17845   */\n      dup3\n        /* \"#utility.yul\":17838:17859   */\n      or\n        /* \"#utility.yul\":17830:17859   */\n      swap1\n      pop\n        /* \"#utility.yul\":17570:17865   */\n      swap3\n      swap2\n      pop\n      pop\n      jump\t// out\n        /* \"#utility.yul\":17870:19265   */\n    tag_101:\n        /* \"#utility.yul\":17987:18024   */\n      tag_368\n        /* \"#utility.yul\":18020:18023   */\n      dup3\n        /* \"#utility.yul\":17987:18024   */\n      tag_133\n      jump\t// in\n    tag_368:\n        /* \"#utility.yul\":18089:18107   */\n      0xffffffffffffffff\n        /* \"#utility.yul\":18081:18087   */\n      dup2\n        /* \"#utility.yul\":18078:18108   */\n      gt\n        /* \"#utility.yul\":18075:18131   */\n      iszero\n      tag_369\n      jumpi\n        /* \"#utility.yul\":18111:18129   */\n      tag_370\n      tag_143\n      jump\t// in\n    tag_370:\n        /* \"#utility.yul\":18075:18131   */\n    tag_369:\n        /* \"#utility.yul\":18155:18193   */\n      tag_371\n        /* \"#utility.yul\":18187:18191   */\n      dup3\n        /* \"#utility.yul\":18181:18192   */\n      sload\n        /* \"#utility.yul\":18155:18193   */\n      tag_84\n      jump\t// in\n    tag_371:\n        /* \"#utility.yul\":18240:18307   */\n      tag_372\n        /* \"#utility.yul\":18300:18306   */\n      dup3\n        /* \"#utility.yul\":18292:18298   */\n      dup3\n        /* \"#utility.yul\":18286:18290   */\n      dup6\n        /* \"#utility.yul\":18240:18307   */\n      tag_176\n      jump\t// in\n    tag_372:\n        /* \"#utility.yul\":18334:18335   */\n      0x00\n        /* \"#utility.yul\":18358:18362   */\n      0x20\n        /* \"#utility.yul\":18345:18362   */\n      swap1\n      pop\n        /* \"#utility.yul\":18390:18392   */\n      0x1f\n        /* \"#utility.yul\":18382:18388   */\n      dup4\n        /* \"#utility.yul\":18379:18393   */\n      gt\n        /* \"#utility.yul\":18407:18408   */\n      0x01\n        /* \"#utility.yul\":18402:19020   */\n      dup2\n      eq\n      tag_374\n      jumpi\n        /* \"#utility.yul\":19064:19065   */\n      0x00\n        /* \"#utility.yul\":19081:19087   */\n      dup5\n        /* \"#utility.yul\":19078:19155   */\n      iszero\n      tag_375\n      jumpi\n        /* \"#utility.yul\":19130:19139   */\n      dup3\n        /* \"#utility.yul\":19125:19128   */\n      dup8\n        /* \"#utility.yul\":19121:19140   */\n      add\n        /* \"#utility.yul\":19115:19141   */\n      mload\n        /* \"#utility.yul\":19106:19141   */\n      swap1\n      pop\n        /* \"#utility.yul\":19078:19155   */\n    tag_375:\n        /* \"#utility.yul\":19181:19248   */\n      tag_376\n        /* \"#utility.yul\":19241:19247   */\n      dup6\n        /* \"#utility.yul\":19234:19239   */\n      dup3\n        /* \"#utility.yul\":19181:19248   */\n      tag_179\n      jump\t// in\n    tag_376:\n        /* \"#utility.yul\":19175:19179   */\n      dup7\n        /* \"#utility.yul\":19168:19249   */\n      sstore\n        /* \"#utility.yul\":19037:19259   */\n      pop\n        /* \"#utility.yul\":18372:19259   */\n      jump(tag_373)\n        /* \"#utility.yul\":18402:19020   */\n    tag_374:\n        /* \"#utility.yul\":18454:18458   */\n      0x1f\n        /* \"#utility.yul\":18450:18459   */\n      not\n        /* \"#utility.yul\":18442:18448   */\n      dup5\n        /* \"#utility.yul\":18438:18460   */\n      and\n        /* \"#utility.yul\":18488:18525   */\n      tag_377\n        /* \"#utility.yul\":18520:18524   */\n      dup7\n        /* \"#utility.yul\":18488:18525   */\n      tag_165\n      jump\t// in\n    tag_377:\n        /* \"#utility.yul\":18547:18548   */\n      0x00\n        /* \"#utility.yul\":18561:18769   */\n    tag_378:\n        /* \"#utility.yul\":18575:18582   */\n      dup3\n        /* \"#utility.yul\":18572:18573   */\n      dup2\n        /* \"#utility.yul\":18569:18583   */\n      lt\n        /* \"#utility.yul\":18561:18769   */\n      iszero\n      tag_380\n      jumpi\n        /* \"#utility.yul\":18654:18663   */\n      dup5\n        /* \"#utility.yul\":18649:18652   */\n      dup10\n        /* \"#utility.yul\":18645:18664   */\n      add\n        /* \"#utility.yul\":18639:18665   */\n      mload\n        /* \"#utility.yul\":18631:18637   */\n      dup3\n        /* \"#utility.yul\":18624:18666   */\n      sstore\n        /* \"#utility.yul\":18705:18706   */\n      0x01\n        /* \"#utility.yul\":18697:18703   */\n      dup3\n        /* \"#utility.yul\":18693:18707   */\n      add\n        /* \"#utility.yul\":18683:18707   */\n      swap2\n      pop\n        /* \"#utility.yul\":18752:18754   */\n      0x20\n        /* \"#utility.yul\":18741:18750   */\n      dup6\n        /* \"#utility.yul\":18737:18755   */\n      add\n        /* \"#utility.yul\":18724:18755   */\n      swap5\n      pop\n        /* \"#utility.yul\":18598:18602   */\n      0x20\n        /* \"#utility.yul\":18595:18596   */\n      dup2\n        /* \"#utility.yul\":18591:18603   */\n      add\n        /* \"#utility.yul\":18586:18603   */\n      swap1\n      pop\n        /* \"#utility.yul\":18561:18769   */\n      jump(tag_378)\n    tag_380:\n        /* \"#utility.yul\":18797:18803   */\n      dup7\n        /* \"#utility.yul\":18788:18795   */\n      dup4\n        /* \"#utility.yul\":18785:18804   */\n      lt\n        /* \"#utility.yul\":18782:18961   */\n      iszero\n      tag_381\n      jumpi\n        /* \"#utility.yul\":18855:18864   */\n      dup5\n        /* \"#utility.yul\":18850:18853   */\n      dup10\n        /* \"#utility.yul\":18846:18865   */\n      add\n        /* \"#utility.yul\":18840:18866   */\n      mload\n        /* \"#utility.yul\":18898:18946   */\n      tag_382\n        /* \"#utility.yul\":18940:18944   */\n      0x1f\n        /* \"#utility.yul\":18932:18938   */\n      dup10\n        /* \"#utility.yul\":18928:18945   */\n      and\n        /* \"#utility.yul\":18917:18926   */\n      dup3\n        /* \"#utility.yul\":18898:18946   */\n      tag_178\n      jump\t// in\n    tag_382:\n        /* \"#utility.yul\":18890:18896   */\n      dup4\n        /* \"#utility.yul\":18883:18947   */\n      sstore\n        /* \"#utility.yul\":18805:18961   */\n      pop\n        /* \"#utility.yul\":18782:18961   */\n    tag_381:\n        /* \"#utility.yul\":19007:19008   */\n      0x01\n        /* \"#utility.yul\":19003:19004   */\n      0x02\n        /* \"#utility.yul\":18995:19001   */\n      dup9\n        /* \"#utility.yul\":18991:19005   */\n      mul\n        /* \"#utility.yul\":18987:19009   */\n      add\n        /* \"#utility.yul\":18981:18985   */\n      dup9\n        /* \"#utility.yul\":18974:19010   */\n      sstore\n        /* \"#utility.yul\":18409:19020   */\n      pop\n      pop\n      pop\n        /* \"#utility.yul\":18372:19259   */\n    tag_373:\n      pop\n        /* \"#utility.yul\":17962:19265   */\n      pop\n      pop\n      pop\n        /* \"#utility.yul\":17870:19265   */\n      pop\n      pop\n      jump\t// out\n        /* \"#utility.yul\":19271:19506   */\n    tag_180:\n        /* \"#utility.yul\":19411:19445   */\n      0x436f6e747269627574696f6e206d757374206265206174206c65617374207468\n        /* \"#utility.yul\":19407:19408   */\n      0x00\n        /* \"#utility.yul\":19399:19405   */\n      dup3\n        /* \"#utility.yul\":19395:19409   */\n      add\n        /* \"#utility.yul\":19388:19446   */\n      mstore\n        /* \"#utility.yul\":19480:19498   */\n      0x65206d696e696d756d20616d6f756e7400000000000000000000000000000000\n        /* \"#utility.yul\":19475:19477   */\n      0x20\n        /* \"#utility.yul\":19467:19473   */\n      dup3\n        /* \"#utility.yul\":19463:19478   */\n      add\n        /* \"#utility.yul\":19456:19499   */\n      mstore\n        /* \"#utility.yul\":19271:19506   */\n      pop\n      jump\t// out\n        /* \"#utility.yul\":19512:19878   */\n    tag_181:\n        /* \"#utility.yul\":19654:19657   */\n      0x00\n        /* \"#utility.yul\":19675:19742   */\n      tag_385\n        /* \"#utility.yul\":19739:19741   */\n      0x30\n        /* \"#utility.yul\":19734:19737   */\n      dup4\n        /* \"#utility.yul\":19675:19742   */\n      tag_134\n      jump\t// in\n    tag_385:\n        /* \"#utility.yul\":19668:19742   */\n      swap2\n      pop\n        /* \"#utility.yul\":19751:19844   */\n      tag_386\n        /* \"#utility.yul\":19840:19843   */\n      dup3\n        /* \"#utility.yul\":19751:19844   */\n      tag_180\n      jump\t// in\n    tag_386:\n        /* \"#utility.yul\":19869:19871   */\n      0x40\n        /* \"#utility.yul\":19864:19867   */\n      dup3\n        /* \"#utility.yul\":19860:19872   */\n      add\n        /* \"#utility.yul\":19853:19872   */\n      swap1\n      pop\n        /* \"#utility.yul\":19512:19878   */\n      swap2\n      swap1\n      pop\n      jump\t// out\n        /* \"#utility.yul\":19884:20303   */\n    tag_105:\n        /* \"#utility.yul\":20050:20054   */\n      0x00\n        /* \"#utility.yul\":20088:20090   */\n      0x20\n        /* \"#utility.yul\":20077:20086   */\n      dup3\n        /* \"#utility.yul\":20073:20091   */\n      add\n        /* \"#utility.yul\":20065:20091   */\n      swap1\n      pop\n        /* \"#utility.yul\":20137:20146   */\n      dup2\n        /* \"#utility.yul\":20131:20135   */\n      dup2\n        /* \"#utility.yul\":20127:20147   */\n      sub\n        /* \"#utility.yul\":20123:20124   */\n      0x00\n        /* \"#utility.yul\":20112:20121   */\n      dup4\n        /* \"#utility.yul\":20108:20125   */\n      add\n        /* \"#utility.yul\":20101:20148   */\n      mstore\n        /* \"#utility.yul\":20165:20296   */\n      tag_388\n        /* \"#utility.yul\":20291:20295   */\n      dup2\n        /* \"#utility.yul\":20165:20296   */\n      tag_181\n      jump\t// in\n    tag_388:\n        /* \"#utility.yul\":20157:20296   */\n      swap1\n      pop\n        /* \"#utility.yul\":19884:20303   */\n      swap2\n      swap1\n      pop\n      jump\t// out\n        /* \"#utility.yul\":20309:20542   */\n    tag_108:\n        /* \"#utility.yul\":20348:20351   */\n      0x00\n        /* \"#utility.yul\":20371:20395   */\n      tag_390\n        /* \"#utility.yul\":20389:20394   */\n      dup3\n        /* \"#utility.yul\":20371:20395   */\n      tag_123\n      jump\t// in\n    tag_390:\n        /* \"#utility.yul\":20362:20395   */\n      swap2\n      pop\n        /* \"#utility.yul\":20417:20483   */\n      0xffffffffffffffffffffffffffffffffffffffffffffffffffffffffffffffff\n        /* \"#utility.yul\":20410:20415   */\n      dup3\n        /* \"#utility.yul\":20407:20484   */\n      sub\n        /* \"#utility.yul\":20404:20507   */\n      tag_391\n      jumpi\n        /* \"#utility.yul\":20487:20505   */\n      tag_392\n      tag_155\n      jump\t// in\n    tag_392:\n        /* \"#utility.yul\":20404:20507   */\n    tag_391:\n        /* \"#utility.yul\":20534:20535   */\n      0x01\n        /* \"#utility.yul\":20527:20532   */\n      dup3\n        /* \"#utility.yul\":20523:20536   */\n      add\n        /* \"#utility.yul\":20516:20536   */\n      swap1\n      pop\n        /* \"#utility.yul\":20309:20542   */\n      swap2\n      swap1\n      pop\n      jump\t// out\n        /* \"#utility.yul\":20548:20773   */\n    tag_182:\n        /* \"#utility.yul\":20688:20722   */\n      0x4f6e6c7920636f6e7472696275746f72732063616e20617070726f7665207265\n        /* \"#utility.yul\":20684:20685   */\n      0x00\n        /* \"#utility.yul\":20676:20682   */\n      dup3\n        /* \"#utility.yul\":20672:20686   */\n      add\n        /* \"#utility.yul\":20665:20723   */\n      mstore\n        /* \"#utility.yul\":20757:20765   */\n      0x7175657374730000000000000000000000000000000000000000000000000000\n        /* \"#utility.yul\":20752:20754   */\n      0x20\n        /* \"#utility.yul\":20744:20750   */\n      dup3\n        /* \"#utility.yul\":20740:20755   */\n      add\n        /* \"#utility.yul\":20733:20766   */\n      mstore\n        /* \"#utility.yul\":20548:20773   */\n      pop\n      jump\t// out\n        /* \"#utility.yul\":20779:21145   */\n    tag_183:\n        /* \"#utility.yul\":20921:20924   */\n      0x00\n        /* \"#utility.yul\":20942:21009   */\n      tag_395\n        /* \"#utility.yul\":21006:21008   */\n      0x26\n        /* \"#utility.yul\":21001:21004   */\n      dup4\n        /* \"#utility.yul\":20942:21009   */\n      tag_134\n      jump\t// in\n    tag_395:\n        /* \"#utility.yul\":20935:21009   */\n      swap2\n      pop\n        /* \"#utility.yul\":21018:21111   */\n      tag_396\n        /* \"#utility.yul\":21107:21110   */\n      dup3\n        /* \"#utility.yul\":21018:21111   */\n      tag_182\n      jump\t// in\n    tag_396:\n        /* \"#utility.yul\":21136:21138   */\n      0x40\n        /* \"#utility.yul\":21131:21134   */\n      dup3\n        /* \"#utility.yul\":21127:21139   */\n      add\n        /* \"#utility.yul\":21120:21139   */\n      swap1\n      pop\n        /* \"#utility.yul\":20779:21145   */\n      swap2\n      swap1\n      pop\n      jump\t// out\n        /* \"#utility.yul\":21151:21570   */\n    tag_112:\n        /* \"#utility.yul\":21317:21321   */\n      0x00\n        /* \"#utility.yul\":21355:21357   */\n      0x20\n        /* \"#utility.yul\":21344:21353   */\n      dup3\n        /* \"#utility.yul\":21340:21358   */\n      add\n        /* \"#utility.yul\":21332:21358   */\n      swap1\n      pop\n        /* \"#utility.yul\":21404:21413   */\n      dup2\n        /* \"#utility.yul\":21398:21402   */\n      dup2\n        /* \"#utility.yul\":21394:21414   */\n      sub\n        /* \"#utility.yul\":21390:21391   */\n      0x00\n        /* \"#utility.yul\":21379:21388   */\n      dup4\n        /* \"#utility.yul\":21375:21392   */\n      add\n        /* \"#utility.yul\":21368:21415   */\n      mstore\n        /* \"#utility.yul\":21432:21563   */\n      tag_398\n        /* \"#utility.yul\":21558:21562   */\n      dup2\n        /* \"#utility.yul\":21432:21563   */\n      tag_183\n      jump\t// in\n    tag_398:\n        /* \"#utility.yul\":21424:21563   */\n      swap1\n      pop\n        /* \"#utility.yul\":21151:21570   */\n      swap2\n      swap1\n      pop\n      jump\t// out\n        /* \"#utility.yul\":21576:21801   */\n    tag_184:\n        /* \"#utility.yul\":21716:21750   */\n      0x596f75206861766520616c726561647920617070726f76656420746869732072\n        /* \"#utility.yul\":21712:21713   */\n      0x00\n        /* \"#utility.yul\":21704:21710   */\n      dup3\n        /* \"#utility.yul\":21700:21714   */\n      add\n        /* \"#utility.yul\":21693:21751   */\n      mstore\n        /* \"#utility.yul\":21785:21793   */\n      0x6571756573740000000000000000000000000000000000000000000000000000\n        /* \"#utility.yul\":21780:21782   */\n      0x20\n        /* \"#utility.yul\":21772:21778   */\n      dup3\n        /* \"#utility.yul\":21768:21783   */\n      add\n        /* \"#utility.yul\":21761:21794   */\n      mstore\n        /* \"#utility.yul\":21576:21801   */\n      pop\n      jump\t// out\n        /* \"#utility.yul\":21807:22173   */\n    tag_185:\n        /* \"#utility.yul\":21949:21952   */\n      0x00\n        /* \"#utility.yul\":21970:22037   */\n      tag_401\n        /* \"#utility.yul\":22034:22036   */\n      0x26\n        /* \"#utility.yul\":22029:22032   */\n      dup4\n        /* \"#utility.yul\":21970:22037   */\n      tag_134\n      jump\t// in\n    tag_401:\n        /* \"#utility.yul\":21963:22037   */\n      swap2\n      pop\n        /* \"#utility.yul\":22046:22139   */\n      tag_402\n        /* \"#utility.yul\":22135:22138   */\n      dup3\n        /* \"#utility.yul\":22046:22139   */\n      tag_184\n      jump\t// in\n    tag_402:\n        /* \"#utility.yul\":22164:22166   */\n      0x40\n        /* \"#utility.yul\":22159:22162   */\n      dup3\n        /* \"#utility.yul\":22155:22167   */\n      add\n        /* \"#utility.yul\":22148:22167   */\n      swap1\n      pop\n        /* \"#utility.yul\":21807:22173   */\n      swap2\n      swap1\n      pop\n      jump\t// out\n        /* \"#utility.yul\":22179:22598   */\n    tag_115:\n        /* \"#utility.yul\":22345:22349   */\n      0x00\n        /* \"#utility.yul\":22383:22385   */\n      0x20\n        /* \"#utility.yul\":22372:22381   */\n      dup3\n        /* \"#utility.yul\":22368:22386   */\n      add\n        /* \"#utility.yul\":22360:22386   */\n      swap1\n      pop\n        /* \"#utility.yul\":22432:22441   */\n      dup2\n        /* \"#utility.yul\":22426:22430   */\n      dup2\n        /* \"#utility.yul\":22422:22442   */\n      sub\n        /* \"#utility.yul\":22418:22419   */\n      0x00\n        /* \"#utility.yul\":22407:22416   */\n      dup4\n        /* \"#utility.yul\":22403:22420   */\n      add\n        /* \"#utility.yul\":22396:22443   */\n      mstore\n        /* \"#utility.yul\":22460:22591   */\n      tag_404\n        /* \"#utility.yul\":22586:22590   */\n      dup2\n        /* \"#utility.yul\":22460:22591   */\n      tag_185\n      jump\t// in\n    tag_404:\n        /* \"#utility.yul\":22452:22591   */\n      swap1\n      pop\n        /* \"#utility.yul\":22179:22598   */\n      swap2\n      swap1\n      pop\n      jump\t// out\n\n    auxdata: 0xa26469706673582212207966471dbb3c61bdc5f347b00028a83137c517e2464719966396357c46c5de1064736f6c634300081c0033\n}\n","bytecode":{"linkReferences":{},"object":"608060405234801561000f575f5ffd5b5060405161185338038061185383398181016040528101906100319190610110565b8060015f6101000a81548173ffffffffffffffffffffffffffffffffffffffff021916908373ffffffffffffffffffffffffffffffffffffffff16021790555081600281905550505061014e565b5f5ffd5b5f819050919050565b61009581610083565b811461009f575f5ffd5b50565b5f815190506100b08161008c565b92915050565b5f73ffffffffffffffffffffffffffffffffffffffff82169050919050565b5f6100df826100b6565b9050919050565b6100ef816100d5565b81146100f9575f5ffd5b50565b5f8151905061010a816100e6565b92915050565b5f5f604083850312156101265761012561007f565b5b5f610133858286016100a2565b9250506020610144858286016100fc565b9150509250929050565b6116f88061015b5f395ff3fe608060405260043610610090575f3560e01c80638a9cfd55116100585780638a9cfd551461018c578063937e09b1146101b4578063ab2850da146101de578063d7bb99ba1461021a578063d7d1bbdb1461022457610090565b806303441006146100945780630a144391146100bc578063481c6a75146100f857806381d12c581461012257806382fde09314610162575b5f5ffd5b34801561009f575f5ffd5b506100ba60048036038101906100b59190610adf565b61024c565b005b3480156100c7575f5ffd5b506100e260048036038101906100dd9190610b64565b61042f565b6040516100ef9190610ba9565b60405180910390f35b348015610103575f5ffd5b5061010c61044c565b6040516101199190610bd1565b60405180910390f35b34801561012d575f5ffd5b5061014860048036038101906101439190610adf565b610471565b604051610159959493929190610c89565b60405180910390f35b34801561016d575f5ffd5b50610176610563565b6040516101839190610ce1565b60405180910390f35b348015610197575f5ffd5b506101b260048036038101906101ad9190610e50565b610569565b005b3480156101bf575f5ffd5b506101c86107a9565b6040516101d59190610ce1565b60405180910390f35b3480156101e9575f5ffd5b5061020460048036038101906101ff9190610ebc565b6107af565b6040516102119190610ba9565b60405180910390f35b6102226107d9565b005b34801561022f575f5ffd5b5061024a60048036038101906102459190610adf565b6108db565b005b60015f9054906101000a900473ffffffffffffffffffffffffffffffffffffffff1673ffffffffffffffffffffffffffffffffffffffff163373ffffffffffffffffffffffffffffffffffffffff16146102db576040517f08c379a00000000000000000000000000000000000000000000000000000000081526004016102d290610f6a565b60405180910390fd5b5f5f82815481106102ef576102ee610f88565b5b905f5260205f2090600402019050600260045461030c919061100f565b816003015411610351576040517f08c379a000000000000000000000000000000000000000000000000000000000815260040161034890611089565b60405180910390fd5b8060020160149054906101000a900460ff16156103a3576040517f08c379a000000000000000000000000000000000000000000000000000000000815260040161039a906110f1565b60405180910390fd5b806002015f9054906101000a900473ffffffffffffffffffffffffffffffffffffffff1673ffffffffffffffffffffffffffffffffffffffff166108fc826001015490811502906040515f60405180830381858888f1935050505015801561040d573d5f5f3e3d5ffd5b5060018160020160146101000a81548160ff0219169083151502179055505050565b6003602052805f5260405f205f915054906101000a900460ff1681565b60015f9054906101000a900473ffffffffffffffffffffffffffffffffffffffff1681565b5f818154811061047f575f80fd5b905f5260205f2090600402015f91509050805f01805461049e9061113c565b80601f01602080910402602001604051908101604052809291908181526020018280546104ca9061113c565b80156105155780601f106104ec57610100808354040283529160200191610515565b820191905f5260205f20905b8154815290600101906020018083116104f857829003601f168201915b505050505090806001015490806002015f9054906101000a900473ffffffffffffffffffffffffffffffffffffffff16908060020160149054906101000a900460ff16908060030154905085565b60045481565b60015f9054906101000a900473ffffffffffffffffffffffffffffffffffffffff1673ffffffffffffffffffffffffffffffffffffffff163373ffffffffffffffffffffffffffffffffffffffff16146105f8576040517f08c379a00000000000000000000000000000000000000000000000000000000081526004016105ef90610f6a565b60405180910390fd5b4782111561063b576040517f08c379a0000000000000000000000000000000000000000000000000000000008152600401610632906111dc565b60405180910390fd5b5f73ffffffffffffffffffffffffffffffffffffffff168173ffffffffffffffffffffffffffffffffffffffff16036106a9576040517f08c379a00000000000000000000000000000000000000000000000000000000081526004016106a090611244565b60405180910390fd5b5f6040518060a001604052808581526020018481526020018373ffffffffffffffffffffffffffffffffffffffff1681526020015f151581526020015f81525090505f81908060018154018082558091505060019003905f5260205f2090600402015f909190919091505f820151815f0190816107269190611402565b50602082015181600101556040820151816002015f6101000a81548173ffffffffffffffffffffffffffffffffffffffff021916908373ffffffffffffffffffffffffffffffffffffffff16021790555060608201518160020160146101000a81548160ff02191690831515021790555060808201518160030155505050505050565b60025481565b6005602052815f5260405f20602052805f5260405f205f915091509054906101000a900460ff1681565b60025434101561081e576040517f08c379a000000000000000000000000000000000000000000000000000000000815260040161081590611541565b60405180910390fd5b60035f3373ffffffffffffffffffffffffffffffffffffffff1673ffffffffffffffffffffffffffffffffffffffff1681526020019081526020015f205f9054906101000a900460ff166108d957600160035f3373ffffffffffffffffffffffffffffffffffffffff1673ffffffffffffffffffffffffffffffffffffffff1681526020019081526020015f205f6101000a81548160ff02191690831515021790555060045f8154809291906108d39061155f565b91905055505b565b60035f3373ffffffffffffffffffffffffffffffffffffffff1673ffffffffffffffffffffffffffffffffffffffff1681526020019081526020015f205f9054906101000a900460ff16610964576040517f08c379a000000000000000000000000000000000000000000000000000000000815260040161095b90611616565b60405180910390fd5b60055f8281526020019081526020015f205f3373ffffffffffffffffffffffffffffffffffffffff1673ffffffffffffffffffffffffffffffffffffffff1681526020019081526020015f205f9054906101000a900460ff16156109fd576040517f08c379a00000000000000000000000000000000000000000000000000000000081526004016109f4906116a4565b60405180910390fd5b600160055f8381526020019081526020015f205f3373ffffffffffffffffffffffffffffffffffffffff1673ffffffffffffffffffffffffffffffffffffffff1681526020019081526020015f205f6101000a81548160ff0219169083151502179055505f8181548110610a7457610a73610f88565b5b905f5260205f2090600402016003015f815480929190610a939061155f565b919050555050565b5f604051905090565b5f5ffd5b5f5ffd5b5f819050919050565b610abe81610aac565b8114610ac8575f5ffd5b50565b5f81359050610ad981610ab5565b92915050565b5f60208284031215610af457610af3610aa4565b5b5f610b0184828501610acb565b91505092915050565b5f73ffffffffffffffffffffffffffffffffffffffff82169050919050565b5f610b3382610b0a565b9050919050565b610b4381610b29565b8114610b4d575f5ffd5b50565b5f81359050610b5e81610b3a565b92915050565b5f60208284031215610b7957610b78610aa4565b5b5f610b8684828501610b50565b91505092915050565b5f8115159050919050565b610ba381610b8f565b82525050565b5f602082019050610bbc5f830184610b9a565b92915050565b610bcb81610b29565b82525050565b5f602082019050610be45f830184610bc2565b92915050565b5f81519050919050565b5f82825260208201905092915050565b8281835e5f83830152505050565b5f601f19601f8301169050919050565b5f610c2c82610bea565b610c368185610bf4565b9350610c46818560208601610c04565b610c4f81610c12565b840191505092915050565b610c6381610aac565b82525050565b5f610c7382610b0a565b9050919050565b610c8381610c69565b82525050565b5f60a0820190508181035f830152610ca18188610c22565b9050610cb06020830187610c5a565b610cbd6040830186610c7a565b610cca6060830185610b9a565b610cd76080830184610c5a565b9695505050505050565b5f602082019050610cf45f830184610c5a565b92915050565b5f5ffd5b5f5ffd5b7f4e487b71000000000000000000000000000000000000000000000000000000005f52604160045260245ffd5b610d3882610c12565b810181811067ffffffffffffffff82111715610d5757610d56610d02565b5b80604052505050565b5f610d69610a9b565b9050610d758282610d2f565b919050565b5f67ffffffffffffffff821115610d9457610d93610d02565b5b610d9d82610c12565b9050602081019050919050565b828183375f83830152505050565b5f610dca610dc584610d7a565b610d60565b905082815260208101848484011115610de657610de5610cfe565b5b610df1848285610daa565b509392505050565b5f82601f830112610e0d57610e0c610cfa565b5b8135610e1d848260208601610db8565b91505092915050565b610e2f81610c69565b8114610e39575f5ffd5b50565b5f81359050610e4a81610e26565b92915050565b5f5f5f60608486031215610e6757610e66610aa4565b5b5f84013567ffffffffffffffff811115610e8457610e83610aa8565b5b610e9086828701610df9565b9350506020610ea186828701610acb565b9250506040610eb286828701610e3c565b9150509250925092565b5f5f60408385031215610ed257610ed1610aa4565b5b5f610edf85828601610acb565b9250506020610ef085828601610b50565b9150509250929050565b7f4f6e6c7920746865206d616e616765722063616e2063616c6c207468697320665f8201527f756e6374696f6e00000000000000000000000000000000000000000000000000602082015250565b5f610f54602783610bf4565b9150610f5f82610efa565b604082019050919050565b5f6020820190508181035f830152610f8181610f48565b9050919050565b7f4e487b71000000000000000000000000000000000000000000000000000000005f52603260045260245ffd5b7f4e487b71000000000000000000000000000000000000000000000000000000005f52601260045260245ffd5b7f4e487b71000000000000000000000000000000000000000000000000000000005f52601160045260245ffd5b5f61101982610aac565b915061102483610aac565b92508261103457611033610fb5565b5b828204905092915050565b7f4d616a6f7269747920617070726f76616c2072657175697265640000000000005f82015250565b5f611073601a83610bf4565b915061107e8261103f565b602082019050919050565b5f6020820190508181035f8301526110a081611067565b9050919050565b7f5265717565737420616c726561647920636f6d706c65746564000000000000005f82015250565b5f6110db601983610bf4565b91506110e6826110a7565b602082019050919050565b5f6020820190508181035f830152611108816110cf565b9050919050565b7f4e487b71000000000000000000000000000000000000000000000000000000005f52602260045260245ffd5b5f600282049050600182168061115357607f821691505b6020821081036111665761116561110f565b5b50919050565b7f496e73756666696369656e742062616c616e636520696e207468652063616d705f8201527f6169676e00000000000000000000000000000000000000000000000000000000602082015250565b5f6111c6602483610bf4565b91506111d18261116c565b604082019050919050565b5f6020820190508181035f8301526111f3816111ba565b9050919050565b7f526563697069656e7420616464726573732063616e6e6f74206265207a65726f5f82015250565b5f61122e602083610bf4565b9150611239826111fa565b602082019050919050565b5f6020820190508181035f83015261125b81611222565b9050919050565b5f819050815f5260205f209050919050565b5f6020601f8301049050919050565b5f82821b905092915050565b5f600883026112be7fffffffffffffffffffffffffffffffffffffffffffffffffffffffffffffffff82611283565b6112c88683611283565b95508019841693508086168417925050509392505050565b5f819050919050565b5f6113036112fe6112f984610aac565b6112e0565b610aac565b9050919050565b5f819050919050565b61131c836112e9565b6113306113288261130a565b84845461128f565b825550505050565b5f5f905090565b611347611338565b611352818484611313565b505050565b5b818110156113755761136a5f8261133f565b600181019050611358565b5050565b601f8211156113ba5761138b81611262565b61139484611274565b810160208510156113a3578190505b6113b76113af85611274565b830182611357565b50505b505050565b5f82821c905092915050565b5f6113da5f19846008026113bf565b1980831691505092915050565b5f6113f283836113cb565b9150826002028217905092915050565b61140b82610bea565b67ffffffffffffffff81111561142457611423610d02565b5b61142e825461113c565b611439828285611379565b5f60209050601f83116001811461146a575f8415611458578287015190505b61146285826113e7565b8655506114c9565b601f19841661147886611262565b5f5b8281101561149f5784890151825560018201915060208501945060208101905061147a565b868310156114bc57848901516114b8601f8916826113cb565b8355505b6001600288020188555050505b505050505050565b7f436f6e747269627574696f6e206d757374206265206174206c656173742074685f8201527f65206d696e696d756d20616d6f756e7400000000000000000000000000000000602082015250565b5f61152b603083610bf4565b9150611536826114d1565b604082019050919050565b5f6020820190508181035f8301526115588161151f565b9050919050565b5f61156982610aac565b91507fffffffffffffffffffffffffffffffffffffffffffffffffffffffffffffffff820361159b5761159a610fe2565b5b600182019050919050565b7f4f6e6c7920636f6e7472696275746f72732063616e20617070726f76652072655f8201527f7175657374730000000000000000000000000000000000000000000000000000602082015250565b5f611600602683610bf4565b915061160b826115a6565b604082019050919050565b5f6020820190508181035f83015261162d816115f4565b9050919050565b7f596f75206861766520616c726561647920617070726f766564207468697320725f8201527f6571756573740000000000000000000000000000000000000000000000000000602082015250565b5f61168e602683610bf4565b915061169982611634565b604082019050919050565b5f6020820190508181035f8301526116bb81611682565b905091905056fea26469706673582212207966471dbb3c61bdc5f347b00028a83137c517e2464719966396357c46c5de1064736f6c634300081c0033","opcodes":"PUSH1 0x80 PUSH1 0x40 MSTORE CALLVALUE DUP1 ISZERO PUSH2 0xF JUMPI PUSH0 PUSH0 REVERT JUMPDEST POP PUSH1 0x40 MLOAD PUSH2 0x1853 CODESIZE SUB DUP1 PUSH2 0x1853 DUP4 CODECOPY DUP2 DUP2 ADD PUSH1 0x40 MSTORE DUP2 ADD SWAP1 PUSH2 0x31 SWAP2 SWAP1 PUSH2 0x110 JUMP JUMPDEST DUP1 PUSH1 0x1 PUSH0 PUSH2 0x100 EXP DUP2 SLOAD DUP2 PUSH20 0xFFFFFFFFFFFFFFFFFFFFFFFFFFFFFFFFFFFFFFFF MUL NOT AND SWAP1 DUP4 PUSH20 0xFFFFFFFFFFFFFFFFFFFFFFFFFFFFFFFFFFFFFFFF AND MUL OR SWAP1 SSTORE POP DUP2 PUSH1 0x2 DUP2 SWAP1 SSTORE POP POP POP PUSH2 0x14E JUMP JUMPDEST PUSH0 PUSH0 REVERT JUMPDEST PUSH0 DUP2 SWAP1 POP SWAP2 SWAP1 POP JUMP JUMPDEST PUSH2 0x95 DUP2 PUSH2 0x83 JUMP JUMPDEST DUP2 EQ PUSH2 0x9F JUMPI PUSH0 PUSH0 REVERT JUMPDEST POP JUMP JUMPDEST PUSH0 DUP2 MLOAD SWAP1 POP PUSH2 0xB0 DUP2 PUSH2 0x8C JUMP JUMPDEST SWAP3 SWAP2 POP POP JUMP JUMPDEST PUSH0 PUSH20 0xFFFFFFFFFFFFFFFFFFFFFFFFFFFFFFFFFFFFFFFF DUP3 AND SWAP1 POP SWAP2 SWAP1 POP JUMP JUMPDEST PUSH0 PUSH2 0xDF DUP3 PUSH2 0xB6 JUMP JUMPDEST SWAP1 POP SWAP2 SWAP1 POP JUMP JUMPDEST PUSH2 0xEF DUP2 PUSH2 0xD5 JUMP JUMPDEST DUP2 EQ PUSH2 0xF9 JUMPI PUSH0 PUSH0 REVERT JUMPDEST POP JUMP JUMPDEST PUSH0 DUP2 MLOAD SWAP1 POP PUSH2 0x10A DUP2 PUSH2 0xE6 JUMP JUMPDEST SWAP3 SWAP2 POP POP JUMP JUMPDEST PUSH0 PUSH0 PUSH1 0x40 DUP4 DUP6 SUB SLT ISZERO PUSH2 0x126 JUMPI PUSH2 0x125 PUSH2 0x7F JUMP JUMPDEST JUMPDEST PUSH0 PUSH2 0x133 DUP6 DUP3 DUP7 ADD PUSH2 0xA2 JUMP JUMPDEST SWAP3 POP POP PUSH1 0x20 PUSH2 0x144 DUP6 DUP3 DUP7 ADD PUSH2 0xFC JUMP JUMPDEST SWAP2 POP POP SWAP3 POP SWAP3 SWAP1 POP JUMP JUMPDEST PUSH2 0x16F8 DUP1 PUSH2 0x15B PUSH0 CODECOPY PUSH0 RETURN INVALID PUSH1 0x80 PUSH1 0x40 MSTORE PUSH1 0x4 CALLDATASIZE LT PUSH2 0x90 JUMPI PUSH0 CALLDATALOAD PUSH1 0xE0 SHR DUP1 PUSH4 0x8A9CFD55 GT PUSH2 0x58 JUMPI DUP1 PUSH4 0x8A9CFD55 EQ PUSH2 0x18C JUMPI DUP1 PUSH4 0x937E09B1 EQ PUSH2 0x1B4 JUMPI DUP1 PUSH4 0xAB2850DA EQ PUSH2 0x1DE JUMPI DUP1 PUSH4 0xD7BB99BA EQ PUSH2 0x21A JUMPI DUP1 PUSH4 0xD7D1BBDB EQ PUSH2 0x224 JUMPI PUSH2 0x90 JUMP JUMPDEST DUP1 PUSH4 0x3441006 EQ PUSH2 0x94 JUMPI DUP1 PUSH4 0xA144391 EQ PUSH2 0xBC JUMPI DUP1 PUSH4 0x481C6A75 EQ PUSH2 0xF8 JUMPI DUP1 PUSH4 0x81D12C58 EQ PUSH2 0x122 JUMPI DUP1 PUSH4 0x82FDE093 EQ PUSH2 0x162 JUMPI JUMPDEST PUSH0 PUSH0 REVERT JUMPDEST CALLVALUE DUP1 ISZERO PUSH2 0x9F JUMPI PUSH0 PUSH0 REVERT JUMPDEST POP PUSH2 0xBA PUSH1 0x4 DUP1 CALLDATASIZE SUB DUP2 ADD SWAP1 PUSH2 0xB5 SWAP2 SWAP1 PUSH2 0xADF JUMP JUMPDEST PUSH2 0x24C JUMP JUMPDEST STOP JUMPDEST CALLVALUE DUP1 ISZERO PUSH2 0xC7 JUMPI PUSH0 PUSH0 REVERT JUMPDEST POP PUSH2 0xE2 PUSH1 0x4 DUP1 CALLDATASIZE SUB DUP2 ADD SWAP1 PUSH2 0xDD SWAP2 SWAP1 PUSH2 0xB64 JUMP JUMPDEST PUSH2 0x42F JUMP JUMPDEST PUSH1 0x40 MLOAD PUSH2 0xEF SWAP2 SWAP1 PUSH2 0xBA9 JUMP JUMPDEST PUSH1 0x40 MLOAD DUP1 SWAP2 SUB SWAP1 RETURN JUMPDEST CALLVALUE DUP1 ISZERO PUSH2 0x103 JUMPI PUSH0 PUSH0 REVERT JUMPDEST POP PUSH2 0x10C PUSH2 0x44C JUMP JUMPDEST PUSH1 0x40 MLOAD PUSH2 0x119 SWAP2 SWAP1 PUSH2 0xBD1 JUMP JUMPDEST PUSH1 0x40 MLOAD DUP1 SWAP2 SUB SWAP1 RETURN JUMPDEST CALLVALUE DUP1 ISZERO PUSH2 0x12D JUMPI PUSH0 PUSH0 REVERT JUMPDEST POP PUSH2 0x148 PUSH1 0x4 DUP1 CALLDATASIZE SUB DUP2 ADD SWAP1 PUSH2 0x143 SWAP2 SWAP1 PUSH2 0xADF JUMP JUMPDEST PUSH2 0x471 JUMP JUMPDEST PUSH1 0x40 MLOAD PUSH2 0x159 SWAP6 SWAP5 SWAP4 SWAP3 SWAP2 SWAP1 PUSH2 0xC89 JUMP JUMPDEST PUSH1 0x40 MLOAD DUP1 SWAP2 SUB SWAP1 RETURN JUMPDEST CALLVALUE DUP1 ISZERO PUSH2 0x16D JUMPI PUSH0 PUSH0 REVERT JUMPDEST POP PUSH2 0x176 PUSH2 0x563 JUMP JUMPDEST PUSH1 0x40 MLOAD PUSH2 0x183 SWAP2 SWAP1 PUSH2 0xCE1 JUMP JUMPDEST PUSH1 0x40 MLOAD DUP1 SWAP2 SUB SWAP1 RETURN JUMPDEST CALLVALUE DUP1 ISZERO PUSH2 0x197 JUMPI PUSH0 PUSH0 REVERT JUMPDEST POP PUSH2 0x1B2 PUSH1 0x4 DUP1 CALLDATASIZE SUB DUP2 ADD SWAP1 PUSH2 0x1AD SWAP2 SWAP1 PUSH2 0xE50 JUMP JUMPDEST PUSH2 0x569 JUMP JUMPDEST STOP JUMPDEST CALLVALUE DUP1 ISZERO PUSH2 0x1BF JUMPI PUSH0 PUSH0 REVERT JUMPDEST POP PUSH2 0x1C8 PUSH2 0x7A9 JUMP JUMPDEST PUSH1 0x40 MLOAD PUSH2 0x1D5 SWAP2 SWAP1 PUSH2 0xCE1 JUMP JUMPDEST PUSH1 0x40 MLOAD DUP1 SWAP2 SUB SWAP1 RETURN JUMPDEST CALLVALUE DUP1 ISZERO PUSH2 0x1E9 JUMPI PUSH0 PUSH0 REVERT JUMPDEST POP PUSH2 0x204 PUSH1 0x4 DUP1 CALLDATASIZE SUB DUP2 ADD SWAP1 PUSH2 0x1FF SWAP2 SWAP1 PUSH2 0xEBC JUMP JUMPDEST PUSH2 0x7AF JUMP JUMPDEST PUSH1 0x40 MLOAD PUSH2 0x211 SWAP2 SWAP1 PUSH2 0xBA9 JUMP JUMPDEST PUSH1 0x40 MLOAD DUP1 SWAP2 SUB SWAP1 RETURN JUMPDEST PUSH2 0x222 PUSH2 0x7D9 JUMP JUMPDEST STOP JUMPDEST CALLVALUE DUP1 ISZERO PUSH2 0x22F JUMPI PUSH0 PUSH0 REVERT JUMPDEST POP PUSH2 0x24A PUSH1 0x4 DUP1 CALLDATASIZE SUB DUP2 ADD SWAP1 PUSH2 0x245 SWAP2 SWAP1 PUSH2 0xADF JUMP JUMPDEST PUSH2 0x8DB JUMP JUMPDEST STOP JUMPDEST PUSH1 0x1 PUSH0 SWAP1 SLOAD SWAP1 PUSH2 0x100 EXP SWAP1 DIV PUSH20 0xFFFFFFFFFFFFFFFFFFFFFFFFFFFFFFFFFFFFFFFF AND PUSH20 0xFFFFFFFFFFFFFFFFFFFFFFFFFFFFFFFFFFFFFFFF AND CALLER PUSH20 0xFFFFFFFFFFFFFFFFFFFFFFFFFFFFFFFFFFFFFFFF AND EQ PUSH2 0x2DB JUMPI PUSH1 0x40 MLOAD PUSH32 0x8C379A000000000000000000000000000000000000000000000000000000000 DUP2 MSTORE PUSH1 0x4 ADD PUSH2 0x2D2 SWAP1 PUSH2 0xF6A JUMP JUMPDEST PUSH1 0x40 MLOAD DUP1 SWAP2 SUB SWAP1 REVERT JUMPDEST PUSH0 PUSH0 DUP3 DUP2 SLOAD DUP2 LT PUSH2 0x2EF JUMPI PUSH2 0x2EE PUSH2 0xF88 JUMP JUMPDEST JUMPDEST SWAP1 PUSH0 MSTORE PUSH1 0x20 PUSH0 KECCAK256 SWAP1 PUSH1 0x4 MUL ADD SWAP1 POP PUSH1 0x2 PUSH1 0x4 SLOAD PUSH2 0x30C SWAP2 SWAP1 PUSH2 0x100F JUMP JUMPDEST DUP2 PUSH1 0x3 ADD SLOAD GT PUSH2 0x351 JUMPI PUSH1 0x40 MLOAD PUSH32 0x8C379A000000000000000000000000000000000000000000000000000000000 DUP2 MSTORE PUSH1 0x4 ADD PUSH2 0x348 SWAP1 PUSH2 0x1089 JUMP JUMPDEST PUSH1 0x40 MLOAD DUP1 SWAP2 SUB SWAP1 REVERT JUMPDEST DUP1 PUSH1 0x2 ADD PUSH1 0x14 SWAP1 SLOAD SWAP1 PUSH2 0x100 EXP SWAP1 DIV PUSH1 0xFF AND ISZERO PUSH2 0x3A3 JUMPI PUSH1 0x40 MLOAD PUSH32 0x8C379A000000000000000000000000000000000000000000000000000000000 DUP2 MSTORE PUSH1 0x4 ADD PUSH2 0x39A SWAP1 PUSH2 0x10F1 JUMP JUMPDEST PUSH1 0x40 MLOAD DUP1 SWAP2 SUB SWAP1 REVERT JUMPDEST DUP1 PUSH1 0x2 ADD PUSH0 SWAP1 SLOAD SWAP1 PUSH2 0x100 EXP SWAP1 DIV PUSH20 0xFFFFFFFFFFFFFFFFFFFFFFFFFFFFFFFFFFFFFFFF AND PUSH20 0xFFFFFFFFFFFFFFFFFFFFFFFFFFFFFFFFFFFFFFFF AND PUSH2 0x8FC DUP3 PUSH1 0x1 ADD SLOAD SWAP1 DUP2 ISZERO MUL SWAP1 PUSH1 0x40 MLOAD PUSH0 PUSH1 0x40 MLOAD DUP1 DUP4 SUB DUP2 DUP6 DUP9 DUP9 CALL SWAP4 POP POP POP POP ISZERO DUP1 ISZERO PUSH2 0x40D JUMPI RETURNDATASIZE PUSH0 PUSH0 RETURNDATACOPY RETURNDATASIZE PUSH0 REVERT JUMPDEST POP PUSH1 0x1 DUP2 PUSH1 0x2 ADD PUSH1 0x14 PUSH2 0x100 EXP DUP2 SLOAD DUP2 PUSH1 0xFF MUL NOT AND SWAP1 DUP4 ISZERO ISZERO MUL OR SWAP1 SSTORE POP POP POP JUMP JUMPDEST PUSH1 0x3 PUSH1 0x20 MSTORE DUP1 PUSH0 MSTORE PUSH1 0x40 PUSH0 KECCAK256 PUSH0 SWAP2 POP SLOAD SWAP1 PUSH2 0x100 EXP SWAP1 DIV PUSH1 0xFF AND DUP2 JUMP JUMPDEST PUSH1 0x1 PUSH0 SWAP1 SLOAD SWAP1 PUSH2 0x100 EXP SWAP1 DIV PUSH20 0xFFFFFFFFFFFFFFFFFFFFFFFFFFFFFFFFFFFFFFFF AND DUP2 JUMP JUMPDEST PUSH0 DUP2 DUP2 SLOAD DUP2 LT PUSH2 0x47F JUMPI PUSH0 DUP1 REVERT JUMPDEST SWAP1 PUSH0 MSTORE PUSH1 0x20 PUSH0 KECCAK256 SWAP1 PUSH1 0x4 MUL ADD PUSH0 SWAP2 POP SWAP1 POP DUP1 PUSH0 ADD DUP1 SLOAD PUSH2 0x49E SWAP1 PUSH2 0x113C JUMP JUMPDEST DUP1 PUSH1 0x1F ADD PUSH1 0x20 DUP1 SWAP2 DIV MUL PUSH1 0x20 ADD PUSH1 0x40 MLOAD SWAP1 DUP2 ADD PUSH1 0x40 MSTORE DUP1 SWAP3 SWAP2 SWAP1 DUP2 DUP2 MSTORE PUSH1 0x20 ADD DUP3 DUP1 SLOAD PUSH2 0x4CA SWAP1 PUSH2 0x113C JUMP JUMPDEST DUP1 ISZERO PUSH2 0x515 JUMPI DUP1 PUSH1 0x1F LT PUSH2 0x4EC JUMPI PUSH2 0x100 DUP1 DUP4 SLOAD DIV MUL DUP4 MSTORE SWAP2 PUSH1 0x20 ADD SWAP2 PUSH2 0x515 JUMP JUMPDEST DUP3 ADD SWAP2 SWAP1 PUSH0 MSTORE PUSH1 0x20 PUSH0 KECCAK256 SWAP1 JUMPDEST DUP2 SLOAD DUP2 MSTORE SWAP1 PUSH1 0x1 ADD SWAP1 PUSH1 0x20 ADD DUP1 DUP4 GT PUSH2 0x4F8 JUMPI DUP3 SWAP1 SUB PUSH1 0x1F AND DUP3 ADD SWAP2 JUMPDEST POP POP POP POP POP SWAP1 DUP1 PUSH1 0x1 ADD SLOAD SWAP1 DUP1 PUSH1 0x2 ADD PUSH0 SWAP1 SLOAD SWAP1 PUSH2 0x100 EXP SWAP1 DIV PUSH20 0xFFFFFFFFFFFFFFFFFFFFFFFFFFFFFFFFFFFFFFFF AND SWAP1 DUP1 PUSH1 0x2 ADD PUSH1 0x14 SWAP1 SLOAD SWAP1 PUSH2 0x100 EXP SWAP1 DIV PUSH1 0xFF AND SWAP1 DUP1 PUSH1 0x3 ADD SLOAD SWAP1 POP DUP6 JUMP JUMPDEST PUSH1 0x4 SLOAD DUP2 JUMP JUMPDEST PUSH1 0x1 PUSH0 SWAP1 SLOAD SWAP1 PUSH2 0x100 EXP SWAP1 DIV PUSH20 0xFFFFFFFFFFFFFFFFFFFFFFFFFFFFFFFFFFFFFFFF AND PUSH20 0xFFFFFFFFFFFFFFFFFFFFFFFFFFFFFFFFFFFFFFFF AND CALLER PUSH20 0xFFFFFFFFFFFFFFFFFFFFFFFFFFFFFFFFFFFFFFFF AND EQ PUSH2 0x5F8 JUMPI PUSH1 0x40 MLOAD PUSH32 0x8C379A000000000000000000000000000000000000000000000000000000000 DUP2 MSTORE PUSH1 0x4 ADD PUSH2 0x5EF SWAP1 PUSH2 0xF6A JUMP JUMPDEST PUSH1 0x40 MLOAD DUP1 SWAP2 SUB SWAP1 REVERT JUMPDEST SELFBALANCE DUP3 GT ISZERO PUSH2 0x63B JUMPI PUSH1 0x40 MLOAD PUSH32 0x8C379A000000000000000000000000000000000000000000000000000000000 DUP2 MSTORE PUSH1 0x4 ADD PUSH2 0x632 SWAP1 PUSH2 0x11DC JUMP JUMPDEST PUSH1 0x40 MLOAD DUP1 SWAP2 SUB SWAP1 REVERT JUMPDEST PUSH0 PUSH20 0xFFFFFFFFFFFFFFFFFFFFFFFFFFFFFFFFFFFFFFFF AND DUP2 PUSH20 0xFFFFFFFFFFFFFFFFFFFFFFFFFFFFFFFFFFFFFFFF AND SUB PUSH2 0x6A9 JUMPI PUSH1 0x40 MLOAD PUSH32 0x8C379A000000000000000000000000000000000000000000000000000000000 DUP2 MSTORE PUSH1 0x4 ADD PUSH2 0x6A0 SWAP1 PUSH2 0x1244 JUMP JUMPDEST PUSH1 0x40 MLOAD DUP1 SWAP2 SUB SWAP1 REVERT JUMPDEST PUSH0 PUSH1 0x40 MLOAD DUP1 PUSH1 0xA0 ADD PUSH1 0x40 MSTORE DUP1 DUP6 DUP2 MSTORE PUSH1 0x20 ADD DUP5 DUP2 MSTORE PUSH1 0x20 ADD DUP4 PUSH20 0xFFFFFFFFFFFFFFFFFFFFFFFFFFFFFFFFFFFFFFFF AND DUP2 MSTORE PUSH1 0x20 ADD PUSH0 ISZERO ISZERO DUP2 MSTORE PUSH1 0x20 ADD PUSH0 DUP2 MSTORE POP SWAP1 POP PUSH0 DUP2 SWAP1 DUP1 PUSH1 0x1 DUP2 SLOAD ADD DUP1 DUP3 SSTORE DUP1 SWAP2 POP POP PUSH1 0x1 SWAP1 SUB SWAP1 PUSH0 MSTORE PUSH1 0x20 PUSH0 KECCAK256 SWAP1 PUSH1 0x4 MUL ADD PUSH0 SWAP1 SWAP2 SWAP1 SWAP2 SWAP1 SWAP2 POP PUSH0 DUP3 ADD MLOAD DUP2 PUSH0 ADD SWAP1 DUP2 PUSH2 0x726 SWAP2 SWAP1 PUSH2 0x1402 JUMP JUMPDEST POP PUSH1 0x20 DUP3 ADD MLOAD DUP2 PUSH1 0x1 ADD SSTORE PUSH1 0x40 DUP3 ADD MLOAD DUP2 PUSH1 0x2 ADD PUSH0 PUSH2 0x100 EXP DUP2 SLOAD DUP2 PUSH20 0xFFFFFFFFFFFFFFFFFFFFFFFFFFFFFFFFFFFFFFFF MUL NOT AND SWAP1 DUP4 PUSH20 0xFFFFFFFFFFFFFFFFFFFFFFFFFFFFFFFFFFFFFFFF AND MUL OR SWAP1 SSTORE POP PUSH1 0x60 DUP3 ADD MLOAD DUP2 PUSH1 0x2 ADD PUSH1 0x14 PUSH2 0x100 EXP DUP2 SLOAD DUP2 PUSH1 0xFF MUL NOT AND SWAP1 DUP4 ISZERO ISZERO MUL OR SWAP1 SSTORE POP PUSH1 0x80 DUP3 ADD MLOAD DUP2 PUSH1 0x3 ADD SSTORE POP POP POP POP POP POP JUMP JUMPDEST PUSH1 0x2 SLOAD DUP2 JUMP JUMPDEST PUSH1 0x5 PUSH1 0x20 MSTORE DUP2 PUSH0 MSTORE PUSH1 0x40 PUSH0 KECCAK256 PUSH1 0x20 MSTORE DUP1 PUSH0 MSTORE PUSH1 0x40 PUSH0 KECCAK256 PUSH0 SWAP2 POP SWAP2 POP SWAP1 SLOAD SWAP1 PUSH2 0x100 EXP SWAP1 DIV PUSH1 0xFF AND DUP2 JUMP JUMPDEST PUSH1 0x2 SLOAD CALLVALUE LT ISZERO PUSH2 0x81E JUMPI PUSH1 0x40 MLOAD PUSH32 0x8C379A000000000000000000000000000000000000000000000000000000000 DUP2 MSTORE PUSH1 0x4 ADD PUSH2 0x815 SWAP1 PUSH2 0x1541 JUMP JUMPDEST PUSH1 0x40 MLOAD DUP1 SWAP2 SUB SWAP1 REVERT JUMPDEST PUSH1 0x3 PUSH0 CALLER PUSH20 0xFFFFFFFFFFFFFFFFFFFFFFFFFFFFFFFFFFFFFFFF AND PUSH20 0xFFFFFFFFFFFFFFFFFFFFFFFFFFFFFFFFFFFFFFFF AND DUP2 MSTORE PUSH1 0x20 ADD SWAP1 DUP2 MSTORE PUSH1 0x20 ADD PUSH0 KECCAK256 PUSH0 SWAP1 SLOAD SWAP1 PUSH2 0x100 EXP SWAP1 DIV PUSH1 0xFF AND PUSH2 0x8D9 JUMPI PUSH1 0x1 PUSH1 0x3 PUSH0 CALLER PUSH20 0xFFFFFFFFFFFFFFFFFFFFFFFFFFFFFFFFFFFFFFFF AND PUSH20 0xFFFFFFFFFFFFFFFFFFFFFFFFFFFFFFFFFFFFFFFF AND DUP2 MSTORE PUSH1 0x20 ADD SWAP1 DUP2 MSTORE PUSH1 0x20 ADD PUSH0 KECCAK256 PUSH0 PUSH2 0x100 EXP DUP2 SLOAD DUP2 PUSH1 0xFF MUL NOT AND SWAP1 DUP4 ISZERO ISZERO MUL OR SWAP1 SSTORE POP PUSH1 0x4 PUSH0 DUP2 SLOAD DUP1 SWAP3 SWAP2 SWAP1 PUSH2 0x8D3 SWAP1 PUSH2 0x155F JUMP JUMPDEST SWAP2 SWAP1 POP SSTORE POP JUMPDEST JUMP JUMPDEST PUSH1 0x3 PUSH0 CALLER PUSH20 0xFFFFFFFFFFFFFFFFFFFFFFFFFFFFFFFFFFFFFFFF AND PUSH20 0xFFFFFFFFFFFFFFFFFFFFFFFFFFFFFFFFFFFFFFFF AND DUP2 MSTORE PUSH1 0x20 ADD SWAP1 DUP2 MSTORE PUSH1 0x20 ADD PUSH0 KECCAK256 PUSH0 SWAP1 SLOAD SWAP1 PUSH2 0x100 EXP SWAP1 DIV PUSH1 0xFF AND PUSH2 0x964 JUMPI PUSH1 0x40 MLOAD PUSH32 0x8C379A000000000000000000000000000000000000000000000000000000000 DUP2 MSTORE PUSH1 0x4 ADD PUSH2 0x95B SWAP1 PUSH2 0x1616 JUMP JUMPDEST PUSH1 0x40 MLOAD DUP1 SWAP2 SUB SWAP1 REVERT JUMPDEST PUSH1 0x5 PUSH0 DUP3 DUP2 MSTORE PUSH1 0x20 ADD SWAP1 DUP2 MSTORE PUSH1 0x20 ADD PUSH0 KECCAK256 PUSH0 CALLER PUSH20 0xFFFFFFFFFFFFFFFFFFFFFFFFFFFFFFFFFFFFFFFF AND PUSH20 0xFFFFFFFFFFFFFFFFFFFFFFFFFFFFFFFFFFFFFFFF AND DUP2 MSTORE PUSH1 0x20 ADD SWAP1 DUP2 MSTORE PUSH1 0x20 ADD PUSH0 KECCAK256 PUSH0 SWAP1 SLOAD SWAP1 PUSH2 0x100 EXP SWAP1 DIV PUSH1 0xFF AND ISZERO PUSH2 0x9FD JUMPI PUSH1 0x40 MLOAD PUSH32 0x8C379A000000000000000000000000000000000000000000000000000000000 DUP2 MSTORE PUSH1 0x4 ADD PUSH2 0x9F4 SWAP1 PUSH2 0x16A4 JUMP JUMPDEST PUSH1 0x40 MLOAD DUP1 SWAP2 SUB SWAP1 REVERT JUMPDEST PUSH1 0x1 PUSH1 0x5 PUSH0 DUP4 DUP2 MSTORE PUSH1 0x20 ADD SWAP1 DUP2 MSTORE PUSH1 0x20 ADD PUSH0 KECCAK256 PUSH0 CALLER PUSH20 0xFFFFFFFFFFFFFFFFFFFFFFFFFFFFFFFFFFFFFFFF AND PUSH20 0xFFFFFFFFFFFFFFFFFFFFFFFFFFFFFFFFFFFFFFFF AND DUP2 MSTORE PUSH1 0x20 ADD SWAP1 DUP2 MSTORE PUSH1 0x20 ADD PUSH0 KECCAK256 PUSH0 PUSH2 0x100 EXP DUP2 SLOAD DUP2 PUSH1 0xFF MUL NOT AND SWAP1 DUP4 ISZERO ISZERO MUL OR SWAP1 SSTORE POP PUSH0 DUP2 DUP2 SLOAD DUP2 LT PUSH2 0xA74 JUMPI PUSH2 0xA73 PUSH2 0xF88 JUMP JUMPDEST JUMPDEST SWAP1 PUSH0 MSTORE PUSH1 0x20 PUSH0 KECCAK256 SWAP1 PUSH1 0x4 MUL ADD PUSH1 0x3 ADD PUSH0 DUP2 SLOAD DUP1 SWAP3 SWAP2 SWAP1 PUSH2 0xA93 SWAP1 PUSH2 0x155F JUMP JUMPDEST SWAP2 SWAP1 POP SSTORE POP POP JUMP JUMPDEST PUSH0 PUSH1 0x40 MLOAD SWAP1 POP SWAP1 JUMP JUMPDEST PUSH0 PUSH0 REVERT JUMPDEST PUSH0 PUSH0 REVERT JUMPDEST PUSH0 DUP2 SWAP1 POP SWAP2 SWAP1 POP JUMP JUMPDEST PUSH2 0xABE DUP2 PUSH2 0xAAC JUMP JUMPDEST DUP2 EQ PUSH2 0xAC8 JUMPI PUSH0 PUSH0 REVERT JUMPDEST POP JUMP JUMPDEST PUSH0 DUP2 CALLDATALOAD SWAP1 POP PUSH2 0xAD9 DUP2 PUSH2 0xAB5 JUMP JUMPDEST SWAP3 SWAP2 POP POP JUMP JUMPDEST PUSH0 PUSH1 0x20 DUP3 DUP5 SUB SLT ISZERO PUSH2 0xAF4 JUMPI PUSH2 0xAF3 PUSH2 0xAA4 JUMP JUMPDEST JUMPDEST PUSH0 PUSH2 0xB01 DUP5 DUP3 DUP6 ADD PUSH2 0xACB JUMP JUMPDEST SWAP2 POP POP SWAP3 SWAP2 POP POP JUMP JUMPDEST PUSH0 PUSH20 0xFFFFFFFFFFFFFFFFFFFFFFFFFFFFFFFFFFFFFFFF DUP3 AND SWAP1 POP SWAP2 SWAP1 POP JUMP JUMPDEST PUSH0 PUSH2 0xB33 DUP3 PUSH2 0xB0A JUMP JUMPDEST SWAP1 POP SWAP2 SWAP1 POP JUMP JUMPDEST PUSH2 0xB43 DUP2 PUSH2 0xB29 JUMP JUMPDEST DUP2 EQ PUSH2 0xB4D JUMPI PUSH0 PUSH0 REVERT JUMPDEST POP JUMP JUMPDEST PUSH0 DUP2 CALLDATALOAD SWAP1 POP PUSH2 0xB5E DUP2 PUSH2 0xB3A JUMP JUMPDEST SWAP3 SWAP2 POP POP JUMP JUMPDEST PUSH0 PUSH1 0x20 DUP3 DUP5 SUB SLT ISZERO PUSH2 0xB79 JUMPI PUSH2 0xB78 PUSH2 0xAA4 JUMP JUMPDEST JUMPDEST PUSH0 PUSH2 0xB86 DUP5 DUP3 DUP6 ADD PUSH2 0xB50 JUMP JUMPDEST SWAP2 POP POP SWAP3 SWAP2 POP POP JUMP JUMPDEST PUSH0 DUP2 ISZERO ISZERO SWAP1 POP SWAP2 SWAP1 POP JUMP JUMPDEST PUSH2 0xBA3 DUP2 PUSH2 0xB8F JUMP JUMPDEST DUP3 MSTORE POP POP JUMP JUMPDEST PUSH0 PUSH1 0x20 DUP3 ADD SWAP1 POP PUSH2 0xBBC PUSH0 DUP4 ADD DUP5 PUSH2 0xB9A JUMP JUMPDEST SWAP3 SWAP2 POP POP JUMP JUMPDEST PUSH2 0xBCB DUP2 PUSH2 0xB29 JUMP JUMPDEST DUP3 MSTORE POP POP JUMP JUMPDEST PUSH0 PUSH1 0x20 DUP3 ADD SWAP1 POP PUSH2 0xBE4 PUSH0 DUP4 ADD DUP5 PUSH2 0xBC2 JUMP JUMPDEST SWAP3 SWAP2 POP POP JUMP JUMPDEST PUSH0 DUP2 MLOAD SWAP1 POP SWAP2 SWAP1 POP JUMP JUMPDEST PUSH0 DUP3 DUP3 MSTORE PUSH1 0x20 DUP3 ADD SWAP1 POP SWAP3 SWAP2 POP POP JUMP JUMPDEST DUP3 DUP2 DUP4 MCOPY PUSH0 DUP4 DUP4 ADD MSTORE POP POP POP JUMP JUMPDEST PUSH0 PUSH1 0x1F NOT PUSH1 0x1F DUP4 ADD AND SWAP1 POP SWAP2 SWAP1 POP JUMP JUMPDEST PUSH0 PUSH2 0xC2C DUP3 PUSH2 0xBEA JUMP JUMPDEST PUSH2 0xC36 DUP2 DUP6 PUSH2 0xBF4 JUMP JUMPDEST SWAP4 POP PUSH2 0xC46 DUP2 DUP6 PUSH1 0x20 DUP7 ADD PUSH2 0xC04 JUMP JUMPDEST PUSH2 0xC4F DUP2 PUSH2 0xC12 JUMP JUMPDEST DUP5 ADD SWAP2 POP POP SWAP3 SWAP2 POP POP JUMP JUMPDEST PUSH2 0xC63 DUP2 PUSH2 0xAAC JUMP JUMPDEST DUP3 MSTORE POP POP JUMP JUMPDEST PUSH0 PUSH2 0xC73 DUP3 PUSH2 0xB0A JUMP JUMPDEST SWAP1 POP SWAP2 SWAP1 POP JUMP JUMPDEST PUSH2 0xC83 DUP2 PUSH2 0xC69 JUMP JUMPDEST DUP3 MSTORE POP POP JUMP JUMPDEST PUSH0 PUSH1 0xA0 DUP3 ADD SWAP1 POP DUP2 DUP2 SUB PUSH0 DUP4 ADD MSTORE PUSH2 0xCA1 DUP2 DUP9 PUSH2 0xC22 JUMP JUMPDEST SWAP1 POP PUSH2 0xCB0 PUSH1 0x20 DUP4 ADD DUP8 PUSH2 0xC5A JUMP JUMPDEST PUSH2 0xCBD PUSH1 0x40 DUP4 ADD DUP7 PUSH2 0xC7A JUMP JUMPDEST PUSH2 0xCCA PUSH1 0x60 DUP4 ADD DUP6 PUSH2 0xB9A JUMP JUMPDEST PUSH2 0xCD7 PUSH1 0x80 DUP4 ADD DUP5 PUSH2 0xC5A JUMP JUMPDEST SWAP7 SWAP6 POP POP POP POP POP POP JUMP JUMPDEST PUSH0 PUSH1 0x20 DUP3 ADD SWAP1 POP PUSH2 0xCF4 PUSH0 DUP4 ADD DUP5 PUSH2 0xC5A JUMP JUMPDEST SWAP3 SWAP2 POP POP JUMP JUMPDEST PUSH0 PUSH0 REVERT JUMPDEST PUSH0 PUSH0 REVERT JUMPDEST PUSH32 0x4E487B7100000000000000000000000000000000000000000000000000000000 PUSH0 MSTORE PUSH1 0x41 PUSH1 0x4 MSTORE PUSH1 0x24 PUSH0 REVERT JUMPDEST PUSH2 0xD38 DUP3 PUSH2 0xC12 JUMP JUMPDEST DUP2 ADD DUP2 DUP2 LT PUSH8 0xFFFFFFFFFFFFFFFF DUP3 GT OR ISZERO PUSH2 0xD57 JUMPI PUSH2 0xD56 PUSH2 0xD02 JUMP JUMPDEST JUMPDEST DUP1 PUSH1 0x40 MSTORE POP POP POP JUMP JUMPDEST PUSH0 PUSH2 0xD69 PUSH2 0xA9B JUMP JUMPDEST SWAP1 POP PUSH2 0xD75 DUP3 DUP3 PUSH2 0xD2F JUMP JUMPDEST SWAP2 SWAP1 POP JUMP JUMPDEST PUSH0 PUSH8 0xFFFFFFFFFFFFFFFF DUP3 GT ISZERO PUSH2 0xD94 JUMPI PUSH2 0xD93 PUSH2 0xD02 JUMP JUMPDEST JUMPDEST PUSH2 0xD9D DUP3 PUSH2 0xC12 JUMP JUMPDEST SWAP1 POP PUSH1 0x20 DUP2 ADD SWAP1 POP SWAP2 SWAP1 POP JUMP JUMPDEST DUP3 DUP2 DUP4 CALLDATACOPY PUSH0 DUP4 DUP4 ADD MSTORE POP POP POP JUMP JUMPDEST PUSH0 PUSH2 0xDCA PUSH2 0xDC5 DUP5 PUSH2 0xD7A JUMP JUMPDEST PUSH2 0xD60 JUMP JUMPDEST SWAP1 POP DUP3 DUP2 MSTORE PUSH1 0x20 DUP2 ADD DUP5 DUP5 DUP5 ADD GT ISZERO PUSH2 0xDE6 JUMPI PUSH2 0xDE5 PUSH2 0xCFE JUMP JUMPDEST JUMPDEST PUSH2 0xDF1 DUP5 DUP3 DUP6 PUSH2 0xDAA JUMP JUMPDEST POP SWAP4 SWAP3 POP POP POP JUMP JUMPDEST PUSH0 DUP3 PUSH1 0x1F DUP4 ADD SLT PUSH2 0xE0D JUMPI PUSH2 0xE0C PUSH2 0xCFA JUMP JUMPDEST JUMPDEST DUP2 CALLDATALOAD PUSH2 0xE1D DUP5 DUP3 PUSH1 0x20 DUP7 ADD PUSH2 0xDB8 JUMP JUMPDEST SWAP2 POP POP SWAP3 SWAP2 POP POP JUMP JUMPDEST PUSH2 0xE2F DUP2 PUSH2 0xC69 JUMP JUMPDEST DUP2 EQ PUSH2 0xE39 JUMPI PUSH0 PUSH0 REVERT JUMPDEST POP JUMP JUMPDEST PUSH0 DUP2 CALLDATALOAD SWAP1 POP PUSH2 0xE4A DUP2 PUSH2 0xE26 JUMP JUMPDEST SWAP3 SWAP2 POP POP JUMP JUMPDEST PUSH0 PUSH0 PUSH0 PUSH1 0x60 DUP5 DUP7 SUB SLT ISZERO PUSH2 0xE67 JUMPI PUSH2 0xE66 PUSH2 0xAA4 JUMP JUMPDEST JUMPDEST PUSH0 DUP5 ADD CALLDATALOAD PUSH8 0xFFFFFFFFFFFFFFFF DUP2 GT ISZERO PUSH2 0xE84 JUMPI PUSH2 0xE83 PUSH2 0xAA8 JUMP JUMPDEST JUMPDEST PUSH2 0xE90 DUP7 DUP3 DUP8 ADD PUSH2 0xDF9 JUMP JUMPDEST SWAP4 POP POP PUSH1 0x20 PUSH2 0xEA1 DUP7 DUP3 DUP8 ADD PUSH2 0xACB JUMP JUMPDEST SWAP3 POP POP PUSH1 0x40 PUSH2 0xEB2 DUP7 DUP3 DUP8 ADD PUSH2 0xE3C JUMP JUMPDEST SWAP2 POP POP SWAP3 POP SWAP3 POP SWAP3 JUMP JUMPDEST PUSH0 PUSH0 PUSH1 0x40 DUP4 DUP6 SUB SLT ISZERO PUSH2 0xED2 JUMPI PUSH2 0xED1 PUSH2 0xAA4 JUMP JUMPDEST JUMPDEST PUSH0 PUSH2 0xEDF DUP6 DUP3 DUP7 ADD PUSH2 0xACB JUMP JUMPDEST SWAP3 POP POP PUSH1 0x20 PUSH2 0xEF0 DUP6 DUP3 DUP7 ADD PUSH2 0xB50 JUMP JUMPDEST SWAP2 POP POP SWAP3 POP SWAP3 SWAP1 POP JUMP JUMPDEST PUSH32 0x4F6E6C7920746865206D616E616765722063616E2063616C6C20746869732066 PUSH0 DUP3 ADD MSTORE PUSH32 0x756E6374696F6E00000000000000000000000000000000000000000000000000 PUSH1 0x20 DUP3 ADD MSTORE POP JUMP JUMPDEST PUSH0 PUSH2 0xF54 PUSH1 0x27 DUP4 PUSH2 0xBF4 JUMP JUMPDEST SWAP2 POP PUSH2 0xF5F DUP3 PUSH2 0xEFA JUMP JUMPDEST PUSH1 0x40 DUP3 ADD SWAP1 POP SWAP2 SWAP1 POP JUMP JUMPDEST PUSH0 PUSH1 0x20 DUP3 ADD SWAP1 POP DUP2 DUP2 SUB PUSH0 DUP4 ADD MSTORE PUSH2 0xF81 DUP2 PUSH2 0xF48 JUMP JUMPDEST SWAP1 POP SWAP2 SWAP1 POP JUMP JUMPDEST PUSH32 0x4E487B7100000000000000000000000000000000000000000000000000000000 PUSH0 MSTORE PUSH1 0x32 PUSH1 0x4 MSTORE PUSH1 0x24 PUSH0 REVERT JUMPDEST PUSH32 0x4E487B7100000000000000000000000000000000000000000000000000000000 PUSH0 MSTORE PUSH1 0x12 PUSH1 0x4 MSTORE PUSH1 0x24 PUSH0 REVERT JUMPDEST PUSH32 0x4E487B7100000000000000000000000000000000000000000000000000000000 PUSH0 MSTORE PUSH1 0x11 PUSH1 0x4 MSTORE PUSH1 0x24 PUSH0 REVERT JUMPDEST PUSH0 PUSH2 0x1019 DUP3 PUSH2 0xAAC JUMP JUMPDEST SWAP2 POP PUSH2 0x1024 DUP4 PUSH2 0xAAC JUMP JUMPDEST SWAP3 POP DUP3 PUSH2 0x1034 JUMPI PUSH2 0x1033 PUSH2 0xFB5 JUMP JUMPDEST JUMPDEST DUP3 DUP3 DIV SWAP1 POP SWAP3 SWAP2 POP POP JUMP JUMPDEST PUSH32 0x4D616A6F7269747920617070726F76616C207265717569726564000000000000 PUSH0 DUP3 ADD MSTORE POP JUMP JUMPDEST PUSH0 PUSH2 0x1073 PUSH1 0x1A DUP4 PUSH2 0xBF4 JUMP JUMPDEST SWAP2 POP PUSH2 0x107E DUP3 PUSH2 0x103F JUMP JUMPDEST PUSH1 0x20 DUP3 ADD SWAP1 POP SWAP2 SWAP1 POP JUMP JUMPDEST PUSH0 PUSH1 0x20 DUP3 ADD SWAP1 POP DUP2 DUP2 SUB PUSH0 DUP4 ADD MSTORE PUSH2 0x10A0 DUP2 PUSH2 0x1067 JUMP JUMPDEST SWAP1 POP SWAP2 SWAP1 POP JUMP JUMPDEST PUSH32 0x5265717565737420616C726561647920636F6D706C6574656400000000000000 PUSH0 DUP3 ADD MSTORE POP JUMP JUMPDEST PUSH0 PUSH2 0x10DB PUSH1 0x19 DUP4 PUSH2 0xBF4 JUMP JUMPDEST SWAP2 POP PUSH2 0x10E6 DUP3 PUSH2 0x10A7 JUMP JUMPDEST PUSH1 0x20 DUP3 ADD SWAP1 POP SWAP2 SWAP1 POP JUMP JUMPDEST PUSH0 PUSH1 0x20 DUP3 ADD SWAP1 POP DUP2 DUP2 SUB PUSH0 DUP4 ADD MSTORE PUSH2 0x1108 DUP2 PUSH2 0x10CF JUMP JUMPDEST SWAP1 POP SWAP2 SWAP1 POP JUMP JUMPDEST PUSH32 0x4E487B7100000000000000000000000000000000000000000000000000000000 PUSH0 MSTORE PUSH1 0x22 PUSH1 0x4 MSTORE PUSH1 0x24 PUSH0 REVERT JUMPDEST PUSH0 PUSH1 0x2 DUP3 DIV SWAP1 POP PUSH1 0x1 DUP3 AND DUP1 PUSH2 0x1153 JUMPI PUSH1 0x7F DUP3 AND SWAP2 POP JUMPDEST PUSH1 0x20 DUP3 LT DUP2 SUB PUSH2 0x1166 JUMPI PUSH2 0x1165 PUSH2 0x110F JUMP JUMPDEST JUMPDEST POP SWAP2 SWAP1 POP JUMP JUMPDEST PUSH32 0x496E73756666696369656E742062616C616E636520696E207468652063616D70 PUSH0 DUP3 ADD MSTORE PUSH32 0x6169676E00000000000000000000000000000000000000000000000000000000 PUSH1 0x20 DUP3 ADD MSTORE POP JUMP JUMPDEST PUSH0 PUSH2 0x11C6 PUSH1 0x24 DUP4 PUSH2 0xBF4 JUMP JUMPDEST SWAP2 POP PUSH2 0x11D1 DUP3 PUSH2 0x116C JUMP JUMPDEST PUSH1 0x40 DUP3 ADD SWAP1 POP SWAP2 SWAP1 POP JUMP JUMPDEST PUSH0 PUSH1 0x20 DUP3 ADD SWAP1 POP DUP2 DUP2 SUB PUSH0 DUP4 ADD MSTORE PUSH2 0x11F3 DUP2 PUSH2 0x11BA JUMP JUMPDEST SWAP1 POP SWAP2 SWAP1 POP JUMP JUMPDEST PUSH32 0x526563697069656E7420616464726573732063616E6E6F74206265207A65726F PUSH0 DUP3 ADD MSTORE POP JUMP JUMPDEST PUSH0 PUSH2 0x122E PUSH1 0x20 DUP4 PUSH2 0xBF4 JUMP JUMPDEST SWAP2 POP PUSH2 0x1239 DUP3 PUSH2 0x11FA JUMP JUMPDEST PUSH1 0x20 DUP3 ADD SWAP1 POP SWAP2 SWAP1 POP JUMP JUMPDEST PUSH0 PUSH1 0x20 DUP3 ADD SWAP1 POP DUP2 DUP2 SUB PUSH0 DUP4 ADD MSTORE PUSH2 0x125B DUP2 PUSH2 0x1222 JUMP JUMPDEST SWAP1 POP SWAP2 SWAP1 POP JUMP JUMPDEST PUSH0 DUP2 SWAP1 POP DUP2 PUSH0 MSTORE PUSH1 0x20 PUSH0 KECCAK256 SWAP1 POP SWAP2 SWAP1 POP JUMP JUMPDEST PUSH0 PUSH1 0x20 PUSH1 0x1F DUP4 ADD DIV SWAP1 POP SWAP2 SWAP1 POP JUMP JUMPDEST PUSH0 DUP3 DUP3 SHL SWAP1 POP SWAP3 SWAP2 POP POP JUMP JUMPDEST PUSH0 PUSH1 0x8 DUP4 MUL PUSH2 0x12BE PUSH32 0xFFFFFFFFFFFFFFFFFFFFFFFFFFFFFFFFFFFFFFFFFFFFFFFFFFFFFFFFFFFFFFFF DUP3 PUSH2 0x1283 JUMP JUMPDEST PUSH2 0x12C8 DUP7 DUP4 PUSH2 0x1283 JUMP JUMPDEST SWAP6 POP DUP1 NOT DUP5 AND SWAP4 POP DUP1 DUP7 AND DUP5 OR SWAP3 POP POP POP SWAP4 SWAP3 POP POP POP JUMP JUMPDEST PUSH0 DUP2 SWAP1 POP SWAP2 SWAP1 POP JUMP JUMPDEST PUSH0 PUSH2 0x1303 PUSH2 0x12FE PUSH2 0x12F9 DUP5 PUSH2 0xAAC JUMP JUMPDEST PUSH2 0x12E0 JUMP JUMPDEST PUSH2 0xAAC JUMP JUMPDEST SWAP1 POP SWAP2 SWAP1 POP JUMP JUMPDEST PUSH0 DUP2 SWAP1 POP SWAP2 SWAP1 POP JUMP JUMPDEST PUSH2 0x131C DUP4 PUSH2 0x12E9 JUMP JUMPDEST PUSH2 0x1330 PUSH2 0x1328 DUP3 PUSH2 0x130A JUMP JUMPDEST DUP5 DUP5 SLOAD PUSH2 0x128F JUMP JUMPDEST DUP3 SSTORE POP POP POP POP JUMP JUMPDEST PUSH0 PUSH0 SWAP1 POP SWAP1 JUMP JUMPDEST PUSH2 0x1347 PUSH2 0x1338 JUMP JUMPDEST PUSH2 0x1352 DUP2 DUP5 DUP5 PUSH2 0x1313 JUMP JUMPDEST POP POP POP JUMP JUMPDEST JUMPDEST DUP2 DUP2 LT ISZERO PUSH2 0x1375 JUMPI PUSH2 0x136A PUSH0 DUP3 PUSH2 0x133F JUMP JUMPDEST PUSH1 0x1 DUP2 ADD SWAP1 POP PUSH2 0x1358 JUMP JUMPDEST POP POP JUMP JUMPDEST PUSH1 0x1F DUP3 GT ISZERO PUSH2 0x13BA JUMPI PUSH2 0x138B DUP2 PUSH2 0x1262 JUMP JUMPDEST PUSH2 0x1394 DUP5 PUSH2 0x1274 JUMP JUMPDEST DUP2 ADD PUSH1 0x20 DUP6 LT ISZERO PUSH2 0x13A3 JUMPI DUP2 SWAP1 POP JUMPDEST PUSH2 0x13B7 PUSH2 0x13AF DUP6 PUSH2 0x1274 JUMP JUMPDEST DUP4 ADD DUP3 PUSH2 0x1357 JUMP JUMPDEST POP POP JUMPDEST POP POP POP JUMP JUMPDEST PUSH0 DUP3 DUP3 SHR SWAP1 POP SWAP3 SWAP2 POP POP JUMP JUMPDEST PUSH0 PUSH2 0x13DA PUSH0 NOT DUP5 PUSH1 0x8 MUL PUSH2 0x13BF JUMP JUMPDEST NOT DUP1 DUP4 AND SWAP2 POP POP SWAP3 SWAP2 POP POP JUMP JUMPDEST PUSH0 PUSH2 0x13F2 DUP4 DUP4 PUSH2 0x13CB JUMP JUMPDEST SWAP2 POP DUP3 PUSH1 0x2 MUL DUP3 OR SWAP1 POP SWAP3 SWAP2 POP POP JUMP JUMPDEST PUSH2 0x140B DUP3 PUSH2 0xBEA JUMP JUMPDEST PUSH8 0xFFFFFFFFFFFFFFFF DUP2 GT ISZERO PUSH2 0x1424 JUMPI PUSH2 0x1423 PUSH2 0xD02 JUMP JUMPDEST JUMPDEST PUSH2 0x142E DUP3 SLOAD PUSH2 0x113C JUMP JUMPDEST PUSH2 0x1439 DUP3 DUP3 DUP6 PUSH2 0x1379 JUMP JUMPDEST PUSH0 PUSH1 0x20 SWAP1 POP PUSH1 0x1F DUP4 GT PUSH1 0x1 DUP2 EQ PUSH2 0x146A JUMPI PUSH0 DUP5 ISZERO PUSH2 0x1458 JUMPI DUP3 DUP8 ADD MLOAD SWAP1 POP JUMPDEST PUSH2 0x1462 DUP6 DUP3 PUSH2 0x13E7 JUMP JUMPDEST DUP7 SSTORE POP PUSH2 0x14C9 JUMP JUMPDEST PUSH1 0x1F NOT DUP5 AND PUSH2 0x1478 DUP7 PUSH2 0x1262 JUMP JUMPDEST PUSH0 JUMPDEST DUP3 DUP2 LT ISZERO PUSH2 0x149F JUMPI DUP5 DUP10 ADD MLOAD DUP3 SSTORE PUSH1 0x1 DUP3 ADD SWAP2 POP PUSH1 0x20 DUP6 ADD SWAP5 POP PUSH1 0x20 DUP2 ADD SWAP1 POP PUSH2 0x147A JUMP JUMPDEST DUP7 DUP4 LT ISZERO PUSH2 0x14BC JUMPI DUP5 DUP10 ADD MLOAD PUSH2 0x14B8 PUSH1 0x1F DUP10 AND DUP3 PUSH2 0x13CB JUMP JUMPDEST DUP4 SSTORE POP JUMPDEST PUSH1 0x1 PUSH1 0x2 DUP9 MUL ADD DUP9 SSTORE POP POP POP JUMPDEST POP POP POP POP POP POP JUMP JUMPDEST PUSH32 0x436F6E747269627574696F6E206D757374206265206174206C65617374207468 PUSH0 DUP3 ADD MSTORE PUSH32 0x65206D696E696D756D20616D6F756E7400000000000000000000000000000000 PUSH1 0x20 DUP3 ADD MSTORE POP JUMP JUMPDEST PUSH0 PUSH2 0x152B PUSH1 0x30 DUP4 PUSH2 0xBF4 JUMP JUMPDEST SWAP2 POP PUSH2 0x1536 DUP3 PUSH2 0x14D1 JUMP JUMPDEST PUSH1 0x40 DUP3 ADD SWAP1 POP SWAP2 SWAP1 POP JUMP JUMPDEST PUSH0 PUSH1 0x20 DUP3 ADD SWAP1 POP DUP2 DUP2 SUB PUSH0 DUP4 ADD MSTORE PUSH2 0x1558 DUP2 PUSH2 0x151F JUMP JUMPDEST SWAP1 POP SWAP2 SWAP1 POP JUMP JUMPDEST PUSH0 PUSH2 0x1569 DUP3 PUSH2 0xAAC JUMP JUMPDEST SWAP2 POP PUSH32 0xFFFFFFFFFFFFFFFFFFFFFFFFFFFFFFFFFFFFFFFFFFFFFFFFFFFFFFFFFFFFFFFF DUP3 SUB PUSH2 0x159B JUMPI PUSH2 0x159A PUSH2 0xFE2 JUMP JUMPDEST JUMPDEST PUSH1 0x1 DUP3 ADD SWAP1 POP SWAP2 SWAP1 POP JUMP JUMPDEST PUSH32 0x4F6E6C7920636F6E7472696275746F72732063616E20617070726F7665207265 PUSH0 DUP3 ADD MSTORE PUSH32 0x7175657374730000000000000000000000000000000000000000000000000000 PUSH1 0x20 DUP3 ADD MSTORE POP JUMP JUMPDEST PUSH0 PUSH2 0x1600 PUSH1 0x26 DUP4 PUSH2 0xBF4 JUMP JUMPDEST SWAP2 POP PUSH2 0x160B DUP3 PUSH2 0x15A6 JUMP JUMPDEST PUSH1 0x40 DUP3 ADD SWAP1 POP SWAP2 SWAP1 POP JUMP JUMPDEST PUSH0 PUSH1 0x20 DUP3 ADD SWAP1 POP DUP2 DUP2 SUB PUSH0 DUP4 ADD MSTORE PUSH2 0x162D DUP2 PUSH2 0x15F4 JUMP JUMPDEST SWAP1 POP SWAP2 SWAP1 POP JUMP JUMPDEST PUSH32 0x596F75206861766520616C726561647920617070726F76656420746869732072 PUSH0 DUP3 ADD MSTORE PUSH32 0x6571756573740000000000000000000000000000000000000000000000000000 PUSH1 0x20 DUP3 ADD MSTORE POP JUMP JUMPDEST PUSH0 PUSH2 0x168E PUSH1 0x26 DUP4 PUSH2 0xBF4 JUMP JUMPDEST SWAP2 POP PUSH2 0x1699 DUP3 PUSH2 0x1634 JUMP JUMPDEST PUSH1 0x40 DUP3 ADD SWAP1 POP SWAP2 SWAP1 POP JUMP JUMPDEST PUSH0 PUSH1 0x20 DUP3 ADD SWAP1 POP DUP2 DUP2 SUB PUSH0 DUP4 ADD MSTORE PUSH2 0x16BB DUP2 PUSH2 0x1682 JUMP JUMPDEST SWAP1 POP SWAP2 SWAP1 POP JUMP INVALID LOG2 PUSH5 0x6970667358 0x22 SLT KECCAK256 PUSH26 0x66471DBB3C61BDC5F347B00028A83137C517E246471996639635 PUSH29 0x46C5DE1064736F6C634300081C00330000000000000000000000000000 "},"gasEstimates":{"creation":{"codeDepositCost":"1176000","executionCost":"infinite","totalCost":"infinite"},"external":{"approvals(uint256,address)":"3114","approveRequest(uint256)":"infinite","approvers(address)":"2856","approversCount()":"2514","contribute()":"53256","createRequest(string,uint256,address)":"infinite","finalizeRequest(uint256)":"infinite","manager()":"2553","minimumContribution()":"2447","requests(uint256)":"infinite"}},"methodIdentifiers":{"approvals(uint256,address)":"ab2850da","approveRequest(uint256)":"d7d1bbdb","approvers(address)":"0a144391","approversCount()":"82fde093","contribute()":"d7bb99ba","createRequest(string,uint256,address)":"8a9cfd55","finalizeRequest(uint256)":"03441006","manager()":"481c6a75","minimumContribution()":"937e09b1","requests(uint256)":"81d12c58"}},"storageLayout":{"storage":[{"astId":54,"contract":"Campaign.sol:Campaign","label":"requests","offset":0,"slot":"0","type":"t_array(t_struct(Request)50_storage)dyn_storage"},{"astId":56,"contract":"Campaign.sol:Campaign","label":"manager","offset":0,"slot":"1","type":"t_address"},{"astId":58,"contract":"Campaign.sol:Campaign","label":"minimumContribution","offset":0,"slot":"2","type":"t_uint256"},{"astId":62,"contract":"Campaign.sol:Campaign","label":"approvers","offset":0,"slot":"3","type":"t_mapping(t_address,t_bool)"},{"astId":64,"contract":"Campaign.sol:Campaign","label":"approversCount","offset":0,"slot":"4","type":"t_uint256"},{"astId":70,"contract":"Campaign.sol:Campaign","label":"approvals","offset":0,"slot":"5","type":"t_mapping(t_uint256,t_mapping(t_address,t_bool))"}],"types":{"t_address":{"encoding":"inplace","label":"address","numberOfBytes":"20"},"t_address_payable":{"encoding":"inplace","label":"address payable","numberOfBytes":"20"},"t_array(t_struct(Request)50_storage)dyn_storage":{"base":"t_struct(Request)50_storage","encoding":"dynamic_array","label":"struct Campaign.Request[]","numberOfBytes":"32"},"t_bool":{"encoding":"inplace","label":"bool","numberOfBytes":"1"},"t_mapping(t_address,t_bool)":{"encoding":"mapping","key":"t_address","label":"mapping(address => bool)","numberOfBytes":"32","value":"t_bool"},"t_mapping(t_uint256,t_mapping(t_address,t_bool))":{"encoding":"mapping","key":"t_uint256","label":"mapping(uint256 => mapping(address => bool))","numberOfBytes":"32","value":"t_mapping(t_address,t_bool)"},"t_string_storage":{"encoding":"bytes","label":"string","numberOfBytes":"32"},"t_struct(Request)50_storage":{"encoding":"inplace","label":"struct Campaign.Request","members":[{"astId":41,"contract":"Campaign.sol:Campaign","label":"description","offset":0,"slot":"0","type":"t_string_storage"},{"astId":43,"contract":"Campaign.sol:Campaign","label":"value","offset":0,"slot":"1","type":"t_uint256"},{"astId":45,"contract":"Campaign.sol:Campaign","label":"recipient","offset":0,"slot":"2","type":"t_address_payable"},{"astId":47,"contract":"Campaign.sol:Campaign","label":"complete","offset":20,"slot":"2","type":"t_bool"},{"astId":49,"contract":"Campaign.sol:Campaign","label":"approvalCount","offset":0,"slot":"3","type":"t_uint256"}],"numberOfBytes":"128"},"t_uint256":{"encoding":"inplace","label":"uint256","numberOfBytes":"32"}}},"transientStorageLayout":{"storage":[],"types":null},"userdoc":{"kind":"user","methods":{},"version":1}}